{
  "_format": "hh-sol-artifact-1",
  "contractName": "SlyceDropBuy",
  "sourceName": "contracts/SlyceDropBuy.sol",
  "abi": [
    {
      "anonymous": false,
      "inputs": [
        {
          "indexed": true,
          "internalType": "address",
          "name": "slycerAdr",
          "type": "address"
        },
        {
          "indexed": true,
          "internalType": "uint256",
          "name": "slyceIdStart",
          "type": "uint256"
        },
        {
          "indexed": false,
          "internalType": "uint256",
          "name": "NumberOfSlyce",
          "type": "uint256"
        }
      ],
      "name": "DropPurchase",
      "type": "event"
    },
    {
      "anonymous": false,
      "inputs": [
        {
          "indexed": false,
          "internalType": "uint8",
          "name": "version",
          "type": "uint8"
        }
      ],
      "name": "Initialized",
      "type": "event"
    },
    {
      "anonymous": false,
      "inputs": [
        {
          "indexed": true,
          "internalType": "address",
          "name": "previousOwner",
          "type": "address"
        },
        {
          "indexed": true,
          "internalType": "address",
          "name": "newOwner",
          "type": "address"
        }
      ],
      "name": "OwnershipTransferred",
      "type": "event"
    },
    {
      "anonymous": false,
      "inputs": [
        {
          "indexed": false,
          "internalType": "address",
          "name": "account",
          "type": "address"
        }
      ],
      "name": "Paused",
      "type": "event"
    },
    {
      "anonymous": false,
      "inputs": [
        {
          "indexed": false,
          "internalType": "address",
          "name": "account",
          "type": "address"
        }
      ],
      "name": "Unpaused",
      "type": "event"
    },
    {
      "inputs": [
        {
          "internalType": "uint256",
          "name": "SlyceId",
          "type": "uint256"
        }
      ],
      "name": "_breakSlyceId",
      "outputs": [
        {
          "internalType": "uint8",
          "name": "_version",
          "type": "uint8"
        },
        {
          "internalType": "uint256",
          "name": "_dropId",
          "type": "uint256"
        },
        {
          "internalType": "uint16",
          "name": "_tierId",
          "type": "uint16"
        },
        {
          "internalType": "uint16",
          "name": "_tokenNumber",
          "type": "uint16"
        }
      ],
      "stateMutability": "pure",
      "type": "function"
    },
    {
      "inputs": [
        {
          "internalType": "uint256",
          "name": "_dropId",
          "type": "uint256"
        },
        {
          "internalType": "uint16",
          "name": "_tierId",
          "type": "uint16"
        },
        {
          "internalType": "uint16",
          "name": "_tokenNumber",
          "type": "uint16"
        }
      ],
      "name": "_createSlyceId",
      "outputs": [
        {
          "internalType": "uint256",
          "name": "_slyceId",
          "type": "uint256"
        }
      ],
      "stateMutability": "pure",
      "type": "function"
    },
    {
      "inputs": [
        {
          "internalType": "address",
          "name": "_tokenAddress",
          "type": "address"
        },
        {
          "internalType": "uint256[]",
          "name": "_slyceId",
          "type": "uint256[]"
        }
      ],
      "name": "areSlycesPurchasable",
      "outputs": [
        {
          "internalType": "bool[]",
          "name": "",
          "type": "bool[]"
        }
      ],
      "stateMutability": "view",
      "type": "function"
    },
    {
      "inputs": [],
      "name": "emergancyPause",
      "outputs": [],
      "stateMutability": "nonpayable",
      "type": "function"
    },
    {
      "inputs": [],
      "name": "emergancyUnPause",
      "outputs": [],
      "stateMutability": "nonpayable",
      "type": "function"
    },
    {
      "inputs": [
        {
          "internalType": "address",
          "name": "_slyceLogicContract",
          "type": "address"
        }
      ],
      "name": "initialize",
      "outputs": [],
      "stateMutability": "nonpayable",
      "type": "function"
    },
    {
      "inputs": [
        {
          "internalType": "address",
          "name": "_tokenAddress",
          "type": "address"
        },
        {
          "internalType": "uint256",
          "name": "_slyceId",
          "type": "uint256"
        }
      ],
      "name": "isSlycePurchasable",
      "outputs": [
        {
          "internalType": "bool",
          "name": "",
          "type": "bool"
        }
      ],
      "stateMutability": "view",
      "type": "function"
    },
    {
      "inputs": [
        {
          "internalType": "address",
          "name": "",
          "type": "address"
        },
        {
          "internalType": "address",
          "name": "",
          "type": "address"
        },
        {
          "internalType": "uint256[]",
          "name": "",
          "type": "uint256[]"
        },
        {
          "internalType": "uint256[]",
          "name": "",
          "type": "uint256[]"
        },
        {
          "internalType": "bytes",
          "name": "",
          "type": "bytes"
        }
      ],
      "name": "onERC1155BatchReceived",
      "outputs": [
        {
          "internalType": "bytes4",
          "name": "",
          "type": "bytes4"
        }
      ],
      "stateMutability": "nonpayable",
      "type": "function"
    },
    {
      "inputs": [
        {
          "internalType": "address",
          "name": "",
          "type": "address"
        },
        {
          "internalType": "address",
          "name": "",
          "type": "address"
        },
        {
          "internalType": "uint256",
          "name": "",
          "type": "uint256"
        },
        {
          "internalType": "uint256",
          "name": "",
          "type": "uint256"
        },
        {
          "internalType": "bytes",
          "name": "",
          "type": "bytes"
        }
      ],
      "name": "onERC1155Received",
      "outputs": [
        {
          "internalType": "bytes4",
          "name": "",
          "type": "bytes4"
        }
      ],
      "stateMutability": "nonpayable",
      "type": "function"
    },
    {
      "inputs": [],
      "name": "owner",
      "outputs": [
        {
          "internalType": "address",
          "name": "",
          "type": "address"
        }
      ],
      "stateMutability": "view",
      "type": "function"
    },
    {
      "inputs": [],
      "name": "paused",
      "outputs": [
        {
          "internalType": "bool",
          "name": "",
          "type": "bool"
        }
      ],
      "stateMutability": "view",
      "type": "function"
    },
    {
      "inputs": [
        {
          "internalType": "address",
          "name": "_tokenAddress",
          "type": "address"
        },
        {
          "internalType": "uint16",
          "name": "_tierToPurchase",
          "type": "uint16"
        },
        {
          "internalType": "uint256",
          "name": "_numberPurshased",
          "type": "uint256"
        }
      ],
      "name": "purchaseDrop",
      "outputs": [],
      "stateMutability": "nonpayable",
      "type": "function"
    },
    {
      "inputs": [
        {
          "internalType": "address",
          "name": "_tokenAddress",
          "type": "address"
        },
        {
          "internalType": "uint16",
          "name": "_tierToPurchase",
          "type": "uint16"
        },
        {
          "internalType": "uint256",
          "name": "_numberPurshased",
          "type": "uint256"
        }
      ],
      "name": "purchaseDropOffChain",
      "outputs": [],
      "stateMutability": "nonpayable",
      "type": "function"
    },
    {
      "inputs": [],
      "name": "renounceOwnership",
      "outputs": [],
      "stateMutability": "nonpayable",
      "type": "function"
    },
    {
      "inputs": [],
      "name": "slyceDropLogicContract",
      "outputs": [
        {
          "internalType": "address",
          "name": "",
          "type": "address"
        }
      ],
      "stateMutability": "view",
      "type": "function"
    },
    {
      "inputs": [
        {
          "internalType": "bytes4",
          "name": "interfaceId",
          "type": "bytes4"
        }
      ],
      "name": "supportsInterface",
      "outputs": [
        {
          "internalType": "bool",
          "name": "",
          "type": "bool"
        }
      ],
      "stateMutability": "view",
      "type": "function"
    },
    {
      "inputs": [
        {
          "internalType": "address",
          "name": "newOwner",
          "type": "address"
        }
      ],
      "name": "transferOwnership",
      "outputs": [],
      "stateMutability": "nonpayable",
      "type": "function"
    },
    {
      "inputs": [],
      "name": "usdcContract",
      "outputs": [
        {
          "internalType": "address",
          "name": "",
          "type": "address"
        }
      ],
      "stateMutability": "view",
      "type": "function"
    }
  ],
  "bytecode": "0x608060405234801561001057600080fd5b50612bf0806100206000396000f3fe608060405234801561001057600080fd5b50600436106101365760003560e01c80639705dbe4116100b2578063c4d66de811610081578063de4f682f11610066578063de4f682f14610357578063f23a6e611461036a578063f2fde38b146103a257600080fd5b8063c4d66de814610331578063ce9fb0ea1461034457600080fd5b80639705dbe41461028d578063addc2876146102a0578063bc197c81146102c0578063bc59381d1461032957600080fd5b80635c975abb11610109578063715018a6116100ee578063715018a6146102465780637410c2201461024e5780638da5cb5b1461026f57600080fd5b80635c975abb1461021a5780636f4db08f1461022557600080fd5b806301ffc9a71461013b5780631323e88b146101635780634cd00e03146101a357806353a401aa14610210575b600080fd5b61014e610149366004612391565b6103b5565b60405190151581526020015b60405180910390f35b61017e73e11a86849d99f524cac3e7a0ec1241828e332c6281565b60405173ffffffffffffffffffffffffffffffffffffffff909116815260200161015a565b6101e26101b13660046123d3565b60f881901c91602082901c7affffffffffffffffffffffffffffffffffffffffffffffffffffff1691601081901c91565b6040805160ff9095168552602085019390935261ffff9182169284019290925216606082015260800161015a565b61021861044e565b005b60335460ff1661014e565b610238610233366004612403565b610460565b60405190815260200161015a565b6102186104e0565b61012d5461017e9073ffffffffffffffffffffffffffffffffffffffff1681565b60655473ffffffffffffffffffffffffffffffffffffffff1661017e565b61014e61029b366004612461565b6104f2565b6102b36102ae36600461248d565b6105a0565b60405161015a9190612515565b6102f86102ce3660046126f6565b7fbc197c810000000000000000000000000000000000000000000000000000000095945050505050565b6040517fffffffff00000000000000000000000000000000000000000000000000000000909116815260200161015a565b610218610651565b61021861033f3660046127a4565b610661565b6102186103523660046127c1565b61084a565b6102186103653660046127c1565b610fea565b6102f86103783660046127ff565b7ff23a6e610000000000000000000000000000000000000000000000000000000095945050505050565b6102186103b03660046127a4565b61194b565b60007fffffffff0000000000000000000000000000000000000000000000000000000082167f4e2312e000000000000000000000000000000000000000000000000000000000148061044857507f01ffc9a7000000000000000000000000000000000000000000000000000000007fffffffff000000000000000000000000000000000000000000000000000000008316145b92915050565b610456611a02565b61045e611a83565b565b6000600161ffff831663ffff0000601086901b166104c3602088901b7effffffffffffffffffffffffffffffffffffffffffffffffffffffffffffff167f0100000000000000000000000000000000000000000000000000000000000000612897565b6104cd9190612897565b6104d79190612897565b95945050505050565b6104e8611a02565b61045e6000611b08565b6040517efdd58e0000000000000000000000000000000000000000000000000000000081523060048201526024810182905260009073ffffffffffffffffffffffffffffffffffffffff84169062fdd58e90604401602060405180830381865afa158015610564573d6000803e3d6000fd5b505050506040513d601f19601f8201168201806040525081019061058891906128af565b600114610596576000610599565b60015b9392505050565b606060008267ffffffffffffffff8111156105bd576105bd61255b565b6040519080825280602002602001820160405280156105e6578160200160208202803683370190505b50905060005b83811015610648576106168686868481811061060a5761060a6128c8565b905060200201356104f2565b828281518110610628576106286128c8565b91151560209283029190910190910152610641816128f7565b90506105ec565b50949350505050565b610659611a02565b61045e611b7f565b600054610100900460ff16158080156106815750600054600160ff909116105b8061069b5750303b15801561069b575060005460ff166001145b61072c576040517f08c379a000000000000000000000000000000000000000000000000000000000815260206004820152602e60248201527f496e697469616c697a61626c653a20636f6e747261637420697320616c72656160448201527f647920696e697469616c697a656400000000000000000000000000000000000060648201526084015b60405180910390fd5b600080547fffffffffffffffffffffffffffffffffffffffffffffffffffffffffffffff00166001179055801561078a57600080547fffffffffffffffffffffffffffffffffffffffffffffffffffffffffffff00ff166101001790555b61012d80547fffffffffffffffffffffffff00000000000000000000000000000000000000001673ffffffffffffffffffffffffffffffffffffffff84161790556107d3611bd6565b6107db611c75565b6107e3611d14565b801561084657600080547fffffffffffffffffffffffffffffffffffffffffffffffffffffffffffff00ff169055604051600181527f7f26b83ff96e1f2b6a682f133852f6798a09c465da95921460cefb38474024989060200160405180910390a15b5050565b610852611a02565b61085a611dab565b8273ffffffffffffffffffffffffffffffffffffffff166305eed1a16040518163ffffffff1660e01b8152600401602060405180830381865afa1580156108a5573d6000803e3d6000fd5b505050506040513d601f19601f820116820180604052508101906108c9919061292f565b61092f576040517f08c379a000000000000000000000000000000000000000000000000000000000815260206004820152601560248201527f5f746f6b656e4164647265737320696e76616c696400000000000000000000006044820152606401610723565b8273ffffffffffffffffffffffffffffffffffffffff166392c36ba06040518163ffffffff1660e01b8152600401600060405180830381865afa15801561097a573d6000803e3d6000fd5b505050506040513d6000823e601f3d9081017fffffffffffffffffffffffffffffffffffffffffffffffffffffffffffffffe01682016040526109c091908101906129ac565b8261ffff16815181106109d5576109d56128c8565b6020026020010151811115610a46576040517f08c379a000000000000000000000000000000000000000000000000000000000815260206004820152601860248201527f546f6f206d756368206e756d62657250757273686173656400000000000000006044820152606401610723565b61012d546040517f0d863d3d00000000000000000000000000000000000000000000000000000000815273ffffffffffffffffffffffffffffffffffffffff85811660048301526000928392839290911690630d863d3d90602401600060405180830381865afa158015610abe573d6000803e3d6000fd5b505050506040513d6000823e601f3d9081017fffffffffffffffffffffffffffffffffffffffffffffffffffffffffffffffe0168201604052610b0491908101906129e1565b9550505093505092506000838661ffff1681518110610b2557610b256128c8565b60200260200101519050600380811115610b4157610b41612a9e565b826003811115610b5357610b53612a9e565b14610bba576040517f08c379a000000000000000000000000000000000000000000000000000000000815260206004820152601560248201527f4e6f7420697320707572636861736520737461746500000000000000000000006044820152606401610723565b610c7283878973ffffffffffffffffffffffffffffffffffffffff166392c36ba06040518163ffffffff1660e01b8152600401600060405180830381865afa158015610c0a573d6000803e3d6000fd5b505050506040513d6000823e601f3d9081017fffffffffffffffffffffffffffffffffffffffffffffffffffffffffffffffe0168201604052610c5091908101906129ac565b8961ffff1681518110610c6557610c656128c8565b6020026020010151610460565b610c7c8683612897565b10610ce3576040517f08c379a000000000000000000000000000000000000000000000000000000000815260206004820152601860248201527f496e73756666696369656e7420746f6b656e206c6566742e00000000000000006044820152606401610723565b73ffffffffffffffffffffffffffffffffffffffff871662fdd58e30610d098885612897565b6040517fffffffff0000000000000000000000000000000000000000000000000000000060e085901b16815273ffffffffffffffffffffffffffffffffffffffff90921660048301526024820152604401602060405180830381865afa158015610d77573d6000803e3d6000fd5b505050506040513d601f19601f82011682018060405250810190610d9b91906128af565b600114610e04576040517f08c379a000000000000000000000000000000000000000000000000000000000815260206004820152601860248201527f496e73756666696369656e7420746f6b656e206c6566742e00000000000000006044820152606401610723565b60005b85811015610ee95773ffffffffffffffffffffffffffffffffffffffff881663f242432a3033610e378587612897565b6040517fffffffff0000000000000000000000000000000000000000000000000000000060e086901b16815273ffffffffffffffffffffffffffffffffffffffff938416600482015292909116602483015260448201526001606482015260a06084820152600060a482015260c401600060405180830381600087803b158015610ec057600080fd5b505af1158015610ed4573d6000803e3d6000fd5b5050505080610ee2906128f7565b9050610e07565b5061012d5473ffffffffffffffffffffffffffffffffffffffff1663843dd4278888610f158986612897565b6040517fffffffff0000000000000000000000000000000000000000000000000000000060e086901b16815273ffffffffffffffffffffffffffffffffffffffff909316600484015261ffff9091166024830152604482015260648101889052608401600060405180830381600087803b158015610f9257600080fd5b505af1158015610fa6573d6000803e3d6000fd5b50506040518781528392503391507fe962ab8975e3ded86d3bdae68691ba3ed22e3bf13fe9116bf2928f77e17e1a199060200160405180910390a350505050505050565b610ff2611dab565b8273ffffffffffffffffffffffffffffffffffffffff166305eed1a16040518163ffffffff1660e01b8152600401602060405180830381865afa15801561103d573d6000803e3d6000fd5b505050506040513d601f19601f82011682018060405250810190611061919061292f565b6110c7576040517f08c379a000000000000000000000000000000000000000000000000000000000815260206004820152601560248201527f5f746f6b656e4164647265737320696e76616c696400000000000000000000006044820152606401610723565b61012d546040517f0d863d3d00000000000000000000000000000000000000000000000000000000815273ffffffffffffffffffffffffffffffffffffffff85811660048301526000928392839283928392911690630d863d3d90602401600060405180830381865afa158015611142573d6000803e3d6000fd5b505050506040513d6000823e601f3d9081017fffffffffffffffffffffffffffffffffffffffffffffffffffffffffffffffe016820160405261118891908101906129e1565b955095509550955050945084518761ffff1610611201576040517f08c379a000000000000000000000000000000000000000000000000000000000815260206004820152601360248201527f54696572206e756d62657220696e76616c6964000000000000000000000000006044820152606401610723565b8773ffffffffffffffffffffffffffffffffffffffff166392c36ba06040518163ffffffff1660e01b8152600401600060405180830381865afa15801561124c573d6000803e3d6000fd5b505050506040513d6000823e601f3d9081017fffffffffffffffffffffffffffffffffffffffffffffffffffffffffffffffe016820160405261129291908101906129ac565b8761ffff16815181106112a7576112a76128c8565b6020026020010151861115611318576040517f08c379a000000000000000000000000000000000000000000000000000000000815260206004820152601860248201527f546f6f206d756368206e756d62657250757273686173656400000000000000006044820152606401610723565b6000858861ffff1681518110611330576113306128c8565b6020026020010151905060038081111561134c5761134c612a9e565b82600381111561135e5761135e612a9e565b146113c5576040517f08c379a000000000000000000000000000000000000000000000000000000000815260206004820152601560248201527f4e6f7420697320707572636861736520737461746500000000000000000000006044820152606401610723565b61147085898b73ffffffffffffffffffffffffffffffffffffffff166392c36ba06040518163ffffffff1660e01b8152600401600060405180830381865afa158015611415573d6000803e3d6000fd5b505050506040513d6000823e601f3d9081017fffffffffffffffffffffffffffffffffffffffffffffffffffffffffffffffe016820160405261145b91908101906129ac565b8b61ffff1681518110610c6557610c656128c8565b61147b600189612acd565b6114859083612897565b106114ec576040517f08c379a000000000000000000000000000000000000000000000000000000000815260206004820152601a60248201527f3129496e73756666696369656e7420746f6b656e206c6566742e0000000000006044820152606401610723565b73ffffffffffffffffffffffffffffffffffffffff891662fdd58e3061151360018b612acd565b61151d9085612897565b6040517fffffffff0000000000000000000000000000000000000000000000000000000060e085901b16815273ffffffffffffffffffffffffffffffffffffffff90921660048301526024820152604401602060405180830381865afa15801561158b573d6000803e3d6000fd5b505050506040513d601f19601f820116820180604052508101906115af91906128af565b600114611618576040517f08c379a000000000000000000000000000000000000000000000000000000000815260206004820152601a60248201527f3229496e73756666696369656e7420746f6b656e206c6566742e0000000000006044820152606401610723565b600087858a61ffff1681518110611631576116316128c8565b60200260200101516116439190612ae4565b6040517fdd62ed3e000000000000000000000000000000000000000000000000000000008152336004820152306024820152909150819073e11a86849d99f524cac3e7a0ec1241828e332c629063dd62ed3e90604401602060405180830381865afa1580156116b6573d6000803e3d6000fd5b505050506040513d601f19601f820116820180604052508101906116da91906128af565b1015611742576040517f08c379a000000000000000000000000000000000000000000000000000000000815260206004820152601660248201527f496e73756666696369656e7420616c6c6f77616e6365000000000000000000006044820152606401610723565b61176273e11a86849d99f524cac3e7a0ec1241828e332c62338684611e18565b60005b888110156118475773ffffffffffffffffffffffffffffffffffffffff8b1663f242432a30336117958588612897565b6040517fffffffff0000000000000000000000000000000000000000000000000000000060e086901b16815273ffffffffffffffffffffffffffffffffffffffff938416600482015292909116602483015260448201526001606482015260a06084820152600060a482015260c401600060405180830381600087803b15801561181e57600080fd5b505af1158015611832573d6000803e3d6000fd5b5050505080611840906128f7565b9050611765565b5061012d5473ffffffffffffffffffffffffffffffffffffffff1663843dd4278b8b6118738c87612897565b6040517fffffffff0000000000000000000000000000000000000000000000000000000060e086901b16815273ffffffffffffffffffffffffffffffffffffffff909316600484015261ffff90911660248301526044820152606481018b9052608401600060405180830381600087803b1580156118f057600080fd5b505af1158015611904573d6000803e3d6000fd5b50506040518a81528492503391507fe962ab8975e3ded86d3bdae68691ba3ed22e3bf13fe9116bf2928f77e17e1a199060200160405180910390a350505050505050505050565b611953611a02565b73ffffffffffffffffffffffffffffffffffffffff81166119f6576040517f08c379a000000000000000000000000000000000000000000000000000000000815260206004820152602660248201527f4f776e61626c653a206e6577206f776e657220697320746865207a65726f206160448201527f64647265737300000000000000000000000000000000000000000000000000006064820152608401610723565b6119ff81611b08565b50565b60655473ffffffffffffffffffffffffffffffffffffffff16331461045e576040517f08c379a000000000000000000000000000000000000000000000000000000000815260206004820181905260248201527f4f776e61626c653a2063616c6c6572206973206e6f7420746865206f776e65726044820152606401610723565b611a8b611dab565b603380547fffffffffffffffffffffffffffffffffffffffffffffffffffffffffffffff001660011790557f62e78cea01bee320cd4e420270b5ea74000d11b0c9f74754ebdbfc544b05a258611ade3390565b60405173ffffffffffffffffffffffffffffffffffffffff909116815260200160405180910390a1565b6065805473ffffffffffffffffffffffffffffffffffffffff8381167fffffffffffffffffffffffff0000000000000000000000000000000000000000831681179093556040519116919082907f8be0079c531659141344cd1fd0a4f28419497f9722a3daafe3b4186f6b6457e090600090a35050565b611b87611eb3565b603380547fffffffffffffffffffffffffffffffffffffffffffffffffffffffffffffff001690557f5db9ee0a495bf2e6ff9c91a7834c1ba4fdd244a5e8aa4e537bd38aeae4b073aa33611ade565b600054610100900460ff16611c6d576040517f08c379a000000000000000000000000000000000000000000000000000000000815260206004820152602b60248201527f496e697469616c697a61626c653a20636f6e7472616374206973206e6f74206960448201527f6e697469616c697a696e670000000000000000000000000000000000000000006064820152608401610723565b61045e611f1f565b600054610100900460ff16611d0c576040517f08c379a000000000000000000000000000000000000000000000000000000000815260206004820152602b60248201527f496e697469616c697a61626c653a20636f6e7472616374206973206e6f74206960448201527f6e697469616c697a696e670000000000000000000000000000000000000000006064820152608401610723565b61045e611fe0565b600054610100900460ff1661045e576040517f08c379a000000000000000000000000000000000000000000000000000000000815260206004820152602b60248201527f496e697469616c697a61626c653a20636f6e7472616374206973206e6f74206960448201527f6e697469616c697a696e670000000000000000000000000000000000000000006064820152608401610723565b60335460ff161561045e576040517f08c379a000000000000000000000000000000000000000000000000000000000815260206004820152601060248201527f5061757361626c653a20706175736564000000000000000000000000000000006044820152606401610723565b6040805173ffffffffffffffffffffffffffffffffffffffff85811660248301528416604482015260648082018490528251808303909101815260849091019091526020810180517bffffffffffffffffffffffffffffffffffffffffffffffffffffffff167f23b872dd00000000000000000000000000000000000000000000000000000000179052611ead908590612080565b50505050565b60335460ff1661045e576040517f08c379a000000000000000000000000000000000000000000000000000000000815260206004820152601460248201527f5061757361626c653a206e6f74207061757365640000000000000000000000006044820152606401610723565b600054610100900460ff16611fb6576040517f08c379a000000000000000000000000000000000000000000000000000000000815260206004820152602b60248201527f496e697469616c697a61626c653a20636f6e7472616374206973206e6f74206960448201527f6e697469616c697a696e670000000000000000000000000000000000000000006064820152608401610723565b603380547fffffffffffffffffffffffffffffffffffffffffffffffffffffffffffffff00169055565b600054610100900460ff16612077576040517f08c379a000000000000000000000000000000000000000000000000000000000815260206004820152602b60248201527f496e697469616c697a61626c653a20636f6e7472616374206973206e6f74206960448201527f6e697469616c697a696e670000000000000000000000000000000000000000006064820152608401610723565b61045e33611b08565b60006120e2826040518060400160405280602081526020017f5361666545524332303a206c6f772d6c6576656c2063616c6c206661696c65648152508573ffffffffffffffffffffffffffffffffffffffff166121919092919063ffffffff16565b80519091501561218c5780806020019051810190612100919061292f565b61218c576040517f08c379a000000000000000000000000000000000000000000000000000000000815260206004820152602a60248201527f5361666545524332303a204552433230206f7065726174696f6e20646964206e60448201527f6f742073756363656564000000000000000000000000000000000000000000006064820152608401610723565b505050565b60606121a084846000856121a8565b949350505050565b60608247101561223a576040517f08c379a000000000000000000000000000000000000000000000000000000000815260206004820152602660248201527f416464726573733a20696e73756666696369656e742062616c616e636520666f60448201527f722063616c6c00000000000000000000000000000000000000000000000000006064820152608401610723565b73ffffffffffffffffffffffffffffffffffffffff85163b6122b8576040517f08c379a000000000000000000000000000000000000000000000000000000000815260206004820152601d60248201527f416464726573733a2063616c6c20746f206e6f6e2d636f6e74726163740000006044820152606401610723565b6000808673ffffffffffffffffffffffffffffffffffffffff1685876040516122e19190612b4d565b60006040518083038185875af1925050503d806000811461231e576040519150601f19603f3d011682016040523d82523d6000602084013e612323565b606091505b509150915061233382828661233e565b979650505050505050565b6060831561234d575081610599565b82511561235d5782518084602001fd5b816040517f08c379a00000000000000000000000000000000000000000000000000000000081526004016107239190612b69565b6000602082840312156123a357600080fd5b81357fffffffff000000000000000000000000000000000000000000000000000000008116811461059957600080fd5b6000602082840312156123e557600080fd5b5035919050565b803561ffff811681146123fe57600080fd5b919050565b60008060006060848603121561241857600080fd5b83359250612428602085016123ec565b9150612436604085016123ec565b90509250925092565b73ffffffffffffffffffffffffffffffffffffffff811681146119ff57600080fd5b6000806040838503121561247457600080fd5b823561247f8161243f565b946020939093013593505050565b6000806000604084860312156124a257600080fd5b83356124ad8161243f565b9250602084013567ffffffffffffffff808211156124ca57600080fd5b818601915086601f8301126124de57600080fd5b8135818111156124ed57600080fd5b8760208260051b850101111561250257600080fd5b6020830194508093505050509250925092565b6020808252825182820181905260009190848201906040850190845b8181101561254f578351151583529284019291840191600101612531565b50909695505050505050565b7f4e487b7100000000000000000000000000000000000000000000000000000000600052604160045260246000fd5b604051601f82017fffffffffffffffffffffffffffffffffffffffffffffffffffffffffffffffe016810167ffffffffffffffff811182821017156125d1576125d161255b565b604052919050565b600067ffffffffffffffff8211156125f3576125f361255b565b5060051b60200190565b600082601f83011261260e57600080fd5b8135602061262361261e836125d9565b61258a565b82815260059290921b8401810191818101908684111561264257600080fd5b8286015b8481101561265d5780358352918301918301612646565b509695505050505050565b600082601f83011261267957600080fd5b813567ffffffffffffffff8111156126935761269361255b565b6126c460207fffffffffffffffffffffffffffffffffffffffffffffffffffffffffffffffe0601f8401160161258a565b8181528460208386010111156126d957600080fd5b816020850160208301376000918101602001919091529392505050565b600080600080600060a0868803121561270e57600080fd5b85356127198161243f565b945060208601356127298161243f565b9350604086013567ffffffffffffffff8082111561274657600080fd5b61275289838a016125fd565b9450606088013591508082111561276857600080fd5b61277489838a016125fd565b9350608088013591508082111561278a57600080fd5b5061279788828901612668565b9150509295509295909350565b6000602082840312156127b657600080fd5b81356105998161243f565b6000806000606084860312156127d657600080fd5b83356127e18161243f565b92506127ef602085016123ec565b9150604084013590509250925092565b600080600080600060a0868803121561281757600080fd5b85356128228161243f565b945060208601356128328161243f565b93506040860135925060608601359150608086013567ffffffffffffffff81111561285c57600080fd5b61279788828901612668565b7f4e487b7100000000000000000000000000000000000000000000000000000000600052601160045260246000fd5b600082198211156128aa576128aa612868565b500190565b6000602082840312156128c157600080fd5b5051919050565b7f4e487b7100000000000000000000000000000000000000000000000000000000600052603260045260246000fd5b60007fffffffffffffffffffffffffffffffffffffffffffffffffffffffffffffffff820361292857612928612868565b5060010190565b60006020828403121561294157600080fd5b8151801515811461059957600080fd5b600082601f83011261296257600080fd5b8151602061297261261e836125d9565b82815260059290921b8401810191818101908684111561299157600080fd5b8286015b8481101561265d5780518352918301918301612995565b6000602082840312156129be57600080fd5b815167ffffffffffffffff8111156129d557600080fd5b6121a084828501612951565b60008060008060008060c087890312156129fa57600080fd5b865167ffffffffffffffff80821115612a1257600080fd5b612a1e8a838b01612951565b97506020890151915080821115612a3457600080fd5b612a408a838b01612951565b9650604089015195506060890151915080821115612a5d57600080fd5b50612a6a89828a01612951565b9350506080870151612a7b8161243f565b60a088015190925060048110612a9057600080fd5b809150509295509295509295565b7f4e487b7100000000000000000000000000000000000000000000000000000000600052602160045260246000fd5b600082821015612adf57612adf612868565b500390565b6000817fffffffffffffffffffffffffffffffffffffffffffffffffffffffffffffffff0483118215151615612b1c57612b1c612868565b500290565b60005b83811015612b3c578181015183820152602001612b24565b83811115611ead5750506000910152565b60008251612b5f818460208701612b21565b9190910192915050565b6020815260008251806020840152612b88816040850160208701612b21565b601f017fffffffffffffffffffffffffffffffffffffffffffffffffffffffffffffffe016919091016040019291505056fea2646970667358221220223c8df531659205bbb71ced39e5cdb405802f21544043199f7d879da6c421c964736f6c634300080d0033",
  "linkReferences": {},
  "deployedLinkReferences": {}
}