{
  "_format": "hh-sol-artifact-1",
  "contractName": "SlyceToken",
  "sourceName": "contracts/SlyceToken.sol",
  "abi": [
    {
      "inputs": [
        {
          "internalType": "address",
          "name": "_artist",
          "type": "address"
        },
        {
          "internalType": "uint256[]",
          "name": "_amountTierId",
          "type": "uint256[]"
        },
        {
          "internalType": "string",
          "name": "_tokenURI",
          "type": "string"
        },
        {
          "internalType": "string",
          "name": "_contractURI",
          "type": "string"
        }
      ],
      "stateMutability": "nonpayable",
      "type": "constructor"
    },
    {
      "anonymous": false,
      "inputs": [
        {
          "indexed": true,
          "internalType": "address",
          "name": "account",
          "type": "address"
        },
        {
          "indexed": true,
          "internalType": "address",
          "name": "operator",
          "type": "address"
        },
        {
          "indexed": false,
          "internalType": "bool",
          "name": "approved",
          "type": "bool"
        }
      ],
      "name": "ApprovalForAll",
      "type": "event"
    },
    {
      "anonymous": false,
      "inputs": [
        {
          "indexed": true,
          "internalType": "address",
          "name": "previousOwner",
          "type": "address"
        },
        {
          "indexed": true,
          "internalType": "address",
          "name": "newOwner",
          "type": "address"
        }
      ],
      "name": "OwnershipTransferred",
      "type": "event"
    },
    {
      "anonymous": false,
      "inputs": [
        {
          "indexed": true,
          "internalType": "address",
          "name": "operator",
          "type": "address"
        },
        {
          "indexed": true,
          "internalType": "address",
          "name": "from",
          "type": "address"
        },
        {
          "indexed": true,
          "internalType": "address",
          "name": "to",
          "type": "address"
        },
        {
          "indexed": false,
          "internalType": "uint256[]",
          "name": "ids",
          "type": "uint256[]"
        },
        {
          "indexed": false,
          "internalType": "uint256[]",
          "name": "values",
          "type": "uint256[]"
        }
      ],
      "name": "TransferBatch",
      "type": "event"
    },
    {
      "anonymous": false,
      "inputs": [
        {
          "indexed": true,
          "internalType": "address",
          "name": "operator",
          "type": "address"
        },
        {
          "indexed": true,
          "internalType": "address",
          "name": "from",
          "type": "address"
        },
        {
          "indexed": true,
          "internalType": "address",
          "name": "to",
          "type": "address"
        },
        {
          "indexed": false,
          "internalType": "uint256",
          "name": "id",
          "type": "uint256"
        },
        {
          "indexed": false,
          "internalType": "uint256",
          "name": "value",
          "type": "uint256"
        }
      ],
      "name": "TransferSingle",
      "type": "event"
    },
    {
      "anonymous": false,
      "inputs": [
        {
          "indexed": false,
          "internalType": "string",
          "name": "value",
          "type": "string"
        },
        {
          "indexed": true,
          "internalType": "uint256",
          "name": "id",
          "type": "uint256"
        }
      ],
      "name": "URI",
      "type": "event"
    },
    {
      "inputs": [],
      "name": "artist",
      "outputs": [
        {
          "internalType": "address",
          "name": "",
          "type": "address"
        }
      ],
      "stateMutability": "view",
      "type": "function"
    },
    {
      "inputs": [
        {
          "internalType": "address",
          "name": "account",
          "type": "address"
        },
        {
          "internalType": "uint256",
          "name": "id",
          "type": "uint256"
        }
      ],
      "name": "balanceOf",
      "outputs": [
        {
          "internalType": "uint256",
          "name": "",
          "type": "uint256"
        }
      ],
      "stateMutability": "view",
      "type": "function"
    },
    {
      "inputs": [
        {
          "internalType": "address[]",
          "name": "accounts",
          "type": "address[]"
        },
        {
          "internalType": "uint256[]",
          "name": "ids",
          "type": "uint256[]"
        }
      ],
      "name": "balanceOfBatch",
      "outputs": [
        {
          "internalType": "uint256[]",
          "name": "",
          "type": "uint256[]"
        }
      ],
      "stateMutability": "view",
      "type": "function"
    },
    {
      "inputs": [],
      "name": "contractURI",
      "outputs": [
        {
          "internalType": "string",
          "name": "",
          "type": "string"
        }
      ],
      "stateMutability": "view",
      "type": "function"
    },
    {
      "inputs": [],
      "name": "contractUriBase",
      "outputs": [
        {
          "internalType": "string",
          "name": "",
          "type": "string"
        }
      ],
      "stateMutability": "view",
      "type": "function"
    },
    {
      "inputs": [],
      "name": "getAmountTier",
      "outputs": [
        {
          "internalType": "uint256[]",
          "name": "",
          "type": "uint256[]"
        }
      ],
      "stateMutability": "view",
      "type": "function"
    },
    {
      "inputs": [
        {
          "internalType": "address",
          "name": "account",
          "type": "address"
        },
        {
          "internalType": "address",
          "name": "operator",
          "type": "address"
        }
      ],
      "name": "isApprovedForAll",
      "outputs": [
        {
          "internalType": "bool",
          "name": "",
          "type": "bool"
        }
      ],
      "stateMutability": "view",
      "type": "function"
    },
    {
      "inputs": [],
      "name": "isSlyceToken",
      "outputs": [
        {
          "internalType": "bool",
          "name": "",
          "type": "bool"
        }
      ],
      "stateMutability": "view",
      "type": "function"
    },
    {
      "inputs": [
        {
          "internalType": "address",
          "name": "_mintAddress",
          "type": "address"
        },
        {
          "internalType": "uint256",
          "name": "_slyceId",
          "type": "uint256"
        },
        {
          "internalType": "uint96",
          "name": "_royaltyTierId",
          "type": "uint96"
        }
      ],
      "name": "mint",
      "outputs": [],
      "stateMutability": "nonpayable",
      "type": "function"
    },
    {
      "inputs": [],
      "name": "owner",
      "outputs": [
        {
          "internalType": "address",
          "name": "",
          "type": "address"
        }
      ],
      "stateMutability": "view",
      "type": "function"
    },
    {
      "inputs": [],
      "name": "renounceOwnership",
      "outputs": [],
      "stateMutability": "nonpayable",
      "type": "function"
    },
    {
      "inputs": [
        {
          "internalType": "uint256",
          "name": "_tokenId",
          "type": "uint256"
        },
        {
          "internalType": "uint256",
          "name": "_salePrice",
          "type": "uint256"
        }
      ],
      "name": "royaltyInfo",
      "outputs": [
        {
          "internalType": "address",
          "name": "",
          "type": "address"
        },
        {
          "internalType": "uint256",
          "name": "",
          "type": "uint256"
        }
      ],
      "stateMutability": "view",
      "type": "function"
    },
    {
      "inputs": [
        {
          "internalType": "address",
          "name": "from",
          "type": "address"
        },
        {
          "internalType": "address",
          "name": "to",
          "type": "address"
        },
        {
          "internalType": "uint256[]",
          "name": "ids",
          "type": "uint256[]"
        },
        {
          "internalType": "uint256[]",
          "name": "amounts",
          "type": "uint256[]"
        },
        {
          "internalType": "bytes",
          "name": "data",
          "type": "bytes"
        }
      ],
      "name": "safeBatchTransferFrom",
      "outputs": [],
      "stateMutability": "nonpayable",
      "type": "function"
    },
    {
      "inputs": [
        {
          "internalType": "address",
          "name": "from",
          "type": "address"
        },
        {
          "internalType": "address",
          "name": "to",
          "type": "address"
        },
        {
          "internalType": "uint256",
          "name": "id",
          "type": "uint256"
        },
        {
          "internalType": "uint256",
          "name": "amount",
          "type": "uint256"
        },
        {
          "internalType": "bytes",
          "name": "data",
          "type": "bytes"
        }
      ],
      "name": "safeTransferFrom",
      "outputs": [],
      "stateMutability": "nonpayable",
      "type": "function"
    },
    {
      "inputs": [
        {
          "internalType": "address",
          "name": "operator",
          "type": "address"
        },
        {
          "internalType": "bool",
          "name": "approved",
          "type": "bool"
        }
      ],
      "name": "setApprovalForAll",
      "outputs": [],
      "stateMutability": "nonpayable",
      "type": "function"
    },
    {
      "inputs": [
        {
          "internalType": "bytes4",
          "name": "interfaceId",
          "type": "bytes4"
        }
      ],
      "name": "supportsInterface",
      "outputs": [
        {
          "internalType": "bool",
          "name": "",
          "type": "bool"
        }
      ],
      "stateMutability": "view",
      "type": "function"
    },
    {
      "inputs": [
        {
          "internalType": "uint256",
          "name": "",
          "type": "uint256"
        }
      ],
      "name": "tierAmount",
      "outputs": [
        {
          "internalType": "uint256",
          "name": "",
          "type": "uint256"
        }
      ],
      "stateMutability": "view",
      "type": "function"
    },
    {
      "inputs": [
        {
          "internalType": "uint256",
          "name": "",
          "type": "uint256"
        }
      ],
      "name": "tokenOwnerById",
      "outputs": [
        {
          "internalType": "address",
          "name": "",
          "type": "address"
        }
      ],
      "stateMutability": "view",
      "type": "function"
    },
    {
      "inputs": [
        {
          "internalType": "address",
          "name": "newOwner",
          "type": "address"
        }
      ],
      "name": "transferOwnership",
      "outputs": [],
      "stateMutability": "nonpayable",
      "type": "function"
    },
    {
      "inputs": [
        {
          "internalType": "uint256",
          "name": "_slyceId",
          "type": "uint256"
        }
      ],
      "name": "uri",
      "outputs": [
        {
          "internalType": "string",
          "name": "",
          "type": "string"
        }
      ],
      "stateMutability": "view",
      "type": "function"
    },
    {
      "inputs": [],
      "name": "uriBase",
      "outputs": [
        {
          "internalType": "string",
          "name": "",
          "type": "string"
        }
      ],
      "stateMutability": "view",
      "type": "function"
    }
  ],
  "bytecode": "0x60806040523480156200001157600080fd5b5060405162002d3838038062002d388339810160408190526200003491620002ed565b6040805160208101909152600081526200004e81620000c1565b506200005a33620000da565b600780546001600160a01b0319166001600160a01b03861617905580516200008a9060089060208401906200012c565b508251620000a090600a906020860190620001bb565b508151620000b69060099060208501906200012c565b50505050506200044a565b8051620000d69060029060208401906200012c565b5050565b600580546001600160a01b038381166001600160a01b0319831681179093556040519116919082907f8be0079c531659141344cd1fd0a4f28419497f9722a3daafe3b4186f6b6457e090600090a35050565b8280546200013a906200040e565b90600052602060002090601f0160209004810192826200015e5760008555620001a9565b82601f106200017957805160ff1916838001178555620001a9565b82800160010185558215620001a9579182015b82811115620001a95782518255916020019190600101906200018c565b50620001b7929150620001f8565b5090565b828054828255906000526020600020908101928215620001a95791602002820182811115620001a95782518255916020019190600101906200018c565b5b80821115620001b75760008155600101620001f9565b634e487b7160e01b600052604160045260246000fd5b604051601f8201601f191681016001600160401b03811182821017156200025057620002506200020f565b604052919050565b600082601f8301126200026a57600080fd5b81516001600160401b038111156200028657620002866200020f565b60206200029c601f8301601f1916820162000225565b8281528582848701011115620002b157600080fd5b60005b83811015620002d1578581018301518282018401528201620002b4565b83811115620002e35760008385840101525b5095945050505050565b600080600080608085870312156200030457600080fd5b84516001600160a01b03811681146200031c57600080fd5b602086810151919550906001600160401b03808211156200033c57600080fd5b818801915088601f8301126200035157600080fd5b8151818111156200036657620003666200020f565b8060051b6200037785820162000225565b918252838101850191858101908c8411156200039257600080fd5b948601945b83861015620003b25785518252948601949086019062000397565b60408c0151909950955050505080831115620003cd57600080fd5b620003db89848a0162000258565b94506060880151925080831115620003f257600080fd5b5050620004028782880162000258565b91505092959194509250565b600181811c908216806200042357607f821691505b6020821081036200044457634e487b7160e01b600052602260045260246000fd5b50919050565b6128de806200045a6000396000f3fe608060405234801561001057600080fd5b50600436106101765760003560e01c80638da5cb5b116100d8578063e71c50941161008c578063f242432a11610066578063f242432a1461039b578063f2fde38b146103ae578063fbca0ce1146103c157600080fd5b8063e71c509414610342578063e8a3d4851461034a578063e985e9c51461035257600080fd5b8063981fd422116100bd578063981fd422146102e6578063a22cb4651461031c578063c1f2fa691461032f57600080fd5b80638da5cb5b146102c057806392c36ba0146102de57600080fd5b80632eb2c2d61161012f5780634e1273f4116101145780634e1273f414610285578063715018a6146102a55780638a596732146102ad57600080fd5b80632eb2c2d61461022b57806343bc16121461024057600080fd5b806305eed1a11161016057806305eed1a1146101c45780630e89341c146101cc5780632a55205a146101ec57600080fd5b8062fdd58e1461017b57806301ffc9a7146101a1575b600080fd5b61018e610189366004611e2b565b6103c9565b6040519081526020015b60405180910390f35b6101b46101af366004611e83565b6104a6565b6040519015158152602001610198565b6101b4600181565b6101df6101da366004611ea7565b6104c6565b6040516101989190611f3a565b6101ff6101fa366004611f4d565b6104fa565b6040805173ffffffffffffffffffffffffffffffffffffffff9093168352602083019190915201610198565b61023e610239366004612110565b6105f1565b005b6007546102609073ffffffffffffffffffffffffffffffffffffffff1681565b60405173ffffffffffffffffffffffffffffffffffffffff9091168152602001610198565b6102986102933660046121ba565b6106ba565b60405161019891906122c0565b61023e610812565b61018e6102bb366004611ea7565b610826565b60055473ffffffffffffffffffffffffffffffffffffffff16610260565b610298610847565b6102606102f4366004611ea7565b60066020526000908152604090205473ffffffffffffffffffffffffffffffffffffffff1681565b61023e61032a3660046122d3565b61089f565b61023e61033d36600461230f565b6108ae565b6101df6108fc565b6101df61098a565b6101b4610360366004612360565b73ffffffffffffffffffffffffffffffffffffffff918216600090815260016020908152604080832093909416825291909152205460ff1690565b61023e6103a9366004612393565b610a13565b61023e6103bc3660046123f8565b610ad5565b6101df610b8c565b600073ffffffffffffffffffffffffffffffffffffffff8316610473576040517f08c379a000000000000000000000000000000000000000000000000000000000815260206004820152602a60248201527f455243313135353a2061646472657373207a65726f206973206e6f742061207660448201527f616c6964206f776e65720000000000000000000000000000000000000000000060648201526084015b60405180910390fd5b5060009081526020818152604080832073ffffffffffffffffffffffffffffffffffffffff949094168352929052205490565b60006104b182610b99565b806104c057506104c082610c7c565b92915050565b606060096104d383610cd2565b6040516020016104e4929190612482565b6040516020818303038152906040529050919050565b600082815260046020908152604080832081518083019092525473ffffffffffffffffffffffffffffffffffffffff8116808352740100000000000000000000000000000000000000009091046bffffffffffffffffffffffff169282019290925282916105b557506040805180820190915260035473ffffffffffffffffffffffffffffffffffffffff811682527401000000000000000000000000000000000000000090046bffffffffffffffffffffffff1660208201525b6020810151600090612710906105d9906bffffffffffffffffffffffff16876125b4565b6105e39190612620565b915196919550909350505050565b73ffffffffffffffffffffffffffffffffffffffff851633148061061a575061061a8533610360565b6106a6576040517f08c379a000000000000000000000000000000000000000000000000000000000815260206004820152602f60248201527f455243313135353a2063616c6c6572206973206e6f7420746f6b656e206f776e60448201527f6572206e6f7220617070726f7665640000000000000000000000000000000000606482015260840161046a565b6106b38585858585610e0f565b5050505050565b6060815183511461074d576040517f08c379a000000000000000000000000000000000000000000000000000000000815260206004820152602960248201527f455243313135353a206163636f756e747320616e6420696473206c656e67746860448201527f206d69736d617463680000000000000000000000000000000000000000000000606482015260840161046a565b6000835167ffffffffffffffff81111561076957610769611f6f565b604051908082528060200260200182016040528015610792578160200160208202803683370190505b50905060005b845181101561080a576107dd8582815181106107b6576107b6612634565b60200260200101518583815181106107d0576107d0612634565b60200260200101516103c9565b8282815181106107ef576107ef612634565b602090810291909101015261080381612663565b9050610798565b509392505050565b61081a611157565b61082460006111d8565b565b600a818154811061083657600080fd5b600091825260209091200154905081565b6060600a80548060200260200160405190810160405280929190818152602001828054801561089557602002820191906000526020600020905b815481526020019060010190808311610881575b5050505050905090565b6108aa33838361124f565b5050565b6108b6611157565b6108d283836001604051806020016040528060008152506113a2565b6007546108f790839073ffffffffffffffffffffffffffffffffffffffff1683611522565b505050565b6008805461090990612413565b80601f016020809104026020016040519081016040528092919081815260200182805461093590612413565b80156109825780601f1061095757610100808354040283529160200191610982565b820191906000526020600020905b81548152906001019060200180831161096557829003601f168201915b505050505081565b60606008805461099990612413565b80601f01602080910402602001604051908101604052809291908181526020018280546109c590612413565b80156108955780601f106109e757610100808354040283529160200191610895565b820191906000526020600020905b8154815290600101906020018083116109f557509395945050505050565b73ffffffffffffffffffffffffffffffffffffffff8516331480610a3c5750610a3c8533610360565b610ac8576040517f08c379a000000000000000000000000000000000000000000000000000000000815260206004820152602f60248201527f455243313135353a2063616c6c6572206973206e6f7420746f6b656e206f776e60448201527f6572206e6f7220617070726f7665640000000000000000000000000000000000606482015260840161046a565b6106b385858585856116ac565b610add611157565b73ffffffffffffffffffffffffffffffffffffffff8116610b80576040517f08c379a000000000000000000000000000000000000000000000000000000000815260206004820152602660248201527f4f776e61626c653a206e6577206f776e657220697320746865207a65726f206160448201527f6464726573730000000000000000000000000000000000000000000000000000606482015260840161046a565b610b89816111d8565b50565b6009805461090990612413565b60007fffffffff0000000000000000000000000000000000000000000000000000000082167fd9b67a26000000000000000000000000000000000000000000000000000000001480610c2c57507fffffffff0000000000000000000000000000000000000000000000000000000082167f0e89341c00000000000000000000000000000000000000000000000000000000145b806104c057507f01ffc9a7000000000000000000000000000000000000000000000000000000007fffffffff000000000000000000000000000000000000000000000000000000008316146104c0565b60007fffffffff0000000000000000000000000000000000000000000000000000000082167f2a55205a0000000000000000000000000000000000000000000000000000000014806104c057506104c082610b99565b606081600003610d1557505060408051808201909152600181527f3000000000000000000000000000000000000000000000000000000000000000602082015290565b8160005b8115610d3f5780610d2981612663565b9150610d389050600a83612620565b9150610d19565b60008167ffffffffffffffff811115610d5a57610d5a611f6f565b6040519080825280601f01601f191660200182016040528015610d84576020820181803683370190505b5090505b8415610e0757610d9960018361269b565b9150610da6600a866126b2565b610db19060306126c6565b60f81b818381518110610dc657610dc6612634565b60200101907effffffffffffffffffffffffffffffffffffffffffffffffffffffffffffff1916908160001a905350610e00600a86612620565b9450610d88565b949350505050565b8151835114610ea0576040517f08c379a000000000000000000000000000000000000000000000000000000000815260206004820152602860248201527f455243313135353a2069647320616e6420616d6f756e7473206c656e6774682060448201527f6d69736d61746368000000000000000000000000000000000000000000000000606482015260840161046a565b73ffffffffffffffffffffffffffffffffffffffff8416610f43576040517f08c379a000000000000000000000000000000000000000000000000000000000815260206004820152602560248201527f455243313135353a207472616e7366657220746f20746865207a65726f20616460448201527f6472657373000000000000000000000000000000000000000000000000000000606482015260840161046a565b3360005b84518110156110b4576000858281518110610f6457610f64612634565b602002602001015190506000858381518110610f8257610f82612634565b6020908102919091018101516000848152808352604080822073ffffffffffffffffffffffffffffffffffffffff8e16835290935291909120549091508181101561104f576040517f08c379a000000000000000000000000000000000000000000000000000000000815260206004820152602a60248201527f455243313135353a20696e73756666696369656e742062616c616e636520666f60448201527f72207472616e7366657200000000000000000000000000000000000000000000606482015260840161046a565b60008381526020818152604080832073ffffffffffffffffffffffffffffffffffffffff8e8116855292528083208585039055908b168252812080548492906110999084906126c6565b92505081905550505050806110ad90612663565b9050610f47565b508473ffffffffffffffffffffffffffffffffffffffff168673ffffffffffffffffffffffffffffffffffffffff168273ffffffffffffffffffffffffffffffffffffffff167f4a39dc06d4c0dbc64b70af90fd698a233a518aa5d07e595d983b8c0526c8f7fb878760405161112b9291906126de565b60405180910390a46111418187878787876118f8565b61114f818787878787611980565b505050505050565b60055473ffffffffffffffffffffffffffffffffffffffff163314610824576040517f08c379a000000000000000000000000000000000000000000000000000000000815260206004820181905260248201527f4f776e61626c653a2063616c6c6572206973206e6f7420746865206f776e6572604482015260640161046a565b6005805473ffffffffffffffffffffffffffffffffffffffff8381167fffffffffffffffffffffffff0000000000000000000000000000000000000000831681179093556040519116919082907f8be0079c531659141344cd1fd0a4f28419497f9722a3daafe3b4186f6b6457e090600090a35050565b8173ffffffffffffffffffffffffffffffffffffffff168373ffffffffffffffffffffffffffffffffffffffff160361130a576040517f08c379a000000000000000000000000000000000000000000000000000000000815260206004820152602960248201527f455243313135353a2073657474696e6720617070726f76616c2073746174757360448201527f20666f722073656c660000000000000000000000000000000000000000000000606482015260840161046a565b73ffffffffffffffffffffffffffffffffffffffff83811660008181526001602090815260408083209487168084529482529182902080547fffffffffffffffffffffffffffffffffffffffffffffffffffffffffffffff001686151590811790915591519182527f17307eab39ab6107e8899845ad3d59bd9653f200f220920489ca2b5937696c31910160405180910390a3505050565b73ffffffffffffffffffffffffffffffffffffffff8416611445576040517f08c379a000000000000000000000000000000000000000000000000000000000815260206004820152602160248201527f455243313135353a206d696e7420746f20746865207a65726f2061646472657360448201527f7300000000000000000000000000000000000000000000000000000000000000606482015260840161046a565b33600061145185611c0a565b9050600061145e85611c0a565b905060008681526020818152604080832073ffffffffffffffffffffffffffffffffffffffff8b1684529091528120805487929061149d9084906126c6565b9091555050604080518781526020810187905273ffffffffffffffffffffffffffffffffffffffff808a1692600092918716917fc3d58168c5ae7397731d063d5bbf3d657854427343f4c083240f7aacaa2d0f62910160405180910390a461150a836000898585896118f8565b61151983600089898989611c55565b50505050505050565b6127106bffffffffffffffffffffffff821611156115c2576040517f08c379a000000000000000000000000000000000000000000000000000000000815260206004820152602a60248201527f455243323938313a20726f79616c7479206665652077696c6c2065786365656460448201527f2073616c65507269636500000000000000000000000000000000000000000000606482015260840161046a565b73ffffffffffffffffffffffffffffffffffffffff821661163f576040517f08c379a000000000000000000000000000000000000000000000000000000000815260206004820152601b60248201527f455243323938313a20496e76616c696420706172616d65746572730000000000604482015260640161046a565b60408051808201825273ffffffffffffffffffffffffffffffffffffffff93841681526bffffffffffffffffffffffff9283166020808301918252600096875260049052919094209351905190911674010000000000000000000000000000000000000000029116179055565b73ffffffffffffffffffffffffffffffffffffffff841661174f576040517f08c379a000000000000000000000000000000000000000000000000000000000815260206004820152602560248201527f455243313135353a207472616e7366657220746f20746865207a65726f20616460448201527f6472657373000000000000000000000000000000000000000000000000000000606482015260840161046a565b33600061175b85611c0a565b9050600061176885611c0a565b905060008681526020818152604080832073ffffffffffffffffffffffffffffffffffffffff8c16845290915290205485811015611828576040517f08c379a000000000000000000000000000000000000000000000000000000000815260206004820152602a60248201527f455243313135353a20696e73756666696369656e742062616c616e636520666f60448201527f72207472616e7366657200000000000000000000000000000000000000000000606482015260840161046a565b60008781526020818152604080832073ffffffffffffffffffffffffffffffffffffffff8d8116855292528083208985039055908a168252812080548892906118729084906126c6565b9091555050604080518881526020810188905273ffffffffffffffffffffffffffffffffffffffff808b16928c821692918816917fc3d58168c5ae7397731d063d5bbf3d657854427343f4c083240f7aacaa2d0f62910160405180910390a46118df848a8a86868a6118f8565b6118ed848a8a8a8a8a611c55565b505050505050505050565b60005b835181101561151957846006600086848151811061191b5761191b612634565b6020026020010151815260200190815260200160002060006101000a81548173ffffffffffffffffffffffffffffffffffffffff021916908373ffffffffffffffffffffffffffffffffffffffff1602179055508061197990612663565b90506118fb565b73ffffffffffffffffffffffffffffffffffffffff84163b1561114f576040517fbc197c8100000000000000000000000000000000000000000000000000000000815273ffffffffffffffffffffffffffffffffffffffff85169063bc197c81906119f7908990899088908890889060040161270c565b6020604051808303816000875af1925050508015611a50575060408051601f3d9081017fffffffffffffffffffffffffffffffffffffffffffffffffffffffffffffffe0168201909252611a4d91810190612777565b60015b611b3957611a5c612794565b806308c379a003611aaf5750611a706127b0565b80611a7b5750611ab1565b806040517f08c379a000000000000000000000000000000000000000000000000000000000815260040161046a9190611f3a565b505b6040517f08c379a000000000000000000000000000000000000000000000000000000000815260206004820152603460248201527f455243313135353a207472616e7366657220746f206e6f6e204552433131353560448201527f526563656976657220696d706c656d656e746572000000000000000000000000606482015260840161046a565b7fffffffff0000000000000000000000000000000000000000000000000000000081167fbc197c810000000000000000000000000000000000000000000000000000000014611519576040517f08c379a000000000000000000000000000000000000000000000000000000000815260206004820152602860248201527f455243313135353a204552433131353552656365697665722072656a6563746560448201527f6420746f6b656e73000000000000000000000000000000000000000000000000606482015260840161046a565b60408051600180825281830190925260609160009190602080830190803683370190505090508281600081518110611c4457611c44612634565b602090810291909101015292915050565b73ffffffffffffffffffffffffffffffffffffffff84163b1561114f576040517ff23a6e6100000000000000000000000000000000000000000000000000000000815273ffffffffffffffffffffffffffffffffffffffff85169063f23a6e6190611ccc9089908990889088908890600401612858565b6020604051808303816000875af1925050508015611d25575060408051601f3d9081017fffffffffffffffffffffffffffffffffffffffffffffffffffffffffffffffe0168201909252611d2291810190612777565b60015b611d3157611a5c612794565b7fffffffff0000000000000000000000000000000000000000000000000000000081167ff23a6e610000000000000000000000000000000000000000000000000000000014611519576040517f08c379a000000000000000000000000000000000000000000000000000000000815260206004820152602860248201527f455243313135353a204552433131353552656365697665722072656a6563746560448201527f6420746f6b656e73000000000000000000000000000000000000000000000000606482015260840161046a565b803573ffffffffffffffffffffffffffffffffffffffff81168114611e2657600080fd5b919050565b60008060408385031215611e3e57600080fd5b611e4783611e02565b946020939093013593505050565b7fffffffff0000000000000000000000000000000000000000000000000000000081168114610b8957600080fd5b600060208284031215611e9557600080fd5b8135611ea081611e55565b9392505050565b600060208284031215611eb957600080fd5b5035919050565b60005b83811015611edb578181015183820152602001611ec3565b83811115611eea576000848401525b50505050565b60008151808452611f08816020860160208601611ec0565b601f017fffffffffffffffffffffffffffffffffffffffffffffffffffffffffffffffe0169290920160200192915050565b602081526000611ea06020830184611ef0565b60008060408385031215611f6057600080fd5b50508035926020909101359150565b7f4e487b7100000000000000000000000000000000000000000000000000000000600052604160045260246000fd5b7fffffffffffffffffffffffffffffffffffffffffffffffffffffffffffffffe0601f830116810181811067ffffffffffffffff82111715611fe257611fe2611f6f565b6040525050565b600067ffffffffffffffff82111561200357612003611f6f565b5060051b60200190565b600082601f83011261201e57600080fd5b8135602061202b82611fe9565b6040516120388282611f9e565b83815260059390931b850182019282810191508684111561205857600080fd5b8286015b84811015612073578035835291830191830161205c565b509695505050505050565b600082601f83011261208f57600080fd5b813567ffffffffffffffff8111156120a9576120a9611f6f565b6040516120de60207fffffffffffffffffffffffffffffffffffffffffffffffffffffffffffffffe0601f8501160182611f9e565b8181528460208386010111156120f357600080fd5b816020850160208301376000918101602001919091529392505050565b600080600080600060a0868803121561212857600080fd5b61213186611e02565b945061213f60208701611e02565b9350604086013567ffffffffffffffff8082111561215c57600080fd5b61216889838a0161200d565b9450606088013591508082111561217e57600080fd5b61218a89838a0161200d565b935060808801359150808211156121a057600080fd5b506121ad8882890161207e565b9150509295509295909350565b600080604083850312156121cd57600080fd5b823567ffffffffffffffff808211156121e557600080fd5b818501915085601f8301126121f957600080fd5b8135602061220682611fe9565b6040516122138282611f9e565b83815260059390931b850182019282810191508984111561223357600080fd5b948201945b838610156122585761224986611e02565b82529482019490820190612238565b9650508601359250508082111561226e57600080fd5b5061227b8582860161200d565b9150509250929050565b600081518084526020808501945080840160005b838110156122b557815187529582019590820190600101612299565b509495945050505050565b602081526000611ea06020830184612285565b600080604083850312156122e657600080fd5b6122ef83611e02565b91506020830135801515811461230457600080fd5b809150509250929050565b60008060006060848603121561232457600080fd5b61232d84611e02565b92506020840135915060408401356bffffffffffffffffffffffff8116811461235557600080fd5b809150509250925092565b6000806040838503121561237357600080fd5b61237c83611e02565b915061238a60208401611e02565b90509250929050565b600080600080600060a086880312156123ab57600080fd5b6123b486611e02565b94506123c260208701611e02565b93506040860135925060608601359150608086013567ffffffffffffffff8111156123ec57600080fd5b6121ad8882890161207e565b60006020828403121561240a57600080fd5b611ea082611e02565b600181811c9082168061242757607f821691505b602082108103612460577f4e487b7100000000000000000000000000000000000000000000000000000000600052602260045260246000fd5b50919050565b60008151612478818560208601611ec0565b9290920192915050565b600080845481600182811c91508083168061249e57607f831692505b602080841082036124d6577f4e487b710000000000000000000000000000000000000000000000000000000086526022600452602486fd5b8180156124ea576001811461251957612546565b7fffffffffffffffffffffffffffffffffffffffffffffffffffffffffffffff00861689528489019650612546565b60008b81526020902060005b8681101561253e5781548b820152908501908301612525565b505084890196505b5050505050506125568185612466565b7f2e6a736f6e000000000000000000000000000000000000000000000000000000815260050195945050505050565b7f4e487b7100000000000000000000000000000000000000000000000000000000600052601160045260246000fd5b6000817fffffffffffffffffffffffffffffffffffffffffffffffffffffffffffffffff04831182151516156125ec576125ec612585565b500290565b7f4e487b7100000000000000000000000000000000000000000000000000000000600052601260045260246000fd5b60008261262f5761262f6125f1565b500490565b7f4e487b7100000000000000000000000000000000000000000000000000000000600052603260045260246000fd5b60007fffffffffffffffffffffffffffffffffffffffffffffffffffffffffffffffff820361269457612694612585565b5060010190565b6000828210156126ad576126ad612585565b500390565b6000826126c1576126c16125f1565b500690565b600082198211156126d9576126d9612585565b500190565b6040815260006126f16040830185612285565b82810360208401526127038185612285565b95945050505050565b600073ffffffffffffffffffffffffffffffffffffffff808816835280871660208401525060a0604083015261274560a0830186612285565b82810360608401526127578186612285565b9050828103608084015261276b8185611ef0565b98975050505050505050565b60006020828403121561278957600080fd5b8151611ea081611e55565b600060033d11156127ad5760046000803e5060005160e01c5b90565b600060443d10156127be5790565b6040517ffffffffffffffffffffffffffffffffffffffffffffffffffffffffffffffffc803d016004833e81513d67ffffffffffffffff816024840111818411171561280c57505050505090565b82850191508151818111156128245750505050505090565b843d870101602082850101111561283e5750505050505090565b61284d60208286010187611f9e565b509095945050505050565b600073ffffffffffffffffffffffffffffffffffffffff808816835280871660208401525084604083015283606083015260a0608083015261289d60a0830184611ef0565b97965050505050505056fea26469706673582212208e10224963a85dee100e04681fa162142fe70bfcab73ee0ebb979a6add4c1d3a64736f6c634300080d0033",
  "linkReferences": {},
  "deployedLinkReferences": {}
}