{
  "_format": "hh-sol-artifact-1",
  "contractName": "SlyceRoyalties",
  "sourceName": "contracts/SlyceRoyalties.sol",
  "abi": [
    {
      "inputs": [],
      "stateMutability": "nonpayable",
      "type": "constructor"
    },
    {
      "anonymous": false,
      "inputs": [
        {
          "indexed": false,
          "internalType": "uint8",
          "name": "version",
          "type": "uint8"
        }
      ],
      "name": "Initialized",
      "type": "event"
    },
    {
      "anonymous": false,
      "inputs": [
        {
          "indexed": true,
          "internalType": "address",
          "name": "previousOwner",
          "type": "address"
        },
        {
          "indexed": true,
          "internalType": "address",
          "name": "newOwner",
          "type": "address"
        }
      ],
      "name": "OwnershipTransferred",
      "type": "event"
    },
    {
      "anonymous": false,
      "inputs": [
        {
          "indexed": false,
          "internalType": "address",
          "name": "account",
          "type": "address"
        }
      ],
      "name": "Paused",
      "type": "event"
    },
    {
      "anonymous": false,
      "inputs": [
        {
          "indexed": true,
          "internalType": "address",
          "name": "slycerAdr",
          "type": "address"
        },
        {
          "indexed": false,
          "internalType": "uint256",
          "name": "royaltiesClaimed",
          "type": "uint256"
        },
        {
          "indexed": false,
          "internalType": "uint256[]",
          "name": "slyceIdOfRoyalties",
          "type": "uint256[]"
        }
      ],
      "name": "RoyaltiesClaim",
      "type": "event"
    },
    {
      "anonymous": false,
      "inputs": [
        {
          "indexed": true,
          "internalType": "address",
          "name": "tokenAddress",
          "type": "address"
        },
        {
          "indexed": false,
          "internalType": "uint256[]",
          "name": "slyceId",
          "type": "uint256[]"
        }
      ],
      "name": "RoyaltiesClaimable",
      "type": "event"
    },
    {
      "anonymous": false,
      "inputs": [
        {
          "indexed": false,
          "internalType": "address",
          "name": "account",
          "type": "address"
        }
      ],
      "name": "Unpaused",
      "type": "event"
    },
    {
      "inputs": [
        {
          "internalType": "uint256[]",
          "name": "_slyceIds",
          "type": "uint256[]"
        }
      ],
      "name": "batchClaimRoyalty",
      "outputs": [],
      "stateMutability": "nonpayable",
      "type": "function"
    },
    {
      "inputs": [
        {
          "internalType": "uint256",
          "name": "_slyceId",
          "type": "uint256"
        }
      ],
      "name": "claimRoyalty",
      "outputs": [],
      "stateMutability": "nonpayable",
      "type": "function"
    },
    {
      "inputs": [],
      "name": "emergancyPause",
      "outputs": [],
      "stateMutability": "nonpayable",
      "type": "function"
    },
    {
      "inputs": [],
      "name": "emergancyUnPause",
      "outputs": [],
      "stateMutability": "nonpayable",
      "type": "function"
    },
    {
      "inputs": [
        {
          "internalType": "address",
          "name": "_slyceDropLogicContract",
          "type": "address"
        }
      ],
      "name": "initialize",
      "outputs": [],
      "stateMutability": "nonpayable",
      "type": "function"
    },
    {
      "inputs": [],
      "name": "owner",
      "outputs": [
        {
          "internalType": "address",
          "name": "",
          "type": "address"
        }
      ],
      "stateMutability": "view",
      "type": "function"
    },
    {
      "inputs": [],
      "name": "paused",
      "outputs": [
        {
          "internalType": "bool",
          "name": "",
          "type": "bool"
        }
      ],
      "stateMutability": "view",
      "type": "function"
    },
    {
      "inputs": [
        {
          "internalType": "address",
          "name": "_tokenAddress",
          "type": "address"
        },
        {
          "internalType": "uint256[]",
          "name": "_royalties",
          "type": "uint256[]"
        }
      ],
      "name": "pushRoyalty",
      "outputs": [],
      "stateMutability": "nonpayable",
      "type": "function"
    },
    {
      "inputs": [],
      "name": "renounceOwnership",
      "outputs": [],
      "stateMutability": "nonpayable",
      "type": "function"
    },
    {
      "inputs": [],
      "name": "slyceDropLogicContract",
      "outputs": [
        {
          "internalType": "address",
          "name": "",
          "type": "address"
        }
      ],
      "stateMutability": "view",
      "type": "function"
    },
    {
      "inputs": [
        {
          "internalType": "address",
          "name": "newOwner",
          "type": "address"
        }
      ],
      "name": "transferOwnership",
      "outputs": [],
      "stateMutability": "nonpayable",
      "type": "function"
    },
    {
      "inputs": [],
      "name": "usdcContract",
      "outputs": [
        {
          "internalType": "address",
          "name": "",
          "type": "address"
        }
      ],
      "stateMutability": "view",
      "type": "function"
    }
  ],
  "bytecode": "0x60806040523480156200001157600080fd5b50600054610100900460ff1615808015620000335750600054600160ff909116105b8062000063575062000050306200013d60201b62000d941760201c565b15801562000063575060005460ff166001145b620000cb5760405162461bcd60e51b815260206004820152602e60248201527f496e697469616c697a61626c653a20636f6e747261637420697320616c72656160448201526d191e481a5b9a5d1a585b1a5e995960921b606482015260840160405180910390fd5b6000805460ff191660011790558015620000ef576000805461ff0019166101001790555b801562000136576000805461ff0019169055604051600181527f7f26b83ff96e1f2b6a682f133852f6798a09c465da95921460cefb38474024989060200160405180910390a15b506200014c565b6001600160a01b03163b151590565b611c18806200015c6000396000f3fe608060405234801561001057600080fd5b50600436106100d45760003560e01c80637410c22011610081578063bc59381d1161005b578063bc59381d146101bd578063c4d66de8146101c5578063f2fde38b146101d857600080fd5b80637410c2201461016c5780638da5cb5b1461018c578063af90673d146101aa57600080fd5b80635c0c900b116100b25780635c0c900b1461013b5780635c975abb1461014e578063715018a61461016457600080fd5b80631323e88b146100d95780631e96faff1461011e57806353a401aa14610133575b600080fd5b6100f473a0b86991c6218b36c1d19d4a2e9eb0ce3606eb4881565b60405173ffffffffffffffffffffffffffffffffffffffff90911681526020015b60405180910390f35b61013161012c366004611797565b6101eb565b005b6101316104d0565b610131610149366004611822565b6104e2565b60335460ff166040519015158152602001610115565b6101316105f2565b6098546100f49073ffffffffffffffffffffffffffffffffffffffff1681565b60655473ffffffffffffffffffffffffffffffffffffffff166100f4565b6101316101b836600461185d565b610604565b610131610af2565b6101316101d33660046118e5565b610b02565b6101316101e63660046118e5565b610cdd565b6101f3610db0565b600080825167ffffffffffffffff811115610210576102106116f5565b604051908082528060200260200182016040528015610239578160200160208202803683370190505b50905060005b83518110156103eb5760006097600086848151811061026057610260611902565b6020026020010151815260200190815260200160002060003373ffffffffffffffffffffffffffffffffffffffff1673ffffffffffffffffffffffffffffffffffffffff1681526020019081526020016000205411156103d957609760008583815181106102d0576102d0611902565b6020026020010151815260200190815260200160002060003373ffffffffffffffffffffffffffffffffffffffff1673ffffffffffffffffffffffffffffffffffffffff168152602001908152602001600020548361032f9190611960565b925060006097600086848151811061034957610349611902565b6020026020010151815260200190815260200160002060003373ffffffffffffffffffffffffffffffffffffffff1673ffffffffffffffffffffffffffffffffffffffff168152602001908152602001600020819055508381815181106103b2576103b2611902565b60200260200101518282815181106103cc576103cc611902565b6020026020010181815250505b806103e381611978565b91505061023f565b508160000361045b576040517f08c379a000000000000000000000000000000000000000000000000000000000815260206004820152601360248201527f4e6f20726f79616c747920746f20636c61696d0000000000000000000000000060448201526064015b60405180910390fd5b61047b73a0b86991c6218b36c1d19d4a2e9eb0ce3606eb48303385610e1d565b3373ffffffffffffffffffffffffffffffffffffffff167fe5447efb54f60f71768483d10a99fc785473ad2ab72c13c641284e17630e83cf83836040516104c39291906119eb565b60405180910390a2505050565b6104d8610eb8565b6104e0610f39565b565b6104ea610db0565b6000818152609760209081526040808320338452909152812054900361056c576040517f08c379a000000000000000000000000000000000000000000000000000000000815260206004820152601560248201527f4e6f20726f79616c7469657320746f20636c61696d00000000000000000000006044820152606401610452565b6000818152609760209081526040808320338085529252822080549290556105ac9073a0b86991c6218b36c1d19d4a2e9eb0ce3606eb4890309084610e1d565b337fe5447efb54f60f71768483d10a99fc785473ad2ab72c13c641284e17630e83cf826105d885610fbe565b6040516105e69291906119eb565b60405180910390a25050565b6105fa610eb8565b6104e06000611009565b61060c610eb8565b610614610db0565b8273ffffffffffffffffffffffffffffffffffffffff166305eed1a16040518163ffffffff1660e01b8152600401602060405180830381865afa15801561065f573d6000803e3d6000fd5b505050506040513d601f19601f820116820180604052508101906106839190611a04565b6106e9576040517f08c379a000000000000000000000000000000000000000000000000000000000815260206004820152601560248201527f5f746f6b656e4164647265737320696e76616c696400000000000000000000006044820152606401610452565b60008373ffffffffffffffffffffffffffffffffffffffff166392c36ba06040518163ffffffff1660e01b8152600401600060405180830381865afa158015610736573d6000803e3d6000fd5b505050506040513d6000823e601f3d9081017fffffffffffffffffffffffffffffffffffffffffffffffffffffffffffffffe016820160405261077c9190810190611a26565b805190915082146107e9576040517f08c379a000000000000000000000000000000000000000000000000000000000815260206004820152601260248201527f5f726f79616c7469657320696e76616c696400000000000000000000000000006044820152606401610452565b6098546040517f92023ba200000000000000000000000000000000000000000000000000000000815273ffffffffffffffffffffffffffffffffffffffff868116600483015260009216906392023ba290602401600060405180830381865afa15801561085a573d6000803e3d6000fd5b505050506040513d6000823e601f3d9081017fffffffffffffffffffffffffffffffffffffffffffffffffffffffffffffffe01682016040526108a09190810190611a26565b905060008060005b8351811015610a9a57609854845173ffffffffffffffffffffffffffffffffffffffff9091169063f117da8e908690849081106108e7576108e7611902565b60200260200101516040518263ffffffff1660e01b815260040161090d91815260200190565b608060405180830381865afa15801561092a573d6000803e3d6000fd5b505050506040513d601f19601f8201168201806040525081019061094e9190611ac3565b50865190955073ffffffffffffffffffffffffffffffffffffffff8b16925063981fd422915086908490811061098657610986611902565b60200260200101516040518263ffffffff1660e01b81526004016109ac91815260200190565b602060405180830381865afa1580156109c9573d6000803e3d6000fd5b505050506040513d601f19601f820116820180604052508101906109ed9190611b19565b915086868461ffff16818110610a0557610a05611902565b9050602002013560976000868481518110610a2257610a22611902565b6020026020010151815260200190815260200160002060008473ffffffffffffffffffffffffffffffffffffffff1673ffffffffffffffffffffffffffffffffffffffff1681526020019081526020016000206000828254610a849190611960565b90915550610a93905081611978565b90506108a8565b508673ffffffffffffffffffffffffffffffffffffffff167f36ad59742c2c063fb34c026e072a7bb51282871e211b78c22051621d6260c59e84604051610ae19190611b36565b60405180910390a250505050505050565b610afa610eb8565b6104e0611080565b600054610100900460ff1615808015610b225750600054600160ff909116105b80610b3c5750303b158015610b3c575060005460ff166001145b610bc8576040517f08c379a000000000000000000000000000000000000000000000000000000000815260206004820152602e60248201527f496e697469616c697a61626c653a20636f6e747261637420697320616c72656160448201527f647920696e697469616c697a65640000000000000000000000000000000000006064820152608401610452565b600080547fffffffffffffffffffffffffffffffffffffffffffffffffffffffffffffff001660011790558015610c2657600080547fffffffffffffffffffffffffffffffffffffffffffffffffffffffffffff00ff166101001790555b609880547fffffffffffffffffffffffff00000000000000000000000000000000000000001673ffffffffffffffffffffffffffffffffffffffff8416179055610c6e6110d7565b610c76611176565b8015610cd957600080547fffffffffffffffffffffffffffffffffffffffffffffffffffffffffffff00ff169055604051600181527f7f26b83ff96e1f2b6a682f133852f6798a09c465da95921460cefb38474024989060200160405180910390a15b5050565b610ce5610eb8565b73ffffffffffffffffffffffffffffffffffffffff8116610d88576040517f08c379a000000000000000000000000000000000000000000000000000000000815260206004820152602660248201527f4f776e61626c653a206e6577206f776e657220697320746865207a65726f206160448201527f64647265737300000000000000000000000000000000000000000000000000006064820152608401610452565b610d9181611009565b50565b73ffffffffffffffffffffffffffffffffffffffff163b151590565b60335460ff16156104e0576040517f08c379a000000000000000000000000000000000000000000000000000000000815260206004820152601060248201527f5061757361626c653a20706175736564000000000000000000000000000000006044820152606401610452565b6040805173ffffffffffffffffffffffffffffffffffffffff85811660248301528416604482015260648082018490528251808303909101815260849091019091526020810180517bffffffffffffffffffffffffffffffffffffffffffffffffffffffff167f23b872dd00000000000000000000000000000000000000000000000000000000179052610eb2908590611215565b50505050565b60655473ffffffffffffffffffffffffffffffffffffffff1633146104e0576040517f08c379a000000000000000000000000000000000000000000000000000000000815260206004820181905260248201527f4f776e61626c653a2063616c6c6572206973206e6f7420746865206f776e65726044820152606401610452565b610f41610db0565b603380547fffffffffffffffffffffffffffffffffffffffffffffffffffffffffffffff001660011790557f62e78cea01bee320cd4e420270b5ea74000d11b0c9f74754ebdbfc544b05a258610f943390565b60405173ffffffffffffffffffffffffffffffffffffffff909116815260200160405180910390a1565b60408051600180825281830190925260609160009190602080830190803683370190505090508281600081518110610ff857610ff8611902565b602090810291909101015292915050565b6065805473ffffffffffffffffffffffffffffffffffffffff8381167fffffffffffffffffffffffff0000000000000000000000000000000000000000831681179093556040519116919082907f8be0079c531659141344cd1fd0a4f28419497f9722a3daafe3b4186f6b6457e090600090a35050565b611088611326565b603380547fffffffffffffffffffffffffffffffffffffffffffffffffffffffffffffff001690557f5db9ee0a495bf2e6ff9c91a7834c1ba4fdd244a5e8aa4e537bd38aeae4b073aa33610f94565b600054610100900460ff1661116e576040517f08c379a000000000000000000000000000000000000000000000000000000000815260206004820152602b60248201527f496e697469616c697a61626c653a20636f6e7472616374206973206e6f74206960448201527f6e697469616c697a696e670000000000000000000000000000000000000000006064820152608401610452565b6104e0611392565b600054610100900460ff1661120d576040517f08c379a000000000000000000000000000000000000000000000000000000000815260206004820152602b60248201527f496e697469616c697a61626c653a20636f6e7472616374206973206e6f74206960448201527f6e697469616c697a696e670000000000000000000000000000000000000000006064820152608401610452565b6104e0611453565b6000611277826040518060400160405280602081526020017f5361666545524332303a206c6f772d6c6576656c2063616c6c206661696c65648152508573ffffffffffffffffffffffffffffffffffffffff166114f39092919063ffffffff16565b80519091501561132157808060200190518101906112959190611a04565b611321576040517f08c379a000000000000000000000000000000000000000000000000000000000815260206004820152602a60248201527f5361666545524332303a204552433230206f7065726174696f6e20646964206e60448201527f6f742073756363656564000000000000000000000000000000000000000000006064820152608401610452565b505050565b60335460ff166104e0576040517f08c379a000000000000000000000000000000000000000000000000000000000815260206004820152601460248201527f5061757361626c653a206e6f74207061757365640000000000000000000000006044820152606401610452565b600054610100900460ff16611429576040517f08c379a000000000000000000000000000000000000000000000000000000000815260206004820152602b60248201527f496e697469616c697a61626c653a20636f6e7472616374206973206e6f74206960448201527f6e697469616c697a696e670000000000000000000000000000000000000000006064820152608401610452565b603380547fffffffffffffffffffffffffffffffffffffffffffffffffffffffffffffff00169055565b600054610100900460ff166114ea576040517f08c379a000000000000000000000000000000000000000000000000000000000815260206004820152602b60248201527f496e697469616c697a61626c653a20636f6e7472616374206973206e6f74206960448201527f6e697469616c697a696e670000000000000000000000000000000000000000006064820152608401610452565b6104e033611009565b6060611502848460008561150c565b90505b9392505050565b60608247101561159e576040517f08c379a000000000000000000000000000000000000000000000000000000000815260206004820152602660248201527f416464726573733a20696e73756666696369656e742062616c616e636520666f60448201527f722063616c6c00000000000000000000000000000000000000000000000000006064820152608401610452565b73ffffffffffffffffffffffffffffffffffffffff85163b61161c576040517f08c379a000000000000000000000000000000000000000000000000000000000815260206004820152601d60248201527f416464726573733a2063616c6c20746f206e6f6e2d636f6e74726163740000006044820152606401610452565b6000808673ffffffffffffffffffffffffffffffffffffffff1685876040516116459190611b75565b60006040518083038185875af1925050503d8060008114611682576040519150601f19603f3d011682016040523d82523d6000602084013e611687565b606091505b50915091506116978282866116a2565b979650505050505050565b606083156116b1575081611505565b8251156116c15782518084602001fd5b816040517f08c379a00000000000000000000000000000000000000000000000000000000081526004016104529190611b91565b7f4e487b7100000000000000000000000000000000000000000000000000000000600052604160045260246000fd5b604051601f82017fffffffffffffffffffffffffffffffffffffffffffffffffffffffffffffffe016810167ffffffffffffffff8111828210171561176b5761176b6116f5565b604052919050565b600067ffffffffffffffff82111561178d5761178d6116f5565b5060051b60200190565b600060208083850312156117aa57600080fd5b823567ffffffffffffffff8111156117c157600080fd5b8301601f810185136117d257600080fd5b80356117e56117e082611773565b611724565b81815260059190911b8201830190838101908783111561180457600080fd5b928401925b8284101561169757833582529284019290840190611809565b60006020828403121561183457600080fd5b5035919050565b73ffffffffffffffffffffffffffffffffffffffff81168114610d9157600080fd5b60008060006040848603121561187257600080fd5b833561187d8161183b565b9250602084013567ffffffffffffffff8082111561189a57600080fd5b818601915086601f8301126118ae57600080fd5b8135818111156118bd57600080fd5b8760208260051b85010111156118d257600080fd5b6020830194508093505050509250925092565b6000602082840312156118f757600080fd5b81356115058161183b565b7f4e487b7100000000000000000000000000000000000000000000000000000000600052603260045260246000fd5b7f4e487b7100000000000000000000000000000000000000000000000000000000600052601160045260246000fd5b6000821982111561197357611973611931565b500190565b60007fffffffffffffffffffffffffffffffffffffffffffffffffffffffffffffffff82036119a9576119a9611931565b5060010190565b600081518084526020808501945080840160005b838110156119e0578151875295820195908201906001016119c4565b509495945050505050565b82815260406020820152600061150260408301846119b0565b600060208284031215611a1657600080fd5b8151801515811461150557600080fd5b60006020808385031215611a3957600080fd5b825167ffffffffffffffff811115611a5057600080fd5b8301601f81018513611a6157600080fd5b8051611a6f6117e082611773565b81815260059190911b82018301908381019087831115611a8e57600080fd5b928401925b8284101561169757835182529284019290840190611a93565b805161ffff81168114611abe57600080fd5b919050565b60008060008060808587031215611ad957600080fd5b845160ff81168114611aea57600080fd5b60208601519094509250611b0060408601611aac565b9150611b0e60608601611aac565b905092959194509250565b600060208284031215611b2b57600080fd5b81516115058161183b565b60208152600061150560208301846119b0565b60005b83811015611b64578181015183820152602001611b4c565b83811115610eb25750506000910152565b60008251611b87818460208701611b49565b9190910192915050565b6020815260008251806020840152611bb0816040850160208701611b49565b601f017fffffffffffffffffffffffffffffffffffffffffffffffffffffffffffffffe016919091016040019291505056fea26469706673582212207a50711039d70aa5b08a897e9ff42e8334db0d06e5eec86916f236ec7c7c7ff764736f6c634300080d0033",
  "linkReferences": {},
  "deployedLinkReferences": {}
}