{
  "_format": "hh-sol-artifact-1",
  "contractName": "SlyceToken",
  "sourceName": "contracts/SlyceToken.sol",
  "abi": [
    {
      "inputs": [
        {
          "internalType": "address",
          "name": "_artist",
          "type": "address"
        },
        {
          "internalType": "uint256[]",
          "name": "_amountTierId",
          "type": "uint256[]"
        },
        {
          "internalType": "string",
          "name": "_tokenURI",
          "type": "string"
        },
        {
          "internalType": "string",
          "name": "_contractURI",
          "type": "string"
        }
      ],
      "stateMutability": "nonpayable",
      "type": "constructor"
    },
    {
      "anonymous": false,
      "inputs": [
        {
          "indexed": true,
          "internalType": "address",
          "name": "account",
          "type": "address"
        },
        {
          "indexed": true,
          "internalType": "address",
          "name": "operator",
          "type": "address"
        },
        {
          "indexed": false,
          "internalType": "bool",
          "name": "approved",
          "type": "bool"
        }
      ],
      "name": "ApprovalForAll",
      "type": "event"
    },
    {
      "anonymous": false,
      "inputs": [
        {
          "indexed": true,
          "internalType": "address",
          "name": "previousOwner",
          "type": "address"
        },
        {
          "indexed": true,
          "internalType": "address",
          "name": "newOwner",
          "type": "address"
        }
      ],
      "name": "OwnershipTransferred",
      "type": "event"
    },
    {
      "anonymous": false,
      "inputs": [
        {
          "indexed": true,
          "internalType": "address",
          "name": "operator",
          "type": "address"
        },
        {
          "indexed": true,
          "internalType": "address",
          "name": "from",
          "type": "address"
        },
        {
          "indexed": true,
          "internalType": "address",
          "name": "to",
          "type": "address"
        },
        {
          "indexed": false,
          "internalType": "uint256[]",
          "name": "ids",
          "type": "uint256[]"
        },
        {
          "indexed": false,
          "internalType": "uint256[]",
          "name": "values",
          "type": "uint256[]"
        }
      ],
      "name": "TransferBatch",
      "type": "event"
    },
    {
      "anonymous": false,
      "inputs": [
        {
          "indexed": true,
          "internalType": "address",
          "name": "operator",
          "type": "address"
        },
        {
          "indexed": true,
          "internalType": "address",
          "name": "from",
          "type": "address"
        },
        {
          "indexed": true,
          "internalType": "address",
          "name": "to",
          "type": "address"
        },
        {
          "indexed": false,
          "internalType": "uint256",
          "name": "id",
          "type": "uint256"
        },
        {
          "indexed": false,
          "internalType": "uint256",
          "name": "value",
          "type": "uint256"
        }
      ],
      "name": "TransferSingle",
      "type": "event"
    },
    {
      "anonymous": false,
      "inputs": [
        {
          "indexed": false,
          "internalType": "string",
          "name": "value",
          "type": "string"
        },
        {
          "indexed": true,
          "internalType": "uint256",
          "name": "id",
          "type": "uint256"
        }
      ],
      "name": "URI",
      "type": "event"
    },
    {
      "inputs": [],
      "name": "artist",
      "outputs": [
        {
          "internalType": "address",
          "name": "",
          "type": "address"
        }
      ],
      "stateMutability": "view",
      "type": "function"
    },
    {
      "inputs": [
        {
          "internalType": "address",
          "name": "account",
          "type": "address"
        },
        {
          "internalType": "uint256",
          "name": "id",
          "type": "uint256"
        }
      ],
      "name": "balanceOf",
      "outputs": [
        {
          "internalType": "uint256",
          "name": "",
          "type": "uint256"
        }
      ],
      "stateMutability": "view",
      "type": "function"
    },
    {
      "inputs": [
        {
          "internalType": "address[]",
          "name": "accounts",
          "type": "address[]"
        },
        {
          "internalType": "uint256[]",
          "name": "ids",
          "type": "uint256[]"
        }
      ],
      "name": "balanceOfBatch",
      "outputs": [
        {
          "internalType": "uint256[]",
          "name": "",
          "type": "uint256[]"
        }
      ],
      "stateMutability": "view",
      "type": "function"
    },
    {
      "inputs": [],
      "name": "contractURI",
      "outputs": [
        {
          "internalType": "string",
          "name": "",
          "type": "string"
        }
      ],
      "stateMutability": "view",
      "type": "function"
    },
    {
      "inputs": [],
      "name": "contractUriBase",
      "outputs": [
        {
          "internalType": "string",
          "name": "",
          "type": "string"
        }
      ],
      "stateMutability": "view",
      "type": "function"
    },
    {
      "inputs": [],
      "name": "getAmountTier",
      "outputs": [
        {
          "internalType": "uint256[]",
          "name": "",
          "type": "uint256[]"
        }
      ],
      "stateMutability": "view",
      "type": "function"
    },
    {
      "inputs": [
        {
          "internalType": "uint256[]",
          "name": "ids",
          "type": "uint256[]"
        }
      ],
      "name": "getTokenOwners",
      "outputs": [
        {
          "internalType": "address[]",
          "name": "",
          "type": "address[]"
        }
      ],
      "stateMutability": "view",
      "type": "function"
    },
    {
      "inputs": [
        {
          "internalType": "address",
          "name": "account",
          "type": "address"
        },
        {
          "internalType": "address",
          "name": "operator",
          "type": "address"
        }
      ],
      "name": "isApprovedForAll",
      "outputs": [
        {
          "internalType": "bool",
          "name": "",
          "type": "bool"
        }
      ],
      "stateMutability": "view",
      "type": "function"
    },
    {
      "inputs": [],
      "name": "isSlyceToken",
      "outputs": [
        {
          "internalType": "bool",
          "name": "",
          "type": "bool"
        }
      ],
      "stateMutability": "view",
      "type": "function"
    },
    {
      "inputs": [
        {
          "internalType": "address",
          "name": "_mintAddress",
          "type": "address"
        },
        {
          "internalType": "uint256",
          "name": "_slyceId",
          "type": "uint256"
        },
        {
          "internalType": "uint96",
          "name": "_royaltyTierId",
          "type": "uint96"
        }
      ],
      "name": "mint",
      "outputs": [],
      "stateMutability": "nonpayable",
      "type": "function"
    },
    {
      "inputs": [],
      "name": "owner",
      "outputs": [
        {
          "internalType": "address",
          "name": "",
          "type": "address"
        }
      ],
      "stateMutability": "view",
      "type": "function"
    },
    {
      "inputs": [],
      "name": "renounceOwnership",
      "outputs": [],
      "stateMutability": "nonpayable",
      "type": "function"
    },
    {
      "inputs": [
        {
          "internalType": "uint256",
          "name": "_tokenId",
          "type": "uint256"
        },
        {
          "internalType": "uint256",
          "name": "_salePrice",
          "type": "uint256"
        }
      ],
      "name": "royaltyInfo",
      "outputs": [
        {
          "internalType": "address",
          "name": "",
          "type": "address"
        },
        {
          "internalType": "uint256",
          "name": "",
          "type": "uint256"
        }
      ],
      "stateMutability": "view",
      "type": "function"
    },
    {
      "inputs": [
        {
          "internalType": "address",
          "name": "from",
          "type": "address"
        },
        {
          "internalType": "address",
          "name": "to",
          "type": "address"
        },
        {
          "internalType": "uint256[]",
          "name": "ids",
          "type": "uint256[]"
        },
        {
          "internalType": "uint256[]",
          "name": "amounts",
          "type": "uint256[]"
        },
        {
          "internalType": "bytes",
          "name": "data",
          "type": "bytes"
        }
      ],
      "name": "safeBatchTransferFrom",
      "outputs": [],
      "stateMutability": "nonpayable",
      "type": "function"
    },
    {
      "inputs": [
        {
          "internalType": "address",
          "name": "from",
          "type": "address"
        },
        {
          "internalType": "address",
          "name": "to",
          "type": "address"
        },
        {
          "internalType": "uint256",
          "name": "id",
          "type": "uint256"
        },
        {
          "internalType": "uint256",
          "name": "amount",
          "type": "uint256"
        },
        {
          "internalType": "bytes",
          "name": "data",
          "type": "bytes"
        }
      ],
      "name": "safeTransferFrom",
      "outputs": [],
      "stateMutability": "nonpayable",
      "type": "function"
    },
    {
      "inputs": [
        {
          "internalType": "address",
          "name": "operator",
          "type": "address"
        },
        {
          "internalType": "bool",
          "name": "approved",
          "type": "bool"
        }
      ],
      "name": "setApprovalForAll",
      "outputs": [],
      "stateMutability": "nonpayable",
      "type": "function"
    },
    {
      "inputs": [
        {
          "internalType": "bytes4",
          "name": "interfaceId",
          "type": "bytes4"
        }
      ],
      "name": "supportsInterface",
      "outputs": [
        {
          "internalType": "bool",
          "name": "",
          "type": "bool"
        }
      ],
      "stateMutability": "view",
      "type": "function"
    },
    {
      "inputs": [
        {
          "internalType": "uint256",
          "name": "",
          "type": "uint256"
        }
      ],
      "name": "tierAmount",
      "outputs": [
        {
          "internalType": "uint256",
          "name": "",
          "type": "uint256"
        }
      ],
      "stateMutability": "view",
      "type": "function"
    },
    {
      "inputs": [
        {
          "internalType": "uint256",
          "name": "",
          "type": "uint256"
        }
      ],
      "name": "tokenOwnerById",
      "outputs": [
        {
          "internalType": "address",
          "name": "",
          "type": "address"
        }
      ],
      "stateMutability": "view",
      "type": "function"
    },
    {
      "inputs": [
        {
          "internalType": "address",
          "name": "newOwner",
          "type": "address"
        }
      ],
      "name": "transferOwnership",
      "outputs": [],
      "stateMutability": "nonpayable",
      "type": "function"
    },
    {
      "inputs": [
        {
          "internalType": "uint256",
          "name": "_slyceId",
          "type": "uint256"
        }
      ],
      "name": "uri",
      "outputs": [
        {
          "internalType": "string",
          "name": "",
          "type": "string"
        }
      ],
      "stateMutability": "view",
      "type": "function"
    },
    {
      "inputs": [],
      "name": "uriBase",
      "outputs": [
        {
          "internalType": "string",
          "name": "",
          "type": "string"
        }
      ],
      "stateMutability": "view",
      "type": "function"
    }
  ],
  "bytecode": "0x60806040523480156200001157600080fd5b5060405162002f1938038062002f198339810160408190526200003491620002ed565b6040805160208101909152600081526200004e81620000c1565b506200005a33620000da565b600780546001600160a01b0319166001600160a01b03861617905580516200008a9060089060208401906200012c565b508251620000a090600a906020860190620001bb565b508151620000b69060099060208501906200012c565b50505050506200044a565b8051620000d69060029060208401906200012c565b5050565b600580546001600160a01b038381166001600160a01b0319831681179093556040519116919082907f8be0079c531659141344cd1fd0a4f28419497f9722a3daafe3b4186f6b6457e090600090a35050565b8280546200013a906200040e565b90600052602060002090601f0160209004810192826200015e5760008555620001a9565b82601f106200017957805160ff1916838001178555620001a9565b82800160010185558215620001a9579182015b82811115620001a95782518255916020019190600101906200018c565b50620001b7929150620001f8565b5090565b828054828255906000526020600020908101928215620001a95791602002820182811115620001a95782518255916020019190600101906200018c565b5b80821115620001b75760008155600101620001f9565b634e487b7160e01b600052604160045260246000fd5b604051601f8201601f191681016001600160401b03811182821017156200025057620002506200020f565b604052919050565b600082601f8301126200026a57600080fd5b81516001600160401b038111156200028657620002866200020f565b60206200029c601f8301601f1916820162000225565b8281528582848701011115620002b157600080fd5b60005b83811015620002d1578581018301518282018401528201620002b4565b83811115620002e35760008385840101525b5095945050505050565b600080600080608085870312156200030457600080fd5b84516001600160a01b03811681146200031c57600080fd5b602086810151919550906001600160401b03808211156200033c57600080fd5b818801915088601f8301126200035157600080fd5b8151818111156200036657620003666200020f565b8060051b6200037785820162000225565b918252838101850191858101908c8411156200039257600080fd5b948601945b83861015620003b25785518252948601949086019062000397565b60408c0151909950955050505080831115620003cd57600080fd5b620003db89848a0162000258565b94506060880151925080831115620003f257600080fd5b5050620004028782880162000258565b91505092959194509250565b600181811c908216806200042357607f821691505b6020821081036200044457634e487b7160e01b600052602260045260246000fd5b50919050565b612abf806200045a6000396000f3fe608060405234801561001057600080fd5b50600436106101815760003560e01c806392c36ba0116100d8578063e71c50941161008c578063f242432a11610066578063f242432a146103c6578063f2fde38b146103d9578063fbca0ce1146103ec57600080fd5b8063e71c50941461036d578063e8a3d48514610375578063e985e9c51461037d57600080fd5b8063981fd422116100bd578063981fd42214610311578063a22cb46514610347578063c1f2fa691461035a57600080fd5b806392c36ba0146102e9578063975d89cf146102f157600080fd5b80632eb2c2d61161013a578063715018a611610114578063715018a6146102b05780638a596732146102b85780638da5cb5b146102cb57600080fd5b80632eb2c2d61461023657806343bc16121461024b5780634e1273f41461029057600080fd5b806305eed1a11161016b57806305eed1a1146101cf5780630e89341c146101d75780632a55205a146101f757600080fd5b8062fdd58e1461018657806301ffc9a7146101ac575b600080fd5b610199610194366004611f3d565b6103f4565b6040519081526020015b60405180910390f35b6101bf6101ba366004611f95565b6104d1565b60405190151581526020016101a3565b6101bf600181565b6101ea6101e5366004611fb9565b6104f1565b6040516101a3919061204c565b61020a61020536600461205f565b610525565b6040805173ffffffffffffffffffffffffffffffffffffffff90931683526020830191909152016101a3565b610249610244366004612222565b61061c565b005b60075461026b9073ffffffffffffffffffffffffffffffffffffffff1681565b60405173ffffffffffffffffffffffffffffffffffffffff90911681526020016101a3565b6102a361029e3660046122cc565b6106e5565b6040516101a391906123d2565b61024961083d565b6101996102c6366004611fb9565b610851565b60055473ffffffffffffffffffffffffffffffffffffffff1661026b565b6102a3610872565b6103046102ff3660046123e5565b6108ca565b6040516101a3919061245a565b61026b61031f366004611fb9565b60066020526000908152604090205473ffffffffffffffffffffffffffffffffffffffff1681565b6102496103553660046124b4565b6109b1565b6102496103683660046124f0565b6109c0565b6101ea610a0e565b6101ea610a9c565b6101bf61038b366004612541565b73ffffffffffffffffffffffffffffffffffffffff918216600090815260016020908152604080832093909416825291909152205460ff1690565b6102496103d4366004612574565b610b25565b6102496103e73660046125d9565b610be7565b6101ea610c9e565b600073ffffffffffffffffffffffffffffffffffffffff831661049e576040517f08c379a000000000000000000000000000000000000000000000000000000000815260206004820152602a60248201527f455243313135353a2061646472657373207a65726f206973206e6f742061207660448201527f616c6964206f776e65720000000000000000000000000000000000000000000060648201526084015b60405180910390fd5b5060009081526020818152604080832073ffffffffffffffffffffffffffffffffffffffff949094168352929052205490565b60006104dc82610cab565b806104eb57506104eb82610d8e565b92915050565b606060096104fe83610de4565b60405160200161050f929190612663565b6040516020818303038152906040529050919050565b600082815260046020908152604080832081518083019092525473ffffffffffffffffffffffffffffffffffffffff8116808352740100000000000000000000000000000000000000009091046bffffffffffffffffffffffff169282019290925282916105e057506040805180820190915260035473ffffffffffffffffffffffffffffffffffffffff811682527401000000000000000000000000000000000000000090046bffffffffffffffffffffffff1660208201525b602081015160009061271090610604906bffffffffffffffffffffffff1687612795565b61060e9190612801565b915196919550909350505050565b73ffffffffffffffffffffffffffffffffffffffff85163314806106455750610645853361038b565b6106d1576040517f08c379a000000000000000000000000000000000000000000000000000000000815260206004820152602f60248201527f455243313135353a2063616c6c6572206973206e6f7420746f6b656e206f776e60448201527f6572206e6f7220617070726f76656400000000000000000000000000000000006064820152608401610495565b6106de8585858585610f21565b5050505050565b60608151835114610778576040517f08c379a000000000000000000000000000000000000000000000000000000000815260206004820152602960248201527f455243313135353a206163636f756e747320616e6420696473206c656e67746860448201527f206d69736d6174636800000000000000000000000000000000000000000000006064820152608401610495565b6000835167ffffffffffffffff81111561079457610794612081565b6040519080825280602002602001820160405280156107bd578160200160208202803683370190505b50905060005b8451811015610835576108088582815181106107e1576107e1612815565b60200260200101518583815181106107fb576107fb612815565b60200260200101516103f4565b82828151811061081a5761081a612815565b602090810291909101015261082e81612844565b90506107c3565b509392505050565b610845611269565b61084f60006112ea565b565b600a818154811061086157600080fd5b600091825260209091200154905081565b6060600a8054806020026020016040519081016040528092919081815260200182805480156108c057602002820191906000526020600020905b8154815260200190600101908083116108ac575b5050505050905090565b606060008267ffffffffffffffff8111156108e7576108e7612081565b604051908082528060200260200182016040528015610910578160200160208202803683370190505b50905060005b83811015610835576006600086868481811061093457610934612815565b90506020020135815260200190815260200160002060009054906101000a900473ffffffffffffffffffffffffffffffffffffffff1682828151811061097c5761097c612815565b73ffffffffffffffffffffffffffffffffffffffff909216602092830291909101909101526109aa81612844565b9050610916565b6109bc338383611361565b5050565b6109c8611269565b6109e483836001604051806020016040528060008152506114b4565b600754610a0990839073ffffffffffffffffffffffffffffffffffffffff1683611634565b505050565b60088054610a1b906125f4565b80601f0160208091040260200160405190810160405280929190818152602001828054610a47906125f4565b8015610a945780601f10610a6957610100808354040283529160200191610a94565b820191906000526020600020905b815481529060010190602001808311610a7757829003601f168201915b505050505081565b606060088054610aab906125f4565b80601f0160208091040260200160405190810160405280929190818152602001828054610ad7906125f4565b80156108c05780601f10610af9576101008083540402835291602001916108c0565b820191906000526020600020905b815481529060010190602001808311610b0757509395945050505050565b73ffffffffffffffffffffffffffffffffffffffff8516331480610b4e5750610b4e853361038b565b610bda576040517f08c379a000000000000000000000000000000000000000000000000000000000815260206004820152602f60248201527f455243313135353a2063616c6c6572206973206e6f7420746f6b656e206f776e60448201527f6572206e6f7220617070726f76656400000000000000000000000000000000006064820152608401610495565b6106de85858585856117be565b610bef611269565b73ffffffffffffffffffffffffffffffffffffffff8116610c92576040517f08c379a000000000000000000000000000000000000000000000000000000000815260206004820152602660248201527f4f776e61626c653a206e6577206f776e657220697320746865207a65726f206160448201527f64647265737300000000000000000000000000000000000000000000000000006064820152608401610495565b610c9b816112ea565b50565b60098054610a1b906125f4565b60007fffffffff0000000000000000000000000000000000000000000000000000000082167fd9b67a26000000000000000000000000000000000000000000000000000000001480610d3e57507fffffffff0000000000000000000000000000000000000000000000000000000082167f0e89341c00000000000000000000000000000000000000000000000000000000145b806104eb57507f01ffc9a7000000000000000000000000000000000000000000000000000000007fffffffff000000000000000000000000000000000000000000000000000000008316146104eb565b60007fffffffff0000000000000000000000000000000000000000000000000000000082167f2a55205a0000000000000000000000000000000000000000000000000000000014806104eb57506104eb82610cab565b606081600003610e2757505060408051808201909152600181527f3000000000000000000000000000000000000000000000000000000000000000602082015290565b8160005b8115610e515780610e3b81612844565b9150610e4a9050600a83612801565b9150610e2b565b60008167ffffffffffffffff811115610e6c57610e6c612081565b6040519080825280601f01601f191660200182016040528015610e96576020820181803683370190505b5090505b8415610f1957610eab60018361287c565b9150610eb8600a86612893565b610ec39060306128a7565b60f81b818381518110610ed857610ed8612815565b60200101907effffffffffffffffffffffffffffffffffffffffffffffffffffffffffffff1916908160001a905350610f12600a86612801565b9450610e9a565b949350505050565b8151835114610fb2576040517f08c379a000000000000000000000000000000000000000000000000000000000815260206004820152602860248201527f455243313135353a2069647320616e6420616d6f756e7473206c656e6774682060448201527f6d69736d617463680000000000000000000000000000000000000000000000006064820152608401610495565b73ffffffffffffffffffffffffffffffffffffffff8416611055576040517f08c379a000000000000000000000000000000000000000000000000000000000815260206004820152602560248201527f455243313135353a207472616e7366657220746f20746865207a65726f20616460448201527f64726573730000000000000000000000000000000000000000000000000000006064820152608401610495565b3360005b84518110156111c657600085828151811061107657611076612815565b60200260200101519050600085838151811061109457611094612815565b6020908102919091018101516000848152808352604080822073ffffffffffffffffffffffffffffffffffffffff8e168352909352919091205490915081811015611161576040517f08c379a000000000000000000000000000000000000000000000000000000000815260206004820152602a60248201527f455243313135353a20696e73756666696369656e742062616c616e636520666f60448201527f72207472616e73666572000000000000000000000000000000000000000000006064820152608401610495565b60008381526020818152604080832073ffffffffffffffffffffffffffffffffffffffff8e8116855292528083208585039055908b168252812080548492906111ab9084906128a7565b92505081905550505050806111bf90612844565b9050611059565b508473ffffffffffffffffffffffffffffffffffffffff168673ffffffffffffffffffffffffffffffffffffffff168273ffffffffffffffffffffffffffffffffffffffff167f4a39dc06d4c0dbc64b70af90fd698a233a518aa5d07e595d983b8c0526c8f7fb878760405161123d9291906128bf565b60405180910390a4611253818787878787611a0a565b611261818787878787611a92565b505050505050565b60055473ffffffffffffffffffffffffffffffffffffffff16331461084f576040517f08c379a000000000000000000000000000000000000000000000000000000000815260206004820181905260248201527f4f776e61626c653a2063616c6c6572206973206e6f7420746865206f776e65726044820152606401610495565b6005805473ffffffffffffffffffffffffffffffffffffffff8381167fffffffffffffffffffffffff0000000000000000000000000000000000000000831681179093556040519116919082907f8be0079c531659141344cd1fd0a4f28419497f9722a3daafe3b4186f6b6457e090600090a35050565b8173ffffffffffffffffffffffffffffffffffffffff168373ffffffffffffffffffffffffffffffffffffffff160361141c576040517f08c379a000000000000000000000000000000000000000000000000000000000815260206004820152602960248201527f455243313135353a2073657474696e6720617070726f76616c2073746174757360448201527f20666f722073656c6600000000000000000000000000000000000000000000006064820152608401610495565b73ffffffffffffffffffffffffffffffffffffffff83811660008181526001602090815260408083209487168084529482529182902080547fffffffffffffffffffffffffffffffffffffffffffffffffffffffffffffff001686151590811790915591519182527f17307eab39ab6107e8899845ad3d59bd9653f200f220920489ca2b5937696c31910160405180910390a3505050565b73ffffffffffffffffffffffffffffffffffffffff8416611557576040517f08c379a000000000000000000000000000000000000000000000000000000000815260206004820152602160248201527f455243313135353a206d696e7420746f20746865207a65726f2061646472657360448201527f73000000000000000000000000000000000000000000000000000000000000006064820152608401610495565b33600061156385611d1c565b9050600061157085611d1c565b905060008681526020818152604080832073ffffffffffffffffffffffffffffffffffffffff8b168452909152812080548792906115af9084906128a7565b9091555050604080518781526020810187905273ffffffffffffffffffffffffffffffffffffffff808a1692600092918716917fc3d58168c5ae7397731d063d5bbf3d657854427343f4c083240f7aacaa2d0f62910160405180910390a461161c83600089858589611a0a565b61162b83600089898989611d67565b50505050505050565b6127106bffffffffffffffffffffffff821611156116d4576040517f08c379a000000000000000000000000000000000000000000000000000000000815260206004820152602a60248201527f455243323938313a20726f79616c7479206665652077696c6c2065786365656460448201527f2073616c655072696365000000000000000000000000000000000000000000006064820152608401610495565b73ffffffffffffffffffffffffffffffffffffffff8216611751576040517f08c379a000000000000000000000000000000000000000000000000000000000815260206004820152601b60248201527f455243323938313a20496e76616c696420706172616d657465727300000000006044820152606401610495565b60408051808201825273ffffffffffffffffffffffffffffffffffffffff93841681526bffffffffffffffffffffffff9283166020808301918252600096875260049052919094209351905190911674010000000000000000000000000000000000000000029116179055565b73ffffffffffffffffffffffffffffffffffffffff8416611861576040517f08c379a000000000000000000000000000000000000000000000000000000000815260206004820152602560248201527f455243313135353a207472616e7366657220746f20746865207a65726f20616460448201527f64726573730000000000000000000000000000000000000000000000000000006064820152608401610495565b33600061186d85611d1c565b9050600061187a85611d1c565b905060008681526020818152604080832073ffffffffffffffffffffffffffffffffffffffff8c1684529091529020548581101561193a576040517f08c379a000000000000000000000000000000000000000000000000000000000815260206004820152602a60248201527f455243313135353a20696e73756666696369656e742062616c616e636520666f60448201527f72207472616e73666572000000000000000000000000000000000000000000006064820152608401610495565b60008781526020818152604080832073ffffffffffffffffffffffffffffffffffffffff8d8116855292528083208985039055908a168252812080548892906119849084906128a7565b9091555050604080518881526020810188905273ffffffffffffffffffffffffffffffffffffffff808b16928c821692918816917fc3d58168c5ae7397731d063d5bbf3d657854427343f4c083240f7aacaa2d0f62910160405180910390a46119f1848a8a86868a611a0a565b6119ff848a8a8a8a8a611d67565b505050505050505050565b60005b835181101561162b578460066000868481518110611a2d57611a2d612815565b6020026020010151815260200190815260200160002060006101000a81548173ffffffffffffffffffffffffffffffffffffffff021916908373ffffffffffffffffffffffffffffffffffffffff16021790555080611a8b90612844565b9050611a0d565b73ffffffffffffffffffffffffffffffffffffffff84163b15611261576040517fbc197c8100000000000000000000000000000000000000000000000000000000815273ffffffffffffffffffffffffffffffffffffffff85169063bc197c8190611b0990899089908890889088906004016128ed565b6020604051808303816000875af1925050508015611b62575060408051601f3d9081017fffffffffffffffffffffffffffffffffffffffffffffffffffffffffffffffe0168201909252611b5f91810190612958565b60015b611c4b57611b6e612975565b806308c379a003611bc15750611b82612991565b80611b8d5750611bc3565b806040517f08c379a0000000000000000000000000000000000000000000000000000000008152600401610495919061204c565b505b6040517f08c379a000000000000000000000000000000000000000000000000000000000815260206004820152603460248201527f455243313135353a207472616e7366657220746f206e6f6e204552433131353560448201527f526563656976657220696d706c656d656e7465720000000000000000000000006064820152608401610495565b7fffffffff0000000000000000000000000000000000000000000000000000000081167fbc197c81000000000000000000000000000000000000000000000000000000001461162b576040517f08c379a000000000000000000000000000000000000000000000000000000000815260206004820152602860248201527f455243313135353a204552433131353552656365697665722072656a6563746560448201527f6420746f6b656e730000000000000000000000000000000000000000000000006064820152608401610495565b60408051600180825281830190925260609160009190602080830190803683370190505090508281600081518110611d5657611d56612815565b602090810291909101015292915050565b73ffffffffffffffffffffffffffffffffffffffff84163b15611261576040517ff23a6e6100000000000000000000000000000000000000000000000000000000815273ffffffffffffffffffffffffffffffffffffffff85169063f23a6e6190611dde9089908990889088908890600401612a39565b6020604051808303816000875af1925050508015611e37575060408051601f3d9081017fffffffffffffffffffffffffffffffffffffffffffffffffffffffffffffffe0168201909252611e3491810190612958565b60015b611e4357611b6e612975565b7fffffffff0000000000000000000000000000000000000000000000000000000081167ff23a6e61000000000000000000000000000000000000000000000000000000001461162b576040517f08c379a000000000000000000000000000000000000000000000000000000000815260206004820152602860248201527f455243313135353a204552433131353552656365697665722072656a6563746560448201527f6420746f6b656e730000000000000000000000000000000000000000000000006064820152608401610495565b803573ffffffffffffffffffffffffffffffffffffffff81168114611f3857600080fd5b919050565b60008060408385031215611f5057600080fd5b611f5983611f14565b946020939093013593505050565b7fffffffff0000000000000000000000000000000000000000000000000000000081168114610c9b57600080fd5b600060208284031215611fa757600080fd5b8135611fb281611f67565b9392505050565b600060208284031215611fcb57600080fd5b5035919050565b60005b83811015611fed578181015183820152602001611fd5565b83811115611ffc576000848401525b50505050565b6000815180845261201a816020860160208601611fd2565b601f017fffffffffffffffffffffffffffffffffffffffffffffffffffffffffffffffe0169290920160200192915050565b602081526000611fb26020830184612002565b6000806040838503121561207257600080fd5b50508035926020909101359150565b7f4e487b7100000000000000000000000000000000000000000000000000000000600052604160045260246000fd5b7fffffffffffffffffffffffffffffffffffffffffffffffffffffffffffffffe0601f830116810181811067ffffffffffffffff821117156120f4576120f4612081565b6040525050565b600067ffffffffffffffff82111561211557612115612081565b5060051b60200190565b600082601f83011261213057600080fd5b8135602061213d826120fb565b60405161214a82826120b0565b83815260059390931b850182019282810191508684111561216a57600080fd5b8286015b84811015612185578035835291830191830161216e565b509695505050505050565b600082601f8301126121a157600080fd5b813567ffffffffffffffff8111156121bb576121bb612081565b6040516121f060207fffffffffffffffffffffffffffffffffffffffffffffffffffffffffffffffe0601f85011601826120b0565b81815284602083860101111561220557600080fd5b816020850160208301376000918101602001919091529392505050565b600080600080600060a0868803121561223a57600080fd5b61224386611f14565b945061225160208701611f14565b9350604086013567ffffffffffffffff8082111561226e57600080fd5b61227a89838a0161211f565b9450606088013591508082111561229057600080fd5b61229c89838a0161211f565b935060808801359150808211156122b257600080fd5b506122bf88828901612190565b9150509295509295909350565b600080604083850312156122df57600080fd5b823567ffffffffffffffff808211156122f757600080fd5b818501915085601f83011261230b57600080fd5b81356020612318826120fb565b60405161232582826120b0565b83815260059390931b850182019282810191508984111561234557600080fd5b948201945b8386101561236a5761235b86611f14565b8252948201949082019061234a565b9650508601359250508082111561238057600080fd5b5061238d8582860161211f565b9150509250929050565b600081518084526020808501945080840160005b838110156123c7578151875295820195908201906001016123ab565b509495945050505050565b602081526000611fb26020830184612397565b600080602083850312156123f857600080fd5b823567ffffffffffffffff8082111561241057600080fd5b818501915085601f83011261242457600080fd5b81358181111561243357600080fd5b8660208260051b850101111561244857600080fd5b60209290920196919550909350505050565b6020808252825182820181905260009190848201906040850190845b818110156124a857835173ffffffffffffffffffffffffffffffffffffffff1683529284019291840191600101612476565b50909695505050505050565b600080604083850312156124c757600080fd5b6124d083611f14565b9150602083013580151581146124e557600080fd5b809150509250929050565b60008060006060848603121561250557600080fd5b61250e84611f14565b92506020840135915060408401356bffffffffffffffffffffffff8116811461253657600080fd5b809150509250925092565b6000806040838503121561255457600080fd5b61255d83611f14565b915061256b60208401611f14565b90509250929050565b600080600080600060a0868803121561258c57600080fd5b61259586611f14565b94506125a360208701611f14565b93506040860135925060608601359150608086013567ffffffffffffffff8111156125cd57600080fd5b6122bf88828901612190565b6000602082840312156125eb57600080fd5b611fb282611f14565b600181811c9082168061260857607f821691505b602082108103612641577f4e487b7100000000000000000000000000000000000000000000000000000000600052602260045260246000fd5b50919050565b60008151612659818560208601611fd2565b9290920192915050565b600080845481600182811c91508083168061267f57607f831692505b602080841082036126b7577f4e487b710000000000000000000000000000000000000000000000000000000086526022600452602486fd5b8180156126cb57600181146126fa57612727565b7fffffffffffffffffffffffffffffffffffffffffffffffffffffffffffffff00861689528489019650612727565b60008b81526020902060005b8681101561271f5781548b820152908501908301612706565b505084890196505b5050505050506127378185612647565b7f2e6a736f6e000000000000000000000000000000000000000000000000000000815260050195945050505050565b7f4e487b7100000000000000000000000000000000000000000000000000000000600052601160045260246000fd5b6000817fffffffffffffffffffffffffffffffffffffffffffffffffffffffffffffffff04831182151516156127cd576127cd612766565b500290565b7f4e487b7100000000000000000000000000000000000000000000000000000000600052601260045260246000fd5b600082612810576128106127d2565b500490565b7f4e487b7100000000000000000000000000000000000000000000000000000000600052603260045260246000fd5b60007fffffffffffffffffffffffffffffffffffffffffffffffffffffffffffffffff820361287557612875612766565b5060010190565b60008282101561288e5761288e612766565b500390565b6000826128a2576128a26127d2565b500690565b600082198211156128ba576128ba612766565b500190565b6040815260006128d26040830185612397565b82810360208401526128e48185612397565b95945050505050565b600073ffffffffffffffffffffffffffffffffffffffff808816835280871660208401525060a0604083015261292660a0830186612397565b82810360608401526129388186612397565b9050828103608084015261294c8185612002565b98975050505050505050565b60006020828403121561296a57600080fd5b8151611fb281611f67565b600060033d111561298e5760046000803e5060005160e01c5b90565b600060443d101561299f5790565b6040517ffffffffffffffffffffffffffffffffffffffffffffffffffffffffffffffffc803d016004833e81513d67ffffffffffffffff81602484011181841117156129ed57505050505090565b8285019150815181811115612a055750505050505090565b843d8701016020828501011115612a1f5750505050505090565b612a2e602082860101876120b0565b509095945050505050565b600073ffffffffffffffffffffffffffffffffffffffff808816835280871660208401525084604083015283606083015260a06080830152612a7e60a0830184612002565b97965050505050505056fea2646970667358221220d22c40df5846e6b205344009116acc54d3ee0afea634ccc69de14c93f3c16f9164736f6c634300080d0033",
  "linkReferences": {},
  "deployedLinkReferences": {}
}