{
  "_format": "hh-sol-artifact-1",
  "contractName": "SlyceDropLogic",
  "sourceName": "contracts/SlyceDropLogic.sol",
  "abi": [
    {
      "inputs": [],
      "stateMutability": "nonpayable",
      "type": "constructor"
    },
    {
      "anonymous": false,
      "inputs": [
        {
          "indexed": true,
          "internalType": "address",
          "name": "artistAdr",
          "type": "address"
        },
        {
          "indexed": true,
          "internalType": "address",
          "name": "dropAddress",
          "type": "address"
        },
        {
          "indexed": false,
          "internalType": "uint256[]",
          "name": "amountTierToSold",
          "type": "uint256[]"
        }
      ],
      "name": "DropCreated",
      "type": "event"
    },
    {
      "anonymous": false,
      "inputs": [
        {
          "indexed": true,
          "internalType": "address",
          "name": "dropAddress",
          "type": "address"
        },
        {
          "indexed": false,
          "internalType": "uint256[]",
          "name": "slyceId",
          "type": "uint256[]"
        }
      ],
      "name": "DropMinted",
      "type": "event"
    },
    {
      "anonymous": false,
      "inputs": [
        {
          "indexed": false,
          "internalType": "uint8",
          "name": "version",
          "type": "uint8"
        }
      ],
      "name": "Initialized",
      "type": "event"
    },
    {
      "anonymous": false,
      "inputs": [
        {
          "indexed": true,
          "internalType": "address",
          "name": "previousOwner",
          "type": "address"
        },
        {
          "indexed": true,
          "internalType": "address",
          "name": "newOwner",
          "type": "address"
        }
      ],
      "name": "OwnershipTransferred",
      "type": "event"
    },
    {
      "anonymous": false,
      "inputs": [
        {
          "indexed": false,
          "internalType": "address",
          "name": "account",
          "type": "address"
        }
      ],
      "name": "Paused",
      "type": "event"
    },
    {
      "anonymous": false,
      "inputs": [
        {
          "indexed": false,
          "internalType": "address",
          "name": "account",
          "type": "address"
        }
      ],
      "name": "Unpaused",
      "type": "event"
    },
    {
      "inputs": [
        {
          "internalType": "address",
          "name": "_artist",
          "type": "address"
        },
        {
          "internalType": "address",
          "name": "_paymentAdr",
          "type": "address"
        },
        {
          "internalType": "uint256",
          "name": "_dropId",
          "type": "uint256"
        },
        {
          "internalType": "uint256[]",
          "name": "_amountPerTier",
          "type": "uint256[]"
        },
        {
          "internalType": "uint256[]",
          "name": "_tierPriceInUSDC",
          "type": "uint256[]"
        },
        {
          "internalType": "string",
          "name": "_tokenURI",
          "type": "string"
        },
        {
          "internalType": "string",
          "name": "_contractURI",
          "type": "string"
        }
      ],
      "name": "addNewDrop",
      "outputs": [],
      "stateMutability": "nonpayable",
      "type": "function"
    },
    {
      "inputs": [
        {
          "internalType": "uint256",
          "name": "SlyceId",
          "type": "uint256"
        }
      ],
      "name": "breakSlyceId",
      "outputs": [
        {
          "internalType": "uint8",
          "name": "_version",
          "type": "uint8"
        },
        {
          "internalType": "uint256",
          "name": "_dropId",
          "type": "uint256"
        },
        {
          "internalType": "uint16",
          "name": "_tierId",
          "type": "uint16"
        },
        {
          "internalType": "uint16",
          "name": "_tokenNumber",
          "type": "uint16"
        }
      ],
      "stateMutability": "pure",
      "type": "function"
    },
    {
      "inputs": [
        {
          "internalType": "address",
          "name": "_tokenAddress",
          "type": "address"
        }
      ],
      "name": "changeDropToStatePurchase",
      "outputs": [],
      "stateMutability": "nonpayable",
      "type": "function"
    },
    {
      "inputs": [
        {
          "internalType": "address",
          "name": "_tokenAddress",
          "type": "address"
        },
        {
          "internalType": "address",
          "name": "_newPaymentAdr",
          "type": "address"
        }
      ],
      "name": "changePaymentAdr",
      "outputs": [],
      "stateMutability": "nonpayable",
      "type": "function"
    },
    {
      "inputs": [
        {
          "internalType": "uint256",
          "name": "_dropId",
          "type": "uint256"
        },
        {
          "internalType": "uint16",
          "name": "_tierId",
          "type": "uint16"
        },
        {
          "internalType": "uint16",
          "name": "_tokenNumber",
          "type": "uint16"
        }
      ],
      "name": "createSlyceId",
      "outputs": [
        {
          "internalType": "uint256",
          "name": "_slyceId",
          "type": "uint256"
        }
      ],
      "stateMutability": "pure",
      "type": "function"
    },
    {
      "inputs": [],
      "name": "emergancyPause",
      "outputs": [],
      "stateMutability": "nonpayable",
      "type": "function"
    },
    {
      "inputs": [],
      "name": "emergancyUnPause",
      "outputs": [],
      "stateMutability": "nonpayable",
      "type": "function"
    },
    {
      "inputs": [
        {
          "internalType": "address",
          "name": "_tokenAddress",
          "type": "address"
        }
      ],
      "name": "getDropStatus",
      "outputs": [
        {
          "internalType": "uint256[]",
          "name": "",
          "type": "uint256[]"
        },
        {
          "internalType": "uint256[]",
          "name": "",
          "type": "uint256[]"
        },
        {
          "internalType": "uint256",
          "name": "",
          "type": "uint256"
        },
        {
          "internalType": "uint256[]",
          "name": "",
          "type": "uint256[]"
        },
        {
          "internalType": "address",
          "name": "",
          "type": "address"
        },
        {
          "internalType": "enum SlyceDropLogic.dropState",
          "name": "",
          "type": "uint8"
        }
      ],
      "stateMutability": "view",
      "type": "function"
    },
    {
      "inputs": [
        {
          "internalType": "address",
          "name": "_tokenAddress",
          "type": "address"
        }
      ],
      "name": "getOwnerForTokenAddress",
      "outputs": [
        {
          "internalType": "address[]",
          "name": "",
          "type": "address[]"
        }
      ],
      "stateMutability": "view",
      "type": "function"
    },
    {
      "inputs": [
        {
          "internalType": "address",
          "name": "_tokenAddress",
          "type": "address"
        }
      ],
      "name": "getSlyceIdForTokenAddress",
      "outputs": [
        {
          "internalType": "uint256[]",
          "name": "",
          "type": "uint256[]"
        }
      ],
      "stateMutability": "view",
      "type": "function"
    },
    {
      "inputs": [],
      "name": "getVersion",
      "outputs": [
        {
          "internalType": "uint256",
          "name": "",
          "type": "uint256"
        },
        {
          "internalType": "uint256",
          "name": "",
          "type": "uint256"
        }
      ],
      "stateMutability": "pure",
      "type": "function"
    },
    {
      "inputs": [],
      "name": "initialize",
      "outputs": [],
      "stateMutability": "nonpayable",
      "type": "function"
    },
    {
      "inputs": [],
      "name": "owner",
      "outputs": [
        {
          "internalType": "address",
          "name": "",
          "type": "address"
        }
      ],
      "stateMutability": "view",
      "type": "function"
    },
    {
      "inputs": [],
      "name": "paused",
      "outputs": [
        {
          "internalType": "bool",
          "name": "",
          "type": "bool"
        }
      ],
      "stateMutability": "view",
      "type": "function"
    },
    {
      "inputs": [
        {
          "internalType": "address",
          "name": "_tokenAddress",
          "type": "address"
        },
        {
          "internalType": "uint96[]",
          "name": "_marketRoyaltyTierId",
          "type": "uint96[]"
        }
      ],
      "name": "processDropInitialisation",
      "outputs": [],
      "stateMutability": "nonpayable",
      "type": "function"
    },
    {
      "inputs": [],
      "name": "renounceOwnership",
      "outputs": [],
      "stateMutability": "nonpayable",
      "type": "function"
    },
    {
      "inputs": [
        {
          "internalType": "address",
          "name": "_slyceDropBuy",
          "type": "address"
        }
      ],
      "name": "setSlyceDropBuyAddress",
      "outputs": [],
      "stateMutability": "nonpayable",
      "type": "function"
    },
    {
      "inputs": [
        {
          "internalType": "address",
          "name": "newOwner",
          "type": "address"
        }
      ],
      "name": "transferOwnership",
      "outputs": [],
      "stateMutability": "nonpayable",
      "type": "function"
    },
    {
      "inputs": [
        {
          "internalType": "address",
          "name": "_tokenAddress",
          "type": "address"
        },
        {
          "internalType": "uint16",
          "name": "_tierSelected",
          "type": "uint16"
        },
        {
          "internalType": "uint256",
          "name": "_newId",
          "type": "uint256"
        },
        {
          "internalType": "uint256",
          "name": "_numberPurshased",
          "type": "uint256"
        }
      ],
      "name": "updateIdAfterBuy",
      "outputs": [],
      "stateMutability": "nonpayable",
      "type": "function"
    }
  ],
  "bytecode": "0x60806040523480156200001157600080fd5b50600054610100900460ff1615808015620000335750600054600160ff909116105b8062000063575062000050306200013d60201b62001ce21760201c565b15801562000063575060005460ff166001145b620000cb5760405162461bcd60e51b815260206004820152602e60248201527f496e697469616c697a61626c653a20636f6e747261637420697320616c72656160448201526d191e481a5b9a5d1a585b1a5e995960921b606482015260840160405180910390fd5b6000805460ff191660011790558015620000ef576000805461ff0019166101001790555b801562000136576000805461ff0019169055604051600181527f7f26b83ff96e1f2b6a682f133852f6798a09c465da95921460cefb38474024989060200160405180910390a15b506200014c565b6001600160a01b03163b151590565b615c0a806200015c6000396000f3fe60806040523480156200001157600080fd5b50600436106200016c5760003560e01c8063843dd42711620000dd578063bc59381d116200008b578063c7698aac116200006e578063c7698aac146200030a578063f117da8e1462000321578063f2fde38b146200039257600080fd5b8063bc59381d14620002e9578063c38f7f6614620002f357600080fd5b80638da5cb5b11620000c05780638da5cb5b146200027457806392023ba2146200029d578063b8a18b8514620002c357600080fd5b8063843dd42714620002375780638a777c5a146200024e57600080fd5b806353a401aa116200013b5780636d389327116200011e5780636d389327146200020c578063715018a614620002235780638129fc1c146200022d57600080fd5b806353a401aa14620001eb5780635c975abb14620001f557600080fd5b80630d863d3d14620001715780630d8e6e2c14620001a5578063199ef00614620001bb578063493460f614620001d4575b600080fd5b62000188620001823660046200234c565b620003a9565b6040516200019c96959493929190620023df565b60405180910390f35b604080516000815260016020820152016200019c565b620001d2620001cc3660046200234c565b6200050d565b005b620001d2620001e5366004620024db565b620005f3565b620001d2620010c5565b60335460ff1660405190151581526020016200019c565b620001d26200021d3660046200234c565b620010db565b620001d26200112c565b620001d262001142565b620001d26200024836600462002549565b620012e7565b620002656200025f36600462002592565b6200143d565b6040519081526020016200019c565b60655460405173ffffffffffffffffffffffffffffffffffffffff90911681526020016200019c565b620002b4620002ae3660046200234c565b620014c3565b6040516200019c9190620025d3565b620002da620002d43660046200234c565b62001541565b6040516200019c9190620025e8565b620001d262001615565b620001d2620003043660046200275a565b62001629565b620001d26200031b3660046200284d565b62001b3f565b62000363620003323660046200288b565b60f881901c91602082901c7affffffffffffffffffffffffffffffffffffffffffffffffffffff1691601081901c91565b6040805160ff9095168552602085019390935261ffff918216928401929092521660608201526080016200019c565b620001d2620003a33660046200234c565b62001c28565b73ffffffffffffffffffffffffffffffffffffffff80821660009081526097602090815260408083206002810154600782015482546004840180548651818902810189019097528087526060998a99988a988a9889989597600582019760089092019594169360ff909116928891908301828280156200044957602002820191906000526020600020905b81548152602001906001019080831162000434575b50505050509550848054806020026020016040519081016040528092919081815260200182805480156200049d57602002820191906000526020600020905b81548152602001906001019080831162000488575b5050505050945082805480602002602001604051908101604052809291908181526020018280548015620004f157602002820191906000526020600020905b815481526020019060010190808311620004dc575b5050505050925095509550955095509550955091939550919395565b6200051762001cfe565b6200052162001d81565b73ffffffffffffffffffffffffffffffffffffffff8116620005a4576040517f08c379a000000000000000000000000000000000000000000000000000000000815260206004820152601360248201527f64726f704164647265737320696e76616c69640000000000000000000000000060448201526064015b60405180910390fd5b73ffffffffffffffffffffffffffffffffffffffff16600090815260976020526040902080547fffffffffffffffffffffffffffffffffffffffffffffffffffffffffffffff00166003179055565b620005fd62001cfe565b6200060762001d81565b60985473ffffffffffffffffffffffffffffffffffffffff1662000688576040517f08c379a000000000000000000000000000000000000000000000000000000000815260206004820152601960248201527f736c79636544726f70427579206d75737420626520696e69740000000000000060448201526064016200059b565b8273ffffffffffffffffffffffffffffffffffffffff166305eed1a16040518163ffffffff1660e01b8152600401602060405180830381865afa158015620006d4573d6000803e3d6000fd5b505050506040513d601f19601f82011682018060405250810190620006fa9190620028a5565b62000762576040517f08c379a000000000000000000000000000000000000000000000000000000000815260206004820152601560248201527f5f746f6b656e4164647265737320696e76616c6964000000000000000000000060448201526064016200059b565b600173ffffffffffffffffffffffffffffffffffffffff841660009081526097602052604090205460ff166004811115620007a157620007a1620023b0565b146200080a576040517f08c379a000000000000000000000000000000000000000000000000000000000815260206004820152600d60248201527f696e76616c69642073746174650000000000000000000000000000000000000060448201526064016200059b565b73ffffffffffffffffffffffffffffffffffffffff83166000908152609760205260409020600201546fffffffffffffffffffffffffffffffff106200084f57600080fd5b73ffffffffffffffffffffffffffffffffffffffff8316600090815260976020526040902060080154811462000908576040517f08c379a000000000000000000000000000000000000000000000000000000000815260206004820152603560248201527f4572726f72206c656e677468205f6d61726b6574526f79616c7479546965724960448201527f64206f72205f746965725072696365496e55534443000000000000000000000060648201526084016200059b565b60005b61ffff8116821115620009fa5782828261ffff16818110620009315762000931620028c9565b9050602002016020810190620009489190620028f8565b6bffffffffffffffffffffffff16600003620009e7576040517f08c379a000000000000000000000000000000000000000000000000000000000815260206004820152602860248201527f4f6e65206f66205f6d61726b6574526f79616c7479546965724964206973207360448201527f657420746f20302e00000000000000000000000000000000000000000000000060648201526084016200059b565b620009f28162002957565b90506200090b565b5073ffffffffffffffffffffffffffffffffffffffff83166000818152609760205260408082206003015481517f92c36ba00000000000000000000000000000000000000000000000000000000081529151601e9461ffff620100008404811695640100000000909404169383926392c36ba09160048181019286929091908290030181865afa15801562000a93573d6000803e3d6000fd5b505050506040513d6000823e601f3d9081017fffffffffffffffffffffffffffffffffffffffffffffffffffffffffffffffe016820160405262000adb9190810190620029a2565b905062000ae9858562002a42565b61ffff16818461ffff168151811062000b065762000b06620028c9565b6020026020010151111562000b825762000b21858562002a42565b73ffffffffffffffffffffffffffffffffffffffff8916600090815260976020526040902060030180547fffffffffffffffffffffffffffffffffffffffffffffffffffffffff0000ffff166201000061ffff841602179055915062000c6f565b808361ffff168151811062000b9b5762000b9b620028c9565b60200260200101519150609760008973ffffffffffffffffffffffffffffffffffffffff1673ffffffffffffffffffffffffffffffffffffffff168152602001908152602001600020600301600481819054906101000a900461ffff1662000c039062002957565b825461ffff9182166101009390930a928302919092021990911617905573ffffffffffffffffffffffffffffffffffffffff8816600090815260976020526040902060030180547fffffffffffffffffffffffffffffffffffffffffffffffffffffffff0000ffff1690555b835b8261ffff168161ffff16101562000ea85773ffffffffffffffffffffffffffffffffffffffff891660009081526097602052604090206002015462000cb89085836200143d565b73ffffffffffffffffffffffffffffffffffffffff8a166000908152609760205260409020600381015460069091018054909161ffff1690811062000d015762000d01620028c9565b600091825260208083209091019290925560985473ffffffffffffffffffffffffffffffffffffffff808d168084526097909452604090922060038101546006909101805463c1f2fa69949390931692909161ffff1690811062000d695762000d69620028c9565b90600052602060002001548b8b8961ffff1681811062000d8d5762000d8d620028c9565b905060200201602081019062000da49190620028f8565b6040517fffffffff0000000000000000000000000000000000000000000000000000000060e086901b16815273ffffffffffffffffffffffffffffffffffffffff909316600484015260248301919091526bffffffffffffffffffffffff166044820152606401600060405180830381600087803b15801562000e2657600080fd5b505af115801562000e3b573d6000803e3d6000fd5b50505073ffffffffffffffffffffffffffffffffffffffff8a166000908152609760205260408120600301805490925062000e7a9061ffff1662002957565b91906101000a81548161ffff021916908361ffff1602179055508062000ea09062002957565b905062000c71565b5073ffffffffffffffffffffffffffffffffffffffff88166000908152609760205260409020600181015460039091015461ffff1603620010bb576000815167ffffffffffffffff81111562000f025762000f0262002644565b60405190808252806020026020018201604052801562000f2c578160200160208202803683370190505b50905060005b81518161ffff16101562000fad5773ffffffffffffffffffffffffffffffffffffffff8a1660009081526097602052604081206002015462000f769183906200143d565b828261ffff168151811062000f8f5762000f8f620028c9565b602090810291909101015262000fa58162002957565b905062000f32565b5073ffffffffffffffffffffffffffffffffffffffff89166000908152609760209081526040909120825162000fec9260049092019184019062002264565b5073ffffffffffffffffffffffffffffffffffffffff8916600090815260976020908152604090912083516200102b9260059092019185019062002264565b5073ffffffffffffffffffffffffffffffffffffffff89166000818152609760205260409081902080547fffffffffffffffffffffffffffffffffffffffffffffffffffffffffffffff0016600217815590517fae5cb3ca96f3985bd98c52c66bd2b11060f7fd821abbcfd94d116158856db8e891620010b19160069091019062002a6b565b60405180910390a2505b5050505050505050565b620010cf62001cfe565b620010d962001df0565b565b620010e562001cfe565b609880547fffffffffffffffffffffffff00000000000000000000000000000000000000001673ffffffffffffffffffffffffffffffffffffffff92909216919091179055565b6200113662001cfe565b620010d9600062001e78565b600054610100900460ff1615808015620011635750600054600160ff909116105b806200117f5750303b1580156200117f575060005460ff166001145b6200120d576040517f08c379a000000000000000000000000000000000000000000000000000000000815260206004820152602e60248201527f496e697469616c697a61626c653a20636f6e747261637420697320616c72656160448201527f647920696e697469616c697a656400000000000000000000000000000000000060648201526084016200059b565b600080547fffffffffffffffffffffffffffffffffffffffffffffffffffffffffffffff0016600117905580156200126c57600080547fffffffffffffffffffffffffffffffffffffffffffffffffffffffffffff00ff166101001790555b6200127662001eef565b6200128062001f92565b8015620012e457600080547fffffffffffffffffffffffffffffffffffffffffffffffffffffffffffff00ff169055604051600181527f7f26b83ff96e1f2b6a682f133852f6798a09c465da95921460cefb38474024989060200160405180910390a15b50565b60985473ffffffffffffffffffffffffffffffffffffffff1633146200136a576040517f08c379a000000000000000000000000000000000000000000000000000000000815260206004820152600e60248201527f6e6f7420617574686f72697a656400000000000000000000000000000000000060448201526064016200059b565b73ffffffffffffffffffffffffffffffffffffffff84166000908152609760205260409020600401805483919061ffff8616908110620013ae57620013ae620028c9565b906000526020600020018190555080609760008673ffffffffffffffffffffffffffffffffffffffff1673ffffffffffffffffffffffffffffffffffffffff1681526020019081526020016000206005018461ffff1681548110620014175762001417620028c9565b90600052602060002001600082825462001432919062002aa8565b909155505050505050565b6000600161ffff831663ffff0000601086901b16620014a2602088901b7effffffffffffffffffffffffffffffffffffffffffffffffffffffffffffff167f010000000000000000000000000000000000000000000000000000000000000062002ac2565b620014ae919062002ac2565b620014ba919062002ac2565b95945050505050565b73ffffffffffffffffffffffffffffffffffffffff81166000908152609760209081526040918290206006018054835181840281018401909452808452606093928301828280156200153557602002820191906000526020600020905b81548152602001906001019080831162001520575b50505050509050919050565b73ffffffffffffffffffffffffffffffffffffffff81166000818152609760205260409081902090517f975d89cf0000000000000000000000000000000000000000000000000000000081526060929163975d89cf91620015a9916006019060040162002a6b565b600060405180830381865afa158015620015c7573d6000803e3d6000fd5b505050506040513d6000823e601f3d9081017fffffffffffffffffffffffffffffffffffffffffffffffffffffffffffffffe01682016040526200160f919081019062002add565b92915050565b6200161f62001cfe565b620010d962002035565b6200163362001cfe565b6200163d62001d81565b73ffffffffffffffffffffffffffffffffffffffff89166200165e57600080fd5b73ffffffffffffffffffffffffffffffffffffffff88166200167f57600080fd5b8151600003620016ec576040517f08c379a000000000000000000000000000000000000000000000000000000000815260206004820152601360248201527f5f746f6b656e555249206e6f742076616c69640000000000000000000000000060448201526064016200059b565b805160000362001759576040517f08c379a000000000000000000000000000000000000000000000000000000000815260206004820152601660248201527f5f636f6e7472616374555249206e6f742076616c69640000000000000000000060448201526064016200059b565b6000805b61ffff81168711156200190d5787878261ffff16818110620017835762001783620028c9565b905060200201356000036200181b576040517f08c379a000000000000000000000000000000000000000000000000000000000815260206004820152602260248201527f4f6e65206f66205f616d6f756e74506572546965722069732073657420746f2060448201527f302e00000000000000000000000000000000000000000000000000000000000060648201526084016200059b565b85858261ffff16818110620018345762001834620028c9565b90506020020135600003620018cb576040517f08c379a0000000000000000000000000000000000000000000000000000000008152602060048201526024808201527f4f6e65206f66205f746965725072696365496e5553444320697320736574207460448201527f6f20302e0000000000000000000000000000000000000000000000000000000060648201526084016200059b565b87878261ffff16818110620018e457620018e4620028c9565b9050602002013582620018f8919062002ac2565b9150620019058162002957565b90506200175d565b5060008a888886866040516200192390620022b4565b6200193395949392919062002c35565b604051809103906000f08015801562001950573d6000803e3d6000fd5b5073ffffffffffffffffffffffffffffffffffffffff8116600090815260976020526040902080547fffffffffffffffffffffffffffffffffffffffffffffffffffffffffffffff0016600190811782558101849055600281018b905560030180547fffffffffffffffffffffffffffffffffffffffffffffffffffff00000000000016905590508167ffffffffffffffff811115620019f457620019f462002644565b60405190808252806020026020018201604052801562001a1e578160200160208202803683370190505b5073ffffffffffffffffffffffffffffffffffffffff82166000908152609760209081526040909120825162001a5f93600690920192919091019062002264565b5073ffffffffffffffffffffffffffffffffffffffff81811660009081526097602052604090206007810180547fffffffffffffffffffffffff000000000000000000000000000000000000000016928d169290921790915562001ac8906008018787620022c2565b508073ffffffffffffffffffffffffffffffffffffffff168b73ffffffffffffffffffffffffffffffffffffffff167fd9c354155aebfd4221c46e0b64e6bc54072c0f8d24abedda8167994958478a248a8a60405162001b2a92919062002c9d565b60405180910390a35050505050505050505050565b62001b4962001cfe565b62001b5362001d81565b73ffffffffffffffffffffffffffffffffffffffff821662001bd2576040517f08c379a000000000000000000000000000000000000000000000000000000000815260206004820152601360248201527f64726f704164647265737320696e76616c69640000000000000000000000000060448201526064016200059b565b73ffffffffffffffffffffffffffffffffffffffff918216600090815260976020526040902060070180547fffffffffffffffffffffffff00000000000000000000000000000000000000001691909216179055565b62001c3262001cfe565b73ffffffffffffffffffffffffffffffffffffffff811662001cd7576040517f08c379a000000000000000000000000000000000000000000000000000000000815260206004820152602660248201527f4f776e61626c653a206e6577206f776e657220697320746865207a65726f206160448201527f646472657373000000000000000000000000000000000000000000000000000060648201526084016200059b565b620012e48162001e78565b73ffffffffffffffffffffffffffffffffffffffff163b151590565b60655473ffffffffffffffffffffffffffffffffffffffff163314620010d9576040517f08c379a000000000000000000000000000000000000000000000000000000000815260206004820181905260248201527f4f776e61626c653a2063616c6c6572206973206e6f7420746865206f776e657260448201526064016200059b565b60335460ff1615620010d9576040517f08c379a000000000000000000000000000000000000000000000000000000000815260206004820152601060248201527f5061757361626c653a207061757365640000000000000000000000000000000060448201526064016200059b565b62001dfa62001d81565b603380547fffffffffffffffffffffffffffffffffffffffffffffffffffffffffffffff001660011790557f62e78cea01bee320cd4e420270b5ea74000d11b0c9f74754ebdbfc544b05a25862001e4e3390565b60405173ffffffffffffffffffffffffffffffffffffffff909116815260200160405180910390a1565b6065805473ffffffffffffffffffffffffffffffffffffffff8381167fffffffffffffffffffffffff0000000000000000000000000000000000000000831681179093556040519116919082907f8be0079c531659141344cd1fd0a4f28419497f9722a3daafe3b4186f6b6457e090600090a35050565b600054610100900460ff1662001f88576040517f08c379a000000000000000000000000000000000000000000000000000000000815260206004820152602b60248201527f496e697469616c697a61626c653a20636f6e7472616374206973206e6f74206960448201527f6e697469616c697a696e6700000000000000000000000000000000000000000060648201526084016200059b565b620010d96200208f565b600054610100900460ff166200202b576040517f08c379a000000000000000000000000000000000000000000000000000000000815260206004820152602b60248201527f496e697469616c697a61626c653a20636f6e7472616374206973206e6f74206960448201527f6e697469616c697a696e6700000000000000000000000000000000000000000060648201526084016200059b565b620010d962002152565b6200203f620021f6565b603380547fffffffffffffffffffffffffffffffffffffffffffffffffffffffffffffff001690557f5db9ee0a495bf2e6ff9c91a7834c1ba4fdd244a5e8aa4e537bd38aeae4b073aa3362001e4e565b600054610100900460ff1662002128576040517f08c379a000000000000000000000000000000000000000000000000000000000815260206004820152602b60248201527f496e697469616c697a61626c653a20636f6e7472616374206973206e6f74206960448201527f6e697469616c697a696e6700000000000000000000000000000000000000000060648201526084016200059b565b603380547fffffffffffffffffffffffffffffffffffffffffffffffffffffffffffffff00169055565b600054610100900460ff16620021eb576040517f08c379a000000000000000000000000000000000000000000000000000000000815260206004820152602b60248201527f496e697469616c697a61626c653a20636f6e7472616374206973206e6f74206960448201527f6e697469616c697a696e6700000000000000000000000000000000000000000060648201526084016200059b565b620010d93362001e78565b60335460ff16620010d9576040517f08c379a000000000000000000000000000000000000000000000000000000000815260206004820152601460248201527f5061757361626c653a206e6f742070617573656400000000000000000000000060448201526064016200059b565b828054828255906000526020600020908101928215620022a2579160200282015b82811115620022a257825182559160200191906001019062002285565b50620022b092915062002300565b5090565b612f198062002cbc83390190565b828054828255906000526020600020908101928215620022a2579160200282015b82811115620022a2578235825591602001919060010190620022e3565b5b80821115620022b0576000815560010162002301565b73ffffffffffffffffffffffffffffffffffffffff81168114620012e457600080fd5b8035620023478162002317565b919050565b6000602082840312156200235f57600080fd5b81356200236c8162002317565b9392505050565b600081518084526020808501945080840160005b83811015620023a55781518752958201959082019060010162002387565b509495945050505050565b7f4e487b7100000000000000000000000000000000000000000000000000000000600052602160045260246000fd5b60c081526000620023f460c083018962002373565b828103602084015262002408818962002373565b9050866040840152828103606084015262002424818762002373565b91505073ffffffffffffffffffffffffffffffffffffffff84166080830152600583106200247b577f4e487b7100000000000000000000000000000000000000000000000000000000600052602160045260246000fd5b8260a0830152979650505050505050565b60008083601f8401126200249f57600080fd5b50813567ffffffffffffffff811115620024b857600080fd5b6020830191508360208260051b8501011115620024d457600080fd5b9250929050565b600080600060408486031215620024f157600080fd5b8335620024fe8162002317565b9250602084013567ffffffffffffffff8111156200251b57600080fd5b62002529868287016200248c565b9497909650939450505050565b803561ffff811681146200234757600080fd5b600080600080608085870312156200256057600080fd5b84356200256d8162002317565b93506200257d6020860162002536565b93969395505050506040820135916060013590565b600080600060608486031215620025a857600080fd5b83359250620025ba6020850162002536565b9150620025ca6040850162002536565b90509250925092565b6020815260006200236c602083018462002373565b6020808252825182820181905260009190848201906040850190845b818110156200263857835173ffffffffffffffffffffffffffffffffffffffff168352928401929184019160010162002604565b50909695505050505050565b7f4e487b7100000000000000000000000000000000000000000000000000000000600052604160045260246000fd5b604051601f82017fffffffffffffffffffffffffffffffffffffffffffffffffffffffffffffffe016810167ffffffffffffffff81118282101715620026bd57620026bd62002644565b604052919050565b600082601f830112620026d757600080fd5b813567ffffffffffffffff811115620026f457620026f462002644565b6200272760207fffffffffffffffffffffffffffffffffffffffffffffffffffffffffffffffe0601f8401160162002673565b8181528460208386010111156200273d57600080fd5b816020850160208301376000918101602001919091529392505050565b600080600080600080600080600060e08a8c0312156200277957600080fd5b620027848a6200233a565b98506200279460208b016200233a565b975060408a0135965060608a013567ffffffffffffffff80821115620027b957600080fd5b620027c78d838e016200248c565b909850965060808c0135915080821115620027e157600080fd5b620027ef8d838e016200248c565b909650945060a08c01359150808211156200280957600080fd5b620028178d838e01620026c5565b935060c08c01359150808211156200282e57600080fd5b506200283d8c828d01620026c5565b9150509295985092959850929598565b600080604083850312156200286157600080fd5b82356200286e8162002317565b91506020830135620028808162002317565b809150509250929050565b6000602082840312156200289e57600080fd5b5035919050565b600060208284031215620028b857600080fd5b815180151581146200236c57600080fd5b7f4e487b7100000000000000000000000000000000000000000000000000000000600052603260045260246000fd5b6000602082840312156200290b57600080fd5b81356bffffffffffffffffffffffff811681146200236c57600080fd5b7f4e487b7100000000000000000000000000000000000000000000000000000000600052601160045260246000fd5b600061ffff80831681810362002971576200297162002928565b6001019392505050565b600067ffffffffffffffff82111562002998576200299862002644565b5060051b60200190565b60006020808385031215620029b657600080fd5b825167ffffffffffffffff811115620029ce57600080fd5b8301601f81018513620029e057600080fd5b8051620029f7620029f1826200297b565b62002673565b81815260059190911b8201830190838101908783111562002a1757600080fd5b928401925b8284101562002a375783518252928401929084019062002a1c565b979650505050505050565b600061ffff80831681851680830382111562002a625762002a6262002928565b01949350505050565b6020808252825482820181905260008481528281209092916040850190845b81811015620026385783548352600193840193928501920162002a8a565b60008282101562002abd5762002abd62002928565b500390565b6000821982111562002ad85762002ad862002928565b500190565b6000602080838503121562002af157600080fd5b825167ffffffffffffffff81111562002b0957600080fd5b8301601f8101851362002b1b57600080fd5b805162002b2c620029f1826200297b565b81815260059190911b8201830190838101908783111562002b4c57600080fd5b928401925b8284101562002a3757835162002b678162002317565b8252928401929084019062002b51565b81835260007f07ffffffffffffffffffffffffffffffffffffffffffffffffffffffffffffff83111562002baa57600080fd5b8260051b8083602087013760009401602001938452509192915050565b6000815180845260005b8181101562002bef5760208185018101518683018201520162002bd1565b8181111562002c02576000602083870101525b50601f017fffffffffffffffffffffffffffffffffffffffffffffffffffffffffffffffe0169290920160200192915050565b73ffffffffffffffffffffffffffffffffffffffff8616815260806020820152600062002c6760808301868862002b77565b828103604084015262002c7b818662002bc7565b9050828103606084015262002c91818562002bc7565b98975050505050505050565b60208152600062002cb360208301848662002b77565b94935050505056fe60806040523480156200001157600080fd5b5060405162002f1938038062002f198339810160408190526200003491620002ed565b6040805160208101909152600081526200004e81620000c1565b506200005a33620000da565b600780546001600160a01b0319166001600160a01b03861617905580516200008a9060089060208401906200012c565b508251620000a090600a906020860190620001bb565b508151620000b69060099060208501906200012c565b50505050506200044a565b8051620000d69060029060208401906200012c565b5050565b600580546001600160a01b038381166001600160a01b0319831681179093556040519116919082907f8be0079c531659141344cd1fd0a4f28419497f9722a3daafe3b4186f6b6457e090600090a35050565b8280546200013a906200040e565b90600052602060002090601f0160209004810192826200015e5760008555620001a9565b82601f106200017957805160ff1916838001178555620001a9565b82800160010185558215620001a9579182015b82811115620001a95782518255916020019190600101906200018c565b50620001b7929150620001f8565b5090565b828054828255906000526020600020908101928215620001a95791602002820182811115620001a95782518255916020019190600101906200018c565b5b80821115620001b75760008155600101620001f9565b634e487b7160e01b600052604160045260246000fd5b604051601f8201601f191681016001600160401b03811182821017156200025057620002506200020f565b604052919050565b600082601f8301126200026a57600080fd5b81516001600160401b038111156200028657620002866200020f565b60206200029c601f8301601f1916820162000225565b8281528582848701011115620002b157600080fd5b60005b83811015620002d1578581018301518282018401528201620002b4565b83811115620002e35760008385840101525b5095945050505050565b600080600080608085870312156200030457600080fd5b84516001600160a01b03811681146200031c57600080fd5b602086810151919550906001600160401b03808211156200033c57600080fd5b818801915088601f8301126200035157600080fd5b8151818111156200036657620003666200020f565b8060051b6200037785820162000225565b918252838101850191858101908c8411156200039257600080fd5b948601945b83861015620003b25785518252948601949086019062000397565b60408c0151909950955050505080831115620003cd57600080fd5b620003db89848a0162000258565b94506060880151925080831115620003f257600080fd5b5050620004028782880162000258565b91505092959194509250565b600181811c908216806200042357607f821691505b6020821081036200044457634e487b7160e01b600052602260045260246000fd5b50919050565b612abf806200045a6000396000f3fe608060405234801561001057600080fd5b50600436106101815760003560e01c806392c36ba0116100d8578063e71c50941161008c578063f242432a11610066578063f242432a146103c6578063f2fde38b146103d9578063fbca0ce1146103ec57600080fd5b8063e71c50941461036d578063e8a3d48514610375578063e985e9c51461037d57600080fd5b8063981fd422116100bd578063981fd42214610311578063a22cb46514610347578063c1f2fa691461035a57600080fd5b806392c36ba0146102e9578063975d89cf146102f157600080fd5b80632eb2c2d61161013a578063715018a611610114578063715018a6146102b05780638a596732146102b85780638da5cb5b146102cb57600080fd5b80632eb2c2d61461023657806343bc16121461024b5780634e1273f41461029057600080fd5b806305eed1a11161016b57806305eed1a1146101cf5780630e89341c146101d75780632a55205a146101f757600080fd5b8062fdd58e1461018657806301ffc9a7146101ac575b600080fd5b610199610194366004611f3d565b6103f4565b6040519081526020015b60405180910390f35b6101bf6101ba366004611f95565b6104d1565b60405190151581526020016101a3565b6101bf600181565b6101ea6101e5366004611fb9565b6104f1565b6040516101a3919061204c565b61020a61020536600461205f565b610525565b6040805173ffffffffffffffffffffffffffffffffffffffff90931683526020830191909152016101a3565b610249610244366004612222565b61061c565b005b60075461026b9073ffffffffffffffffffffffffffffffffffffffff1681565b60405173ffffffffffffffffffffffffffffffffffffffff90911681526020016101a3565b6102a361029e3660046122cc565b6106e5565b6040516101a391906123d2565b61024961083d565b6101996102c6366004611fb9565b610851565b60055473ffffffffffffffffffffffffffffffffffffffff1661026b565b6102a3610872565b6103046102ff3660046123e5565b6108ca565b6040516101a3919061245a565b61026b61031f366004611fb9565b60066020526000908152604090205473ffffffffffffffffffffffffffffffffffffffff1681565b6102496103553660046124b4565b6109b1565b6102496103683660046124f0565b6109c0565b6101ea610a0e565b6101ea610a9c565b6101bf61038b366004612541565b73ffffffffffffffffffffffffffffffffffffffff918216600090815260016020908152604080832093909416825291909152205460ff1690565b6102496103d4366004612574565b610b25565b6102496103e73660046125d9565b610be7565b6101ea610c9e565b600073ffffffffffffffffffffffffffffffffffffffff831661049e576040517f08c379a000000000000000000000000000000000000000000000000000000000815260206004820152602a60248201527f455243313135353a2061646472657373207a65726f206973206e6f742061207660448201527f616c6964206f776e65720000000000000000000000000000000000000000000060648201526084015b60405180910390fd5b5060009081526020818152604080832073ffffffffffffffffffffffffffffffffffffffff949094168352929052205490565b60006104dc82610cab565b806104eb57506104eb82610d8e565b92915050565b606060096104fe83610de4565b60405160200161050f929190612663565b6040516020818303038152906040529050919050565b600082815260046020908152604080832081518083019092525473ffffffffffffffffffffffffffffffffffffffff8116808352740100000000000000000000000000000000000000009091046bffffffffffffffffffffffff169282019290925282916105e057506040805180820190915260035473ffffffffffffffffffffffffffffffffffffffff811682527401000000000000000000000000000000000000000090046bffffffffffffffffffffffff1660208201525b602081015160009061271090610604906bffffffffffffffffffffffff1687612795565b61060e9190612801565b915196919550909350505050565b73ffffffffffffffffffffffffffffffffffffffff85163314806106455750610645853361038b565b6106d1576040517f08c379a000000000000000000000000000000000000000000000000000000000815260206004820152602f60248201527f455243313135353a2063616c6c6572206973206e6f7420746f6b656e206f776e60448201527f6572206e6f7220617070726f76656400000000000000000000000000000000006064820152608401610495565b6106de8585858585610f21565b5050505050565b60608151835114610778576040517f08c379a000000000000000000000000000000000000000000000000000000000815260206004820152602960248201527f455243313135353a206163636f756e747320616e6420696473206c656e67746860448201527f206d69736d6174636800000000000000000000000000000000000000000000006064820152608401610495565b6000835167ffffffffffffffff81111561079457610794612081565b6040519080825280602002602001820160405280156107bd578160200160208202803683370190505b50905060005b8451811015610835576108088582815181106107e1576107e1612815565b60200260200101518583815181106107fb576107fb612815565b60200260200101516103f4565b82828151811061081a5761081a612815565b602090810291909101015261082e81612844565b90506107c3565b509392505050565b610845611269565b61084f60006112ea565b565b600a818154811061086157600080fd5b600091825260209091200154905081565b6060600a8054806020026020016040519081016040528092919081815260200182805480156108c057602002820191906000526020600020905b8154815260200190600101908083116108ac575b5050505050905090565b606060008267ffffffffffffffff8111156108e7576108e7612081565b604051908082528060200260200182016040528015610910578160200160208202803683370190505b50905060005b83811015610835576006600086868481811061093457610934612815565b90506020020135815260200190815260200160002060009054906101000a900473ffffffffffffffffffffffffffffffffffffffff1682828151811061097c5761097c612815565b73ffffffffffffffffffffffffffffffffffffffff909216602092830291909101909101526109aa81612844565b9050610916565b6109bc338383611361565b5050565b6109c8611269565b6109e483836001604051806020016040528060008152506114b4565b600754610a0990839073ffffffffffffffffffffffffffffffffffffffff1683611634565b505050565b60088054610a1b906125f4565b80601f0160208091040260200160405190810160405280929190818152602001828054610a47906125f4565b8015610a945780601f10610a6957610100808354040283529160200191610a94565b820191906000526020600020905b815481529060010190602001808311610a7757829003601f168201915b505050505081565b606060088054610aab906125f4565b80601f0160208091040260200160405190810160405280929190818152602001828054610ad7906125f4565b80156108c05780601f10610af9576101008083540402835291602001916108c0565b820191906000526020600020905b815481529060010190602001808311610b0757509395945050505050565b73ffffffffffffffffffffffffffffffffffffffff8516331480610b4e5750610b4e853361038b565b610bda576040517f08c379a000000000000000000000000000000000000000000000000000000000815260206004820152602f60248201527f455243313135353a2063616c6c6572206973206e6f7420746f6b656e206f776e60448201527f6572206e6f7220617070726f76656400000000000000000000000000000000006064820152608401610495565b6106de85858585856117be565b610bef611269565b73ffffffffffffffffffffffffffffffffffffffff8116610c92576040517f08c379a000000000000000000000000000000000000000000000000000000000815260206004820152602660248201527f4f776e61626c653a206e6577206f776e657220697320746865207a65726f206160448201527f64647265737300000000000000000000000000000000000000000000000000006064820152608401610495565b610c9b816112ea565b50565b60098054610a1b906125f4565b60007fffffffff0000000000000000000000000000000000000000000000000000000082167fd9b67a26000000000000000000000000000000000000000000000000000000001480610d3e57507fffffffff0000000000000000000000000000000000000000000000000000000082167f0e89341c00000000000000000000000000000000000000000000000000000000145b806104eb57507f01ffc9a7000000000000000000000000000000000000000000000000000000007fffffffff000000000000000000000000000000000000000000000000000000008316146104eb565b60007fffffffff0000000000000000000000000000000000000000000000000000000082167f2a55205a0000000000000000000000000000000000000000000000000000000014806104eb57506104eb82610cab565b606081600003610e2757505060408051808201909152600181527f3000000000000000000000000000000000000000000000000000000000000000602082015290565b8160005b8115610e515780610e3b81612844565b9150610e4a9050600a83612801565b9150610e2b565b60008167ffffffffffffffff811115610e6c57610e6c612081565b6040519080825280601f01601f191660200182016040528015610e96576020820181803683370190505b5090505b8415610f1957610eab60018361287c565b9150610eb8600a86612893565b610ec39060306128a7565b60f81b818381518110610ed857610ed8612815565b60200101907effffffffffffffffffffffffffffffffffffffffffffffffffffffffffffff1916908160001a905350610f12600a86612801565b9450610e9a565b949350505050565b8151835114610fb2576040517f08c379a000000000000000000000000000000000000000000000000000000000815260206004820152602860248201527f455243313135353a2069647320616e6420616d6f756e7473206c656e6774682060448201527f6d69736d617463680000000000000000000000000000000000000000000000006064820152608401610495565b73ffffffffffffffffffffffffffffffffffffffff8416611055576040517f08c379a000000000000000000000000000000000000000000000000000000000815260206004820152602560248201527f455243313135353a207472616e7366657220746f20746865207a65726f20616460448201527f64726573730000000000000000000000000000000000000000000000000000006064820152608401610495565b3360005b84518110156111c657600085828151811061107657611076612815565b60200260200101519050600085838151811061109457611094612815565b6020908102919091018101516000848152808352604080822073ffffffffffffffffffffffffffffffffffffffff8e168352909352919091205490915081811015611161576040517f08c379a000000000000000000000000000000000000000000000000000000000815260206004820152602a60248201527f455243313135353a20696e73756666696369656e742062616c616e636520666f60448201527f72207472616e73666572000000000000000000000000000000000000000000006064820152608401610495565b60008381526020818152604080832073ffffffffffffffffffffffffffffffffffffffff8e8116855292528083208585039055908b168252812080548492906111ab9084906128a7565b92505081905550505050806111bf90612844565b9050611059565b508473ffffffffffffffffffffffffffffffffffffffff168673ffffffffffffffffffffffffffffffffffffffff168273ffffffffffffffffffffffffffffffffffffffff167f4a39dc06d4c0dbc64b70af90fd698a233a518aa5d07e595d983b8c0526c8f7fb878760405161123d9291906128bf565b60405180910390a4611253818787878787611a0a565b611261818787878787611a92565b505050505050565b60055473ffffffffffffffffffffffffffffffffffffffff16331461084f576040517f08c379a000000000000000000000000000000000000000000000000000000000815260206004820181905260248201527f4f776e61626c653a2063616c6c6572206973206e6f7420746865206f776e65726044820152606401610495565b6005805473ffffffffffffffffffffffffffffffffffffffff8381167fffffffffffffffffffffffff0000000000000000000000000000000000000000831681179093556040519116919082907f8be0079c531659141344cd1fd0a4f28419497f9722a3daafe3b4186f6b6457e090600090a35050565b8173ffffffffffffffffffffffffffffffffffffffff168373ffffffffffffffffffffffffffffffffffffffff160361141c576040517f08c379a000000000000000000000000000000000000000000000000000000000815260206004820152602960248201527f455243313135353a2073657474696e6720617070726f76616c2073746174757360448201527f20666f722073656c6600000000000000000000000000000000000000000000006064820152608401610495565b73ffffffffffffffffffffffffffffffffffffffff83811660008181526001602090815260408083209487168084529482529182902080547fffffffffffffffffffffffffffffffffffffffffffffffffffffffffffffff001686151590811790915591519182527f17307eab39ab6107e8899845ad3d59bd9653f200f220920489ca2b5937696c31910160405180910390a3505050565b73ffffffffffffffffffffffffffffffffffffffff8416611557576040517f08c379a000000000000000000000000000000000000000000000000000000000815260206004820152602160248201527f455243313135353a206d696e7420746f20746865207a65726f2061646472657360448201527f73000000000000000000000000000000000000000000000000000000000000006064820152608401610495565b33600061156385611d1c565b9050600061157085611d1c565b905060008681526020818152604080832073ffffffffffffffffffffffffffffffffffffffff8b168452909152812080548792906115af9084906128a7565b9091555050604080518781526020810187905273ffffffffffffffffffffffffffffffffffffffff808a1692600092918716917fc3d58168c5ae7397731d063d5bbf3d657854427343f4c083240f7aacaa2d0f62910160405180910390a461161c83600089858589611a0a565b61162b83600089898989611d67565b50505050505050565b6127106bffffffffffffffffffffffff821611156116d4576040517f08c379a000000000000000000000000000000000000000000000000000000000815260206004820152602a60248201527f455243323938313a20726f79616c7479206665652077696c6c2065786365656460448201527f2073616c655072696365000000000000000000000000000000000000000000006064820152608401610495565b73ffffffffffffffffffffffffffffffffffffffff8216611751576040517f08c379a000000000000000000000000000000000000000000000000000000000815260206004820152601b60248201527f455243323938313a20496e76616c696420706172616d657465727300000000006044820152606401610495565b60408051808201825273ffffffffffffffffffffffffffffffffffffffff93841681526bffffffffffffffffffffffff9283166020808301918252600096875260049052919094209351905190911674010000000000000000000000000000000000000000029116179055565b73ffffffffffffffffffffffffffffffffffffffff8416611861576040517f08c379a000000000000000000000000000000000000000000000000000000000815260206004820152602560248201527f455243313135353a207472616e7366657220746f20746865207a65726f20616460448201527f64726573730000000000000000000000000000000000000000000000000000006064820152608401610495565b33600061186d85611d1c565b9050600061187a85611d1c565b905060008681526020818152604080832073ffffffffffffffffffffffffffffffffffffffff8c1684529091529020548581101561193a576040517f08c379a000000000000000000000000000000000000000000000000000000000815260206004820152602a60248201527f455243313135353a20696e73756666696369656e742062616c616e636520666f60448201527f72207472616e73666572000000000000000000000000000000000000000000006064820152608401610495565b60008781526020818152604080832073ffffffffffffffffffffffffffffffffffffffff8d8116855292528083208985039055908a168252812080548892906119849084906128a7565b9091555050604080518881526020810188905273ffffffffffffffffffffffffffffffffffffffff808b16928c821692918816917fc3d58168c5ae7397731d063d5bbf3d657854427343f4c083240f7aacaa2d0f62910160405180910390a46119f1848a8a86868a611a0a565b6119ff848a8a8a8a8a611d67565b505050505050505050565b60005b835181101561162b578460066000868481518110611a2d57611a2d612815565b6020026020010151815260200190815260200160002060006101000a81548173ffffffffffffffffffffffffffffffffffffffff021916908373ffffffffffffffffffffffffffffffffffffffff16021790555080611a8b90612844565b9050611a0d565b73ffffffffffffffffffffffffffffffffffffffff84163b15611261576040517fbc197c8100000000000000000000000000000000000000000000000000000000815273ffffffffffffffffffffffffffffffffffffffff85169063bc197c8190611b0990899089908890889088906004016128ed565b6020604051808303816000875af1925050508015611b62575060408051601f3d9081017fffffffffffffffffffffffffffffffffffffffffffffffffffffffffffffffe0168201909252611b5f91810190612958565b60015b611c4b57611b6e612975565b806308c379a003611bc15750611b82612991565b80611b8d5750611bc3565b806040517f08c379a0000000000000000000000000000000000000000000000000000000008152600401610495919061204c565b505b6040517f08c379a000000000000000000000000000000000000000000000000000000000815260206004820152603460248201527f455243313135353a207472616e7366657220746f206e6f6e204552433131353560448201527f526563656976657220696d706c656d656e7465720000000000000000000000006064820152608401610495565b7fffffffff0000000000000000000000000000000000000000000000000000000081167fbc197c81000000000000000000000000000000000000000000000000000000001461162b576040517f08c379a000000000000000000000000000000000000000000000000000000000815260206004820152602860248201527f455243313135353a204552433131353552656365697665722072656a6563746560448201527f6420746f6b656e730000000000000000000000000000000000000000000000006064820152608401610495565b60408051600180825281830190925260609160009190602080830190803683370190505090508281600081518110611d5657611d56612815565b602090810291909101015292915050565b73ffffffffffffffffffffffffffffffffffffffff84163b15611261576040517ff23a6e6100000000000000000000000000000000000000000000000000000000815273ffffffffffffffffffffffffffffffffffffffff85169063f23a6e6190611dde9089908990889088908890600401612a39565b6020604051808303816000875af1925050508015611e37575060408051601f3d9081017fffffffffffffffffffffffffffffffffffffffffffffffffffffffffffffffe0168201909252611e3491810190612958565b60015b611e4357611b6e612975565b7fffffffff0000000000000000000000000000000000000000000000000000000081167ff23a6e61000000000000000000000000000000000000000000000000000000001461162b576040517f08c379a000000000000000000000000000000000000000000000000000000000815260206004820152602860248201527f455243313135353a204552433131353552656365697665722072656a6563746560448201527f6420746f6b656e730000000000000000000000000000000000000000000000006064820152608401610495565b803573ffffffffffffffffffffffffffffffffffffffff81168114611f3857600080fd5b919050565b60008060408385031215611f5057600080fd5b611f5983611f14565b946020939093013593505050565b7fffffffff0000000000000000000000000000000000000000000000000000000081168114610c9b57600080fd5b600060208284031215611fa757600080fd5b8135611fb281611f67565b9392505050565b600060208284031215611fcb57600080fd5b5035919050565b60005b83811015611fed578181015183820152602001611fd5565b83811115611ffc576000848401525b50505050565b6000815180845261201a816020860160208601611fd2565b601f017fffffffffffffffffffffffffffffffffffffffffffffffffffffffffffffffe0169290920160200192915050565b602081526000611fb26020830184612002565b6000806040838503121561207257600080fd5b50508035926020909101359150565b7f4e487b7100000000000000000000000000000000000000000000000000000000600052604160045260246000fd5b7fffffffffffffffffffffffffffffffffffffffffffffffffffffffffffffffe0601f830116810181811067ffffffffffffffff821117156120f4576120f4612081565b6040525050565b600067ffffffffffffffff82111561211557612115612081565b5060051b60200190565b600082601f83011261213057600080fd5b8135602061213d826120fb565b60405161214a82826120b0565b83815260059390931b850182019282810191508684111561216a57600080fd5b8286015b84811015612185578035835291830191830161216e565b509695505050505050565b600082601f8301126121a157600080fd5b813567ffffffffffffffff8111156121bb576121bb612081565b6040516121f060207fffffffffffffffffffffffffffffffffffffffffffffffffffffffffffffffe0601f85011601826120b0565b81815284602083860101111561220557600080fd5b816020850160208301376000918101602001919091529392505050565b600080600080600060a0868803121561223a57600080fd5b61224386611f14565b945061225160208701611f14565b9350604086013567ffffffffffffffff8082111561226e57600080fd5b61227a89838a0161211f565b9450606088013591508082111561229057600080fd5b61229c89838a0161211f565b935060808801359150808211156122b257600080fd5b506122bf88828901612190565b9150509295509295909350565b600080604083850312156122df57600080fd5b823567ffffffffffffffff808211156122f757600080fd5b818501915085601f83011261230b57600080fd5b81356020612318826120fb565b60405161232582826120b0565b83815260059390931b850182019282810191508984111561234557600080fd5b948201945b8386101561236a5761235b86611f14565b8252948201949082019061234a565b9650508601359250508082111561238057600080fd5b5061238d8582860161211f565b9150509250929050565b600081518084526020808501945080840160005b838110156123c7578151875295820195908201906001016123ab565b509495945050505050565b602081526000611fb26020830184612397565b600080602083850312156123f857600080fd5b823567ffffffffffffffff8082111561241057600080fd5b818501915085601f83011261242457600080fd5b81358181111561243357600080fd5b8660208260051b850101111561244857600080fd5b60209290920196919550909350505050565b6020808252825182820181905260009190848201906040850190845b818110156124a857835173ffffffffffffffffffffffffffffffffffffffff1683529284019291840191600101612476565b50909695505050505050565b600080604083850312156124c757600080fd5b6124d083611f14565b9150602083013580151581146124e557600080fd5b809150509250929050565b60008060006060848603121561250557600080fd5b61250e84611f14565b92506020840135915060408401356bffffffffffffffffffffffff8116811461253657600080fd5b809150509250925092565b6000806040838503121561255457600080fd5b61255d83611f14565b915061256b60208401611f14565b90509250929050565b600080600080600060a0868803121561258c57600080fd5b61259586611f14565b94506125a360208701611f14565b93506040860135925060608601359150608086013567ffffffffffffffff8111156125cd57600080fd5b6122bf88828901612190565b6000602082840312156125eb57600080fd5b611fb282611f14565b600181811c9082168061260857607f821691505b602082108103612641577f4e487b7100000000000000000000000000000000000000000000000000000000600052602260045260246000fd5b50919050565b60008151612659818560208601611fd2565b9290920192915050565b600080845481600182811c91508083168061267f57607f831692505b602080841082036126b7577f4e487b710000000000000000000000000000000000000000000000000000000086526022600452602486fd5b8180156126cb57600181146126fa57612727565b7fffffffffffffffffffffffffffffffffffffffffffffffffffffffffffffff00861689528489019650612727565b60008b81526020902060005b8681101561271f5781548b820152908501908301612706565b505084890196505b5050505050506127378185612647565b7f2e6a736f6e000000000000000000000000000000000000000000000000000000815260050195945050505050565b7f4e487b7100000000000000000000000000000000000000000000000000000000600052601160045260246000fd5b6000817fffffffffffffffffffffffffffffffffffffffffffffffffffffffffffffffff04831182151516156127cd576127cd612766565b500290565b7f4e487b7100000000000000000000000000000000000000000000000000000000600052601260045260246000fd5b600082612810576128106127d2565b500490565b7f4e487b7100000000000000000000000000000000000000000000000000000000600052603260045260246000fd5b60007fffffffffffffffffffffffffffffffffffffffffffffffffffffffffffffffff820361287557612875612766565b5060010190565b60008282101561288e5761288e612766565b500390565b6000826128a2576128a26127d2565b500690565b600082198211156128ba576128ba612766565b500190565b6040815260006128d26040830185612397565b82810360208401526128e48185612397565b95945050505050565b600073ffffffffffffffffffffffffffffffffffffffff808816835280871660208401525060a0604083015261292660a0830186612397565b82810360608401526129388186612397565b9050828103608084015261294c8185612002565b98975050505050505050565b60006020828403121561296a57600080fd5b8151611fb281611f67565b600060033d111561298e5760046000803e5060005160e01c5b90565b600060443d101561299f5790565b6040517ffffffffffffffffffffffffffffffffffffffffffffffffffffffffffffffffc803d016004833e81513d67ffffffffffffffff81602484011181841117156129ed57505050505090565b8285019150815181811115612a055750505050505090565b843d8701016020828501011115612a1f5750505050505090565b612a2e602082860101876120b0565b509095945050505050565b600073ffffffffffffffffffffffffffffffffffffffff808816835280871660208401525084604083015283606083015260a06080830152612a7e60a0830184612002565b97965050505050505056fea2646970667358221220d22c40df5846e6b205344009116acc54d3ee0afea634ccc69de14c93f3c16f9164736f6c634300080d0033a264697066735822122022f17168f93664fd115d5233b8efbf3fa268592e5da1632ef10b66d4195084de64736f6c634300080d0033",
  "linkReferences": {},
  "deployedLinkReferences": {}
}