{
  "_format": "hh-sol-artifact-1",
  "contractName": "SlyceDropBuy",
  "sourceName": "contracts/SlyceDropBuy.sol",
  "abi": [
    {
      "anonymous": false,
      "inputs": [
        {
          "indexed": true,
          "internalType": "address",
          "name": "slycerAdr",
          "type": "address"
        },
        {
          "indexed": true,
          "internalType": "uint256",
          "name": "slyceIdStart",
          "type": "uint256"
        },
        {
          "indexed": false,
          "internalType": "uint256",
          "name": "NumberOfSlyce",
          "type": "uint256"
        }
      ],
      "name": "DropPurchase",
      "type": "event"
    },
    {
      "anonymous": false,
      "inputs": [
        {
          "indexed": false,
          "internalType": "uint8",
          "name": "version",
          "type": "uint8"
        }
      ],
      "name": "Initialized",
      "type": "event"
    },
    {
      "anonymous": false,
      "inputs": [
        {
          "indexed": true,
          "internalType": "address",
          "name": "previousOwner",
          "type": "address"
        },
        {
          "indexed": true,
          "internalType": "address",
          "name": "newOwner",
          "type": "address"
        }
      ],
      "name": "OwnershipTransferred",
      "type": "event"
    },
    {
      "anonymous": false,
      "inputs": [
        {
          "indexed": false,
          "internalType": "address",
          "name": "account",
          "type": "address"
        }
      ],
      "name": "Paused",
      "type": "event"
    },
    {
      "anonymous": false,
      "inputs": [
        {
          "indexed": false,
          "internalType": "address",
          "name": "account",
          "type": "address"
        }
      ],
      "name": "Unpaused",
      "type": "event"
    },
    {
      "inputs": [
        {
          "internalType": "uint256",
          "name": "SlyceId",
          "type": "uint256"
        }
      ],
      "name": "_breakSlyceId",
      "outputs": [
        {
          "internalType": "uint8",
          "name": "_version",
          "type": "uint8"
        },
        {
          "internalType": "uint256",
          "name": "_dropId",
          "type": "uint256"
        },
        {
          "internalType": "uint16",
          "name": "_tierId",
          "type": "uint16"
        },
        {
          "internalType": "uint16",
          "name": "_tokenNumber",
          "type": "uint16"
        }
      ],
      "stateMutability": "pure",
      "type": "function"
    },
    {
      "inputs": [
        {
          "internalType": "uint256",
          "name": "_dropId",
          "type": "uint256"
        },
        {
          "internalType": "uint16",
          "name": "_tierId",
          "type": "uint16"
        },
        {
          "internalType": "uint16",
          "name": "_tokenNumber",
          "type": "uint16"
        }
      ],
      "name": "_createSlyceId",
      "outputs": [
        {
          "internalType": "uint256",
          "name": "_slyceId",
          "type": "uint256"
        }
      ],
      "stateMutability": "pure",
      "type": "function"
    },
    {
      "inputs": [
        {
          "internalType": "address",
          "name": "_tokenAddress",
          "type": "address"
        },
        {
          "internalType": "uint256[]",
          "name": "_slyceId",
          "type": "uint256[]"
        }
      ],
      "name": "areSlycesPurchasable",
      "outputs": [
        {
          "internalType": "bool[]",
          "name": "",
          "type": "bool[]"
        }
      ],
      "stateMutability": "view",
      "type": "function"
    },
    {
      "inputs": [],
      "name": "emergancyPause",
      "outputs": [],
      "stateMutability": "nonpayable",
      "type": "function"
    },
    {
      "inputs": [],
      "name": "emergancyUnPause",
      "outputs": [],
      "stateMutability": "nonpayable",
      "type": "function"
    },
    {
      "inputs": [
        {
          "internalType": "address",
          "name": "_slyceLogicContract",
          "type": "address"
        }
      ],
      "name": "initialize",
      "outputs": [],
      "stateMutability": "nonpayable",
      "type": "function"
    },
    {
      "inputs": [
        {
          "internalType": "address",
          "name": "_tokenAddress",
          "type": "address"
        },
        {
          "internalType": "uint256",
          "name": "_slyceId",
          "type": "uint256"
        }
      ],
      "name": "isSlycePurchasable",
      "outputs": [
        {
          "internalType": "bool",
          "name": "",
          "type": "bool"
        }
      ],
      "stateMutability": "view",
      "type": "function"
    },
    {
      "inputs": [
        {
          "internalType": "address",
          "name": "",
          "type": "address"
        },
        {
          "internalType": "address",
          "name": "",
          "type": "address"
        },
        {
          "internalType": "uint256[]",
          "name": "",
          "type": "uint256[]"
        },
        {
          "internalType": "uint256[]",
          "name": "",
          "type": "uint256[]"
        },
        {
          "internalType": "bytes",
          "name": "",
          "type": "bytes"
        }
      ],
      "name": "onERC1155BatchReceived",
      "outputs": [
        {
          "internalType": "bytes4",
          "name": "",
          "type": "bytes4"
        }
      ],
      "stateMutability": "nonpayable",
      "type": "function"
    },
    {
      "inputs": [
        {
          "internalType": "address",
          "name": "",
          "type": "address"
        },
        {
          "internalType": "address",
          "name": "",
          "type": "address"
        },
        {
          "internalType": "uint256",
          "name": "",
          "type": "uint256"
        },
        {
          "internalType": "uint256",
          "name": "",
          "type": "uint256"
        },
        {
          "internalType": "bytes",
          "name": "",
          "type": "bytes"
        }
      ],
      "name": "onERC1155Received",
      "outputs": [
        {
          "internalType": "bytes4",
          "name": "",
          "type": "bytes4"
        }
      ],
      "stateMutability": "nonpayable",
      "type": "function"
    },
    {
      "inputs": [],
      "name": "owner",
      "outputs": [
        {
          "internalType": "address",
          "name": "",
          "type": "address"
        }
      ],
      "stateMutability": "view",
      "type": "function"
    },
    {
      "inputs": [],
      "name": "paused",
      "outputs": [
        {
          "internalType": "bool",
          "name": "",
          "type": "bool"
        }
      ],
      "stateMutability": "view",
      "type": "function"
    },
    {
      "inputs": [
        {
          "internalType": "address",
          "name": "_tokenAddress",
          "type": "address"
        },
        {
          "internalType": "uint16",
          "name": "_tierToPurchase",
          "type": "uint16"
        },
        {
          "internalType": "uint256",
          "name": "_numberPurshased",
          "type": "uint256"
        }
      ],
      "name": "purchaseDrop",
      "outputs": [],
      "stateMutability": "nonpayable",
      "type": "function"
    },
    {
      "inputs": [
        {
          "internalType": "address",
          "name": "_tokenAddress",
          "type": "address"
        },
        {
          "internalType": "address",
          "name": "_buyerAdr",
          "type": "address"
        },
        {
          "internalType": "uint16",
          "name": "_tierToPurchase",
          "type": "uint16"
        },
        {
          "internalType": "uint256",
          "name": "_numberPurshased",
          "type": "uint256"
        }
      ],
      "name": "purchaseDropOffChain",
      "outputs": [],
      "stateMutability": "nonpayable",
      "type": "function"
    },
    {
      "inputs": [],
      "name": "renounceOwnership",
      "outputs": [],
      "stateMutability": "nonpayable",
      "type": "function"
    },
    {
      "inputs": [],
      "name": "slyceDropLogicContract",
      "outputs": [
        {
          "internalType": "address",
          "name": "",
          "type": "address"
        }
      ],
      "stateMutability": "view",
      "type": "function"
    },
    {
      "inputs": [
        {
          "internalType": "bytes4",
          "name": "interfaceId",
          "type": "bytes4"
        }
      ],
      "name": "supportsInterface",
      "outputs": [
        {
          "internalType": "bool",
          "name": "",
          "type": "bool"
        }
      ],
      "stateMutability": "view",
      "type": "function"
    },
    {
      "inputs": [
        {
          "internalType": "address",
          "name": "newOwner",
          "type": "address"
        }
      ],
      "name": "transferOwnership",
      "outputs": [],
      "stateMutability": "nonpayable",
      "type": "function"
    },
    {
      "inputs": [],
      "name": "usdcContract",
      "outputs": [
        {
          "internalType": "address",
          "name": "",
          "type": "address"
        }
      ],
      "stateMutability": "view",
      "type": "function"
    }
  ],
  "bytecode": "0x608060405234801561001057600080fd5b50612cbe806100206000396000f3fe608060405234801561001057600080fd5b50600436106101365760003560e01c80638da5cb5b116100b2578063bc59381d11610081578063de4f682f11610066578063de4f682f14610357578063f23a6e611461036a578063f2fde38b146103a257600080fd5b8063bc59381d1461033c578063c4d66de81461034457600080fd5b80638da5cb5b146102825780639705dbe4146102a0578063addc2876146102b3578063bc197c81146102d357600080fd5b806353a401aa116101095780636f4db08f116100ee5780636f4db08f14610238578063715018a6146102595780637410c2201461026157600080fd5b806353a401aa146102255780635c975abb1461022d57600080fd5b806301ffc9a71461013b5780631323e88b1461016357806347020ef9146101a35780634cd00e03146101b8575b600080fd5b61014e610149366004612410565b6103b5565b60405190151581526020015b60405180910390f35b61017e73e11a86849d99f524cac3e7a0ec1241828e332c6281565b60405173ffffffffffffffffffffffffffffffffffffffff909116815260200161015a565b6101b66101b136600461248b565b61044e565b005b6101f76101c63660046124da565b60f881901c91602082901c7affffffffffffffffffffffffffffffffffffffffffffffffffffff1691601081901c91565b6040805160ff9095168552602085019390935261ffff9182169284019290925216606082015260800161015a565b6101b6610c82565b60335460ff1661014e565b61024b6102463660046124f3565b610c94565b60405190815260200161015a565b6101b6610d14565b61012d5461017e9073ffffffffffffffffffffffffffffffffffffffff1681565b60655473ffffffffffffffffffffffffffffffffffffffff1661017e565b61014e6102ae36600461252f565b610d26565b6102c66102c136600461255b565b610dd4565b60405161015a91906125e3565b61030b6102e13660046127c4565b7fbc197c810000000000000000000000000000000000000000000000000000000095945050505050565b6040517fffffffff00000000000000000000000000000000000000000000000000000000909116815260200161015a565b6101b6610e85565b6101b6610352366004612872565b610e95565b6101b661036536600461288f565b611079565b61030b6103783660046128cd565b7ff23a6e610000000000000000000000000000000000000000000000000000000095945050505050565b6101b66103b0366004612872565b6119ca565b60007fffffffff0000000000000000000000000000000000000000000000000000000082167f4e2312e000000000000000000000000000000000000000000000000000000000148061044857507f01ffc9a7000000000000000000000000000000000000000000000000000000007fffffffff000000000000000000000000000000000000000000000000000000008316145b92915050565b610456611a81565b61045e611b02565b8373ffffffffffffffffffffffffffffffffffffffff166305eed1a16040518163ffffffff1660e01b8152600401602060405180830381865afa1580156104a9573d6000803e3d6000fd5b505050506040513d601f19601f820116820180604052508101906104cd9190612936565b610538576040517f08c379a000000000000000000000000000000000000000000000000000000000815260206004820152601560248201527f5f746f6b656e4164647265737320696e76616c6964000000000000000000000060448201526064015b60405180910390fd5b61012d546040517f0d863d3d00000000000000000000000000000000000000000000000000000000815273ffffffffffffffffffffffffffffffffffffffff86811660048301526000928392839290911690630d863d3d90602401600060405180830381865afa1580156105b0573d6000803e3d6000fd5b505050506040513d6000823e601f3d9081017fffffffffffffffffffffffffffffffffffffffffffffffffffffffffffffffe01682016040526105f691908101906129b3565b95505050935050925082518561ffff161061066d576040517f08c379a000000000000000000000000000000000000000000000000000000000815260206004820152601360248201527f54696572206e756d62657220696e76616c696400000000000000000000000000604482015260640161052f565b600381600481111561068157610681612a70565b146106e8576040517f08c379a000000000000000000000000000000000000000000000000000000000815260206004820152601560248201527f4e6f742069732070757263686173652073746174650000000000000000000000604482015260640161052f565b8673ffffffffffffffffffffffffffffffffffffffff166392c36ba06040518163ffffffff1660e01b8152600401600060405180830381865afa158015610733573d6000803e3d6000fd5b505050506040513d6000823e601f3d9081017fffffffffffffffffffffffffffffffffffffffffffffffffffffffffffffffe01682016040526107799190810190612a9f565b8561ffff168151811061078e5761078e612ad4565b60200260200101518411156107ff576040517f08c379a000000000000000000000000000000000000000000000000000000000815260206004820152601860248201527f546f6f206d756368206e756d6265725075727368617365640000000000000000604482015260640161052f565b6000838661ffff168151811061081757610817612ad4565b602002602001015190506108d983878a73ffffffffffffffffffffffffffffffffffffffff166392c36ba06040518163ffffffff1660e01b8152600401600060405180830381865afa158015610871573d6000803e3d6000fd5b505050506040513d6000823e601f3d9081017fffffffffffffffffffffffffffffffffffffffffffffffffffffffffffffffe01682016040526108b79190810190612a9f565b8961ffff16815181106108cc576108cc612ad4565b6020026020010151610c94565b6108e4600187612b32565b6108ee9083612b49565b10610955576040517f08c379a000000000000000000000000000000000000000000000000000000000815260206004820152601a60248201527f3129496e73756666696369656e7420746f6b656e206c6566742e000000000000604482015260640161052f565b73ffffffffffffffffffffffffffffffffffffffff881662fdd58e3061097c600189612b32565b6109869085612b49565b6040517fffffffff0000000000000000000000000000000000000000000000000000000060e085901b16815273ffffffffffffffffffffffffffffffffffffffff90921660048301526024820152604401602060405180830381865afa1580156109f4573d6000803e3d6000fd5b505050506040513d601f19601f82011682018060405250810190610a189190612b61565b600114610a81576040517f08c379a000000000000000000000000000000000000000000000000000000000815260206004820152601a60248201527f3229496e73756666696369656e7420746f6b656e206c6566742e000000000000604482015260640161052f565b60005b85811015610b665773ffffffffffffffffffffffffffffffffffffffff891663f242432a308a610ab48587612b49565b6040517fffffffff0000000000000000000000000000000000000000000000000000000060e086901b16815273ffffffffffffffffffffffffffffffffffffffff938416600482015292909116602483015260448201526001606482015260a06084820152600060a482015260c401600060405180830381600087803b158015610b3d57600080fd5b505af1158015610b51573d6000803e3d6000fd5b5050505080610b5f90612b7a565b9050610a84565b5061012d5473ffffffffffffffffffffffffffffffffffffffff1663843dd4278988610b928986612b49565b6040517fffffffff0000000000000000000000000000000000000000000000000000000060e086901b16815273ffffffffffffffffffffffffffffffffffffffff909316600484015261ffff9091166024830152604482015260648101889052608401600060405180830381600087803b158015610c0f57600080fd5b505af1158015610c23573d6000803e3d6000fd5b50505050808773ffffffffffffffffffffffffffffffffffffffff167fe962ab8975e3ded86d3bdae68691ba3ed22e3bf13fe9116bf2928f77e17e1a1987604051610c7091815260200190565b60405180910390a35050505050505050565b610c8a611a81565b610c92611b6f565b565b6000600161ffff831663ffff0000601086901b16610cf7602088901b7effffffffffffffffffffffffffffffffffffffffffffffffffffffffffffff167f0100000000000000000000000000000000000000000000000000000000000000612b49565b610d019190612b49565b610d0b9190612b49565b95945050505050565b610d1c611a81565b610c926000611bf4565b6040517efdd58e0000000000000000000000000000000000000000000000000000000081523060048201526024810182905260009073ffffffffffffffffffffffffffffffffffffffff84169062fdd58e90604401602060405180830381865afa158015610d98573d6000803e3d6000fd5b505050506040513d601f19601f82011682018060405250810190610dbc9190612b61565b600114610dca576000610dcd565b60015b9392505050565b606060008267ffffffffffffffff811115610df157610df1612629565b604051908082528060200260200182016040528015610e1a578160200160208202803683370190505b50905060005b83811015610e7c57610e4a86868684818110610e3e57610e3e612ad4565b90506020020135610d26565b828281518110610e5c57610e5c612ad4565b91151560209283029190910190910152610e7581612b7a565b9050610e20565b50949350505050565b610e8d611a81565b610c92611c6b565b600054610100900460ff1615808015610eb55750600054600160ff909116105b80610ecf5750303b158015610ecf575060005460ff166001145b610f5b576040517f08c379a000000000000000000000000000000000000000000000000000000000815260206004820152602e60248201527f496e697469616c697a61626c653a20636f6e747261637420697320616c72656160448201527f647920696e697469616c697a6564000000000000000000000000000000000000606482015260840161052f565b600080547fffffffffffffffffffffffffffffffffffffffffffffffffffffffffffffff001660011790558015610fb957600080547fffffffffffffffffffffffffffffffffffffffffffffffffffffffffffff00ff166101001790555b61012d80547fffffffffffffffffffffffff00000000000000000000000000000000000000001673ffffffffffffffffffffffffffffffffffffffff8416179055611002611cc2565b61100a611d61565b611012611e00565b801561107557600080547fffffffffffffffffffffffffffffffffffffffffffffffffffffffffffff00ff169055604051600181527f7f26b83ff96e1f2b6a682f133852f6798a09c465da95921460cefb38474024989060200160405180910390a15b5050565b611081611b02565b8273ffffffffffffffffffffffffffffffffffffffff166305eed1a16040518163ffffffff1660e01b8152600401602060405180830381865afa1580156110cc573d6000803e3d6000fd5b505050506040513d601f19601f820116820180604052508101906110f09190612936565b611156576040517f08c379a000000000000000000000000000000000000000000000000000000000815260206004820152601560248201527f5f746f6b656e4164647265737320696e76616c69640000000000000000000000604482015260640161052f565b61012d546040517f0d863d3d00000000000000000000000000000000000000000000000000000000815273ffffffffffffffffffffffffffffffffffffffff85811660048301526000928392839283928392911690630d863d3d90602401600060405180830381865afa1580156111d1573d6000803e3d6000fd5b505050506040513d6000823e601f3d9081017fffffffffffffffffffffffffffffffffffffffffffffffffffffffffffffffe016820160405261121791908101906129b3565b955095509550955050945084518761ffff1610611290576040517f08c379a000000000000000000000000000000000000000000000000000000000815260206004820152601360248201527f54696572206e756d62657220696e76616c696400000000000000000000000000604482015260640161052f565b60038160048111156112a4576112a4612a70565b1461130b576040517f08c379a000000000000000000000000000000000000000000000000000000000815260206004820152601560248201527f4e6f742069732070757263686173652073746174650000000000000000000000604482015260640161052f565b8773ffffffffffffffffffffffffffffffffffffffff166392c36ba06040518163ffffffff1660e01b8152600401600060405180830381865afa158015611356573d6000803e3d6000fd5b505050506040513d6000823e601f3d9081017fffffffffffffffffffffffffffffffffffffffffffffffffffffffffffffffe016820160405261139c9190810190612a9f565b8761ffff16815181106113b1576113b1612ad4565b6020026020010151861115611422576040517f08c379a000000000000000000000000000000000000000000000000000000000815260206004820152601860248201527f546f6f206d756368206e756d6265725075727368617365640000000000000000604482015260640161052f565b6000858861ffff168151811061143a5761143a612ad4565b602002602001015190506114ef85898b73ffffffffffffffffffffffffffffffffffffffff166392c36ba06040518163ffffffff1660e01b8152600401600060405180830381865afa158015611494573d6000803e3d6000fd5b505050506040513d6000823e601f3d9081017fffffffffffffffffffffffffffffffffffffffffffffffffffffffffffffffe01682016040526114da9190810190612a9f565b8b61ffff16815181106108cc576108cc612ad4565b6114fa600189612b32565b6115049083612b49565b1061156b576040517f08c379a000000000000000000000000000000000000000000000000000000000815260206004820152601a60248201527f3129496e73756666696369656e7420746f6b656e206c6566742e000000000000604482015260640161052f565b73ffffffffffffffffffffffffffffffffffffffff891662fdd58e3061159260018b612b32565b61159c9085612b49565b6040517fffffffff0000000000000000000000000000000000000000000000000000000060e085901b16815273ffffffffffffffffffffffffffffffffffffffff90921660048301526024820152604401602060405180830381865afa15801561160a573d6000803e3d6000fd5b505050506040513d601f19601f8201168201806040525081019061162e9190612b61565b600114611697576040517f08c379a000000000000000000000000000000000000000000000000000000000815260206004820152601a60248201527f3229496e73756666696369656e7420746f6b656e206c6566742e000000000000604482015260640161052f565b600087858a61ffff16815181106116b0576116b0612ad4565b60200260200101516116c29190612bb2565b6040517fdd62ed3e000000000000000000000000000000000000000000000000000000008152336004820152306024820152909150819073e11a86849d99f524cac3e7a0ec1241828e332c629063dd62ed3e90604401602060405180830381865afa158015611735573d6000803e3d6000fd5b505050506040513d601f19601f820116820180604052508101906117599190612b61565b10156117c1576040517f08c379a000000000000000000000000000000000000000000000000000000000815260206004820152601660248201527f496e73756666696369656e7420616c6c6f77616e636500000000000000000000604482015260640161052f565b6117e173e11a86849d99f524cac3e7a0ec1241828e332c62338684611e97565b60005b888110156118c65773ffffffffffffffffffffffffffffffffffffffff8b1663f242432a30336118148588612b49565b6040517fffffffff0000000000000000000000000000000000000000000000000000000060e086901b16815273ffffffffffffffffffffffffffffffffffffffff938416600482015292909116602483015260448201526001606482015260a06084820152600060a482015260c401600060405180830381600087803b15801561189d57600080fd5b505af11580156118b1573d6000803e3d6000fd5b50505050806118bf90612b7a565b90506117e4565b5061012d5473ffffffffffffffffffffffffffffffffffffffff1663843dd4278b8b6118f28c87612b49565b6040517fffffffff0000000000000000000000000000000000000000000000000000000060e086901b16815273ffffffffffffffffffffffffffffffffffffffff909316600484015261ffff90911660248301526044820152606481018b9052608401600060405180830381600087803b15801561196f57600080fd5b505af1158015611983573d6000803e3d6000fd5b50506040518a81528492503391507fe962ab8975e3ded86d3bdae68691ba3ed22e3bf13fe9116bf2928f77e17e1a199060200160405180910390a350505050505050505050565b6119d2611a81565b73ffffffffffffffffffffffffffffffffffffffff8116611a75576040517f08c379a000000000000000000000000000000000000000000000000000000000815260206004820152602660248201527f4f776e61626c653a206e6577206f776e657220697320746865207a65726f206160448201527f6464726573730000000000000000000000000000000000000000000000000000606482015260840161052f565b611a7e81611bf4565b50565b60655473ffffffffffffffffffffffffffffffffffffffff163314610c92576040517f08c379a000000000000000000000000000000000000000000000000000000000815260206004820181905260248201527f4f776e61626c653a2063616c6c6572206973206e6f7420746865206f776e6572604482015260640161052f565b60335460ff1615610c92576040517f08c379a000000000000000000000000000000000000000000000000000000000815260206004820152601060248201527f5061757361626c653a2070617573656400000000000000000000000000000000604482015260640161052f565b611b77611b02565b603380547fffffffffffffffffffffffffffffffffffffffffffffffffffffffffffffff001660011790557f62e78cea01bee320cd4e420270b5ea74000d11b0c9f74754ebdbfc544b05a258611bca3390565b60405173ffffffffffffffffffffffffffffffffffffffff909116815260200160405180910390a1565b6065805473ffffffffffffffffffffffffffffffffffffffff8381167fffffffffffffffffffffffff0000000000000000000000000000000000000000831681179093556040519116919082907f8be0079c531659141344cd1fd0a4f28419497f9722a3daafe3b4186f6b6457e090600090a35050565b611c73611f32565b603380547fffffffffffffffffffffffffffffffffffffffffffffffffffffffffffffff001690557f5db9ee0a495bf2e6ff9c91a7834c1ba4fdd244a5e8aa4e537bd38aeae4b073aa33611bca565b600054610100900460ff16611d59576040517f08c379a000000000000000000000000000000000000000000000000000000000815260206004820152602b60248201527f496e697469616c697a61626c653a20636f6e7472616374206973206e6f74206960448201527f6e697469616c697a696e67000000000000000000000000000000000000000000606482015260840161052f565b610c92611f9e565b600054610100900460ff16611df8576040517f08c379a000000000000000000000000000000000000000000000000000000000815260206004820152602b60248201527f496e697469616c697a61626c653a20636f6e7472616374206973206e6f74206960448201527f6e697469616c697a696e67000000000000000000000000000000000000000000606482015260840161052f565b610c9261205f565b600054610100900460ff16610c92576040517f08c379a000000000000000000000000000000000000000000000000000000000815260206004820152602b60248201527f496e697469616c697a61626c653a20636f6e7472616374206973206e6f74206960448201527f6e697469616c697a696e67000000000000000000000000000000000000000000606482015260840161052f565b6040805173ffffffffffffffffffffffffffffffffffffffff85811660248301528416604482015260648082018490528251808303909101815260849091019091526020810180517bffffffffffffffffffffffffffffffffffffffffffffffffffffffff167f23b872dd00000000000000000000000000000000000000000000000000000000179052611f2c9085906120ff565b50505050565b60335460ff16610c92576040517f08c379a000000000000000000000000000000000000000000000000000000000815260206004820152601460248201527f5061757361626c653a206e6f7420706175736564000000000000000000000000604482015260640161052f565b600054610100900460ff16612035576040517f08c379a000000000000000000000000000000000000000000000000000000000815260206004820152602b60248201527f496e697469616c697a61626c653a20636f6e7472616374206973206e6f74206960448201527f6e697469616c697a696e67000000000000000000000000000000000000000000606482015260840161052f565b603380547fffffffffffffffffffffffffffffffffffffffffffffffffffffffffffffff00169055565b600054610100900460ff166120f6576040517f08c379a000000000000000000000000000000000000000000000000000000000815260206004820152602b60248201527f496e697469616c697a61626c653a20636f6e7472616374206973206e6f74206960448201527f6e697469616c697a696e67000000000000000000000000000000000000000000606482015260840161052f565b610c9233611bf4565b6000612161826040518060400160405280602081526020017f5361666545524332303a206c6f772d6c6576656c2063616c6c206661696c65648152508573ffffffffffffffffffffffffffffffffffffffff166122109092919063ffffffff16565b80519091501561220b578080602001905181019061217f9190612936565b61220b576040517f08c379a000000000000000000000000000000000000000000000000000000000815260206004820152602a60248201527f5361666545524332303a204552433230206f7065726174696f6e20646964206e60448201527f6f74207375636365656400000000000000000000000000000000000000000000606482015260840161052f565b505050565b606061221f8484600085612227565b949350505050565b6060824710156122b9576040517f08c379a000000000000000000000000000000000000000000000000000000000815260206004820152602660248201527f416464726573733a20696e73756666696369656e742062616c616e636520666f60448201527f722063616c6c0000000000000000000000000000000000000000000000000000606482015260840161052f565b73ffffffffffffffffffffffffffffffffffffffff85163b612337576040517f08c379a000000000000000000000000000000000000000000000000000000000815260206004820152601d60248201527f416464726573733a2063616c6c20746f206e6f6e2d636f6e7472616374000000604482015260640161052f565b6000808673ffffffffffffffffffffffffffffffffffffffff1685876040516123609190612c1b565b60006040518083038185875af1925050503d806000811461239d576040519150601f19603f3d011682016040523d82523d6000602084013e6123a2565b606091505b50915091506123b28282866123bd565b979650505050505050565b606083156123cc575081610dcd565b8251156123dc5782518084602001fd5b816040517f08c379a000000000000000000000000000000000000000000000000000000000815260040161052f9190612c37565b60006020828403121561242257600080fd5b81357fffffffff0000000000000000000000000000000000000000000000000000000081168114610dcd57600080fd5b73ffffffffffffffffffffffffffffffffffffffff81168114611a7e57600080fd5b803561ffff8116811461248657600080fd5b919050565b600080600080608085870312156124a157600080fd5b84356124ac81612452565b935060208501356124bc81612452565b92506124ca60408601612474565b9396929550929360600135925050565b6000602082840312156124ec57600080fd5b5035919050565b60008060006060848603121561250857600080fd5b8335925061251860208501612474565b915061252660408501612474565b90509250925092565b6000806040838503121561254257600080fd5b823561254d81612452565b946020939093013593505050565b60008060006040848603121561257057600080fd5b833561257b81612452565b9250602084013567ffffffffffffffff8082111561259857600080fd5b818601915086601f8301126125ac57600080fd5b8135818111156125bb57600080fd5b8760208260051b85010111156125d057600080fd5b6020830194508093505050509250925092565b6020808252825182820181905260009190848201906040850190845b8181101561261d5783511515835292840192918401916001016125ff565b50909695505050505050565b7f4e487b7100000000000000000000000000000000000000000000000000000000600052604160045260246000fd5b604051601f82017fffffffffffffffffffffffffffffffffffffffffffffffffffffffffffffffe016810167ffffffffffffffff8111828210171561269f5761269f612629565b604052919050565b600067ffffffffffffffff8211156126c1576126c1612629565b5060051b60200190565b600082601f8301126126dc57600080fd5b813560206126f16126ec836126a7565b612658565b82815260059290921b8401810191818101908684111561271057600080fd5b8286015b8481101561272b5780358352918301918301612714565b509695505050505050565b600082601f83011261274757600080fd5b813567ffffffffffffffff81111561276157612761612629565b61279260207fffffffffffffffffffffffffffffffffffffffffffffffffffffffffffffffe0601f84011601612658565b8181528460208386010111156127a757600080fd5b816020850160208301376000918101602001919091529392505050565b600080600080600060a086880312156127dc57600080fd5b85356127e781612452565b945060208601356127f781612452565b9350604086013567ffffffffffffffff8082111561281457600080fd5b61282089838a016126cb565b9450606088013591508082111561283657600080fd5b61284289838a016126cb565b9350608088013591508082111561285857600080fd5b5061286588828901612736565b9150509295509295909350565b60006020828403121561288457600080fd5b8135610dcd81612452565b6000806000606084860312156128a457600080fd5b83356128af81612452565b92506128bd60208501612474565b9150604084013590509250925092565b600080600080600060a086880312156128e557600080fd5b85356128f081612452565b9450602086013561290081612452565b93506040860135925060608601359150608086013567ffffffffffffffff81111561292a57600080fd5b61286588828901612736565b60006020828403121561294857600080fd5b81518015158114610dcd57600080fd5b600082601f83011261296957600080fd5b815160206129796126ec836126a7565b82815260059290921b8401810191818101908684111561299857600080fd5b8286015b8481101561272b578051835291830191830161299c565b60008060008060008060c087890312156129cc57600080fd5b865167ffffffffffffffff808211156129e457600080fd5b6129f08a838b01612958565b97506020890151915080821115612a0657600080fd5b612a128a838b01612958565b9650604089015195506060890151915080821115612a2f57600080fd5b50612a3c89828a01612958565b9350506080870151612a4d81612452565b60a088015190925060058110612a6257600080fd5b809150509295509295509295565b7f4e487b7100000000000000000000000000000000000000000000000000000000600052602160045260246000fd5b600060208284031215612ab157600080fd5b815167ffffffffffffffff811115612ac857600080fd5b61221f84828501612958565b7f4e487b7100000000000000000000000000000000000000000000000000000000600052603260045260246000fd5b7f4e487b7100000000000000000000000000000000000000000000000000000000600052601160045260246000fd5b600082821015612b4457612b44612b03565b500390565b60008219821115612b5c57612b5c612b03565b500190565b600060208284031215612b7357600080fd5b5051919050565b60007fffffffffffffffffffffffffffffffffffffffffffffffffffffffffffffffff8203612bab57612bab612b03565b5060010190565b6000817fffffffffffffffffffffffffffffffffffffffffffffffffffffffffffffffff0483118215151615612bea57612bea612b03565b500290565b60005b83811015612c0a578181015183820152602001612bf2565b83811115611f2c5750506000910152565b60008251612c2d818460208701612bef565b9190910192915050565b6020815260008251806020840152612c56816040850160208701612bef565b601f017fffffffffffffffffffffffffffffffffffffffffffffffffffffffffffffffe016919091016040019291505056fea2646970667358221220bee2d4ee66b8732345f6de85ccaa4f1d0945b969818a8ed693b2c9867a79f01a64736f6c634300080d0033",
  "linkReferences": {},
  "deployedLinkReferences": {}
}