{
  "_format": "hh-sol-artifact-1",
  "contractName": "SlyceDropBuy",
  "sourceName": "contracts/SlyceDropBuy.sol",
  "abi": [
    {
      "anonymous": false,
      "inputs": [
        {
          "indexed": true,
          "internalType": "address",
          "name": "slycerAdr",
          "type": "address"
        },
        {
          "indexed": true,
          "internalType": "uint256",
          "name": "slyceIdStart",
          "type": "uint256"
        },
        {
          "indexed": false,
          "internalType": "uint256",
          "name": "NumberOfSlyce",
          "type": "uint256"
        }
      ],
      "name": "DropPurchase",
      "type": "event"
    },
    {
      "anonymous": false,
      "inputs": [
        {
          "indexed": false,
          "internalType": "uint8",
          "name": "version",
          "type": "uint8"
        }
      ],
      "name": "Initialized",
      "type": "event"
    },
    {
      "anonymous": false,
      "inputs": [
        {
          "indexed": true,
          "internalType": "address",
          "name": "previousOwner",
          "type": "address"
        },
        {
          "indexed": true,
          "internalType": "address",
          "name": "newOwner",
          "type": "address"
        }
      ],
      "name": "OwnershipTransferred",
      "type": "event"
    },
    {
      "anonymous": false,
      "inputs": [
        {
          "indexed": false,
          "internalType": "address",
          "name": "account",
          "type": "address"
        }
      ],
      "name": "Paused",
      "type": "event"
    },
    {
      "anonymous": false,
      "inputs": [
        {
          "indexed": false,
          "internalType": "address",
          "name": "account",
          "type": "address"
        }
      ],
      "name": "Unpaused",
      "type": "event"
    },
    {
      "inputs": [
        {
          "internalType": "uint256",
          "name": "SlyceId",
          "type": "uint256"
        }
      ],
      "name": "_breakSlyceId",
      "outputs": [
        {
          "internalType": "uint8",
          "name": "_version",
          "type": "uint8"
        },
        {
          "internalType": "uint256",
          "name": "_dropId",
          "type": "uint256"
        },
        {
          "internalType": "uint16",
          "name": "_tierId",
          "type": "uint16"
        },
        {
          "internalType": "uint16",
          "name": "_tokenNumber",
          "type": "uint16"
        }
      ],
      "stateMutability": "pure",
      "type": "function"
    },
    {
      "inputs": [
        {
          "internalType": "uint256",
          "name": "_dropId",
          "type": "uint256"
        },
        {
          "internalType": "uint16",
          "name": "_tierId",
          "type": "uint16"
        },
        {
          "internalType": "uint16",
          "name": "_tokenNumber",
          "type": "uint16"
        }
      ],
      "name": "_createSlyceId",
      "outputs": [
        {
          "internalType": "uint256",
          "name": "_slyceId",
          "type": "uint256"
        }
      ],
      "stateMutability": "pure",
      "type": "function"
    },
    {
      "inputs": [
        {
          "internalType": "address",
          "name": "_tokenAddress",
          "type": "address"
        },
        {
          "internalType": "uint256[]",
          "name": "_slyceId",
          "type": "uint256[]"
        }
      ],
      "name": "areSlycesPurchasable",
      "outputs": [
        {
          "internalType": "bool[]",
          "name": "",
          "type": "bool[]"
        }
      ],
      "stateMutability": "view",
      "type": "function"
    },
    {
      "inputs": [],
      "name": "emergancyPause",
      "outputs": [],
      "stateMutability": "nonpayable",
      "type": "function"
    },
    {
      "inputs": [],
      "name": "emergancyUnPause",
      "outputs": [],
      "stateMutability": "nonpayable",
      "type": "function"
    },
    {
      "inputs": [
        {
          "internalType": "address",
          "name": "_slyceLogicContract",
          "type": "address"
        }
      ],
      "name": "initialize",
      "outputs": [],
      "stateMutability": "nonpayable",
      "type": "function"
    },
    {
      "inputs": [
        {
          "internalType": "address",
          "name": "_tokenAddress",
          "type": "address"
        },
        {
          "internalType": "uint256",
          "name": "_slyceId",
          "type": "uint256"
        }
      ],
      "name": "isSlycePurchasable",
      "outputs": [
        {
          "internalType": "bool",
          "name": "",
          "type": "bool"
        }
      ],
      "stateMutability": "view",
      "type": "function"
    },
    {
      "inputs": [
        {
          "internalType": "address",
          "name": "",
          "type": "address"
        },
        {
          "internalType": "address",
          "name": "",
          "type": "address"
        },
        {
          "internalType": "uint256[]",
          "name": "",
          "type": "uint256[]"
        },
        {
          "internalType": "uint256[]",
          "name": "",
          "type": "uint256[]"
        },
        {
          "internalType": "bytes",
          "name": "",
          "type": "bytes"
        }
      ],
      "name": "onERC1155BatchReceived",
      "outputs": [
        {
          "internalType": "bytes4",
          "name": "",
          "type": "bytes4"
        }
      ],
      "stateMutability": "nonpayable",
      "type": "function"
    },
    {
      "inputs": [
        {
          "internalType": "address",
          "name": "",
          "type": "address"
        },
        {
          "internalType": "address",
          "name": "",
          "type": "address"
        },
        {
          "internalType": "uint256",
          "name": "",
          "type": "uint256"
        },
        {
          "internalType": "uint256",
          "name": "",
          "type": "uint256"
        },
        {
          "internalType": "bytes",
          "name": "",
          "type": "bytes"
        }
      ],
      "name": "onERC1155Received",
      "outputs": [
        {
          "internalType": "bytes4",
          "name": "",
          "type": "bytes4"
        }
      ],
      "stateMutability": "nonpayable",
      "type": "function"
    },
    {
      "inputs": [],
      "name": "owner",
      "outputs": [
        {
          "internalType": "address",
          "name": "",
          "type": "address"
        }
      ],
      "stateMutability": "view",
      "type": "function"
    },
    {
      "inputs": [],
      "name": "paused",
      "outputs": [
        {
          "internalType": "bool",
          "name": "",
          "type": "bool"
        }
      ],
      "stateMutability": "view",
      "type": "function"
    },
    {
      "inputs": [
        {
          "internalType": "address",
          "name": "_tokenAddress",
          "type": "address"
        },
        {
          "internalType": "uint16",
          "name": "_tierToPurchase",
          "type": "uint16"
        },
        {
          "internalType": "uint256",
          "name": "_numberPurshased",
          "type": "uint256"
        }
      ],
      "name": "purchaseDrop",
      "outputs": [],
      "stateMutability": "nonpayable",
      "type": "function"
    },
    {
      "inputs": [
        {
          "internalType": "address",
          "name": "_tokenAddress",
          "type": "address"
        },
        {
          "internalType": "uint16",
          "name": "_tierToPurchase",
          "type": "uint16"
        },
        {
          "internalType": "uint256",
          "name": "_numberPurshased",
          "type": "uint256"
        }
      ],
      "name": "purchaseDropOffChain",
      "outputs": [],
      "stateMutability": "nonpayable",
      "type": "function"
    },
    {
      "inputs": [],
      "name": "renounceOwnership",
      "outputs": [],
      "stateMutability": "nonpayable",
      "type": "function"
    },
    {
      "inputs": [],
      "name": "slyceDropLogicContract",
      "outputs": [
        {
          "internalType": "address",
          "name": "",
          "type": "address"
        }
      ],
      "stateMutability": "view",
      "type": "function"
    },
    {
      "inputs": [
        {
          "internalType": "bytes4",
          "name": "interfaceId",
          "type": "bytes4"
        }
      ],
      "name": "supportsInterface",
      "outputs": [
        {
          "internalType": "bool",
          "name": "",
          "type": "bool"
        }
      ],
      "stateMutability": "view",
      "type": "function"
    },
    {
      "inputs": [
        {
          "internalType": "address",
          "name": "newOwner",
          "type": "address"
        }
      ],
      "name": "transferOwnership",
      "outputs": [],
      "stateMutability": "nonpayable",
      "type": "function"
    },
    {
      "inputs": [],
      "name": "usdcContract",
      "outputs": [
        {
          "internalType": "address",
          "name": "",
          "type": "address"
        }
      ],
      "stateMutability": "view",
      "type": "function"
    }
  ],
  "bytecode": "0x608060405234801561001057600080fd5b50612845806100206000396000f3fe608060405234801561001057600080fd5b50600436106101365760003560e01c80639705dbe4116100b2578063c4d66de811610081578063de4f682f11610066578063de4f682f14610357578063f23a6e611461036a578063f2fde38b146103a257600080fd5b8063c4d66de814610331578063ce9fb0ea1461034457600080fd5b80639705dbe41461028d578063addc2876146102a0578063bc197c81146102c0578063bc59381d1461032957600080fd5b80635c975abb11610109578063715018a6116100ee578063715018a6146102465780637410c2201461024e5780638da5cb5b1461026f57600080fd5b80635c975abb1461021a5780636f4db08f1461022557600080fd5b806301ffc9a71461013b5780631323e88b146101635780634cd00e03146101a357806353a401aa14610210575b600080fd5b61014e610149366004612069565b6103b5565b60405190151581526020015b60405180910390f35b61017e73a0b86991c6218b36c1d19d4a2e9eb0ce3606eb4881565b60405173ffffffffffffffffffffffffffffffffffffffff909116815260200161015a565b6101e26101b13660046120ab565b60f881901c91602082901c7affffffffffffffffffffffffffffffffffffffffffffffffffffff1691601081901c91565b6040805160ff9095168552602085019390935261ffff9182169284019290925216606082015260800161015a565b61021861044e565b005b60335460ff1661014e565b6102386102333660046120db565b610460565b60405190815260200161015a565b6102186104e0565b61012d5461017e9073ffffffffffffffffffffffffffffffffffffffff1681565b60655473ffffffffffffffffffffffffffffffffffffffff1661017e565b61014e61029b366004612139565b6104f2565b6102b36102ae366004612165565b6105a0565b60405161015a91906121ed565b6102f86102ce3660046123ce565b7fbc197c810000000000000000000000000000000000000000000000000000000095945050505050565b6040517fffffffff00000000000000000000000000000000000000000000000000000000909116815260200161015a565b610218610651565b61021861033f36600461247c565b610661565b610218610352366004612499565b61084a565b610218610365366004612499565b610e98565b6102f86103783660046124d7565b7ff23a6e610000000000000000000000000000000000000000000000000000000095945050505050565b6102186103b036600461247c565b611623565b60007fffffffff0000000000000000000000000000000000000000000000000000000082167f4e2312e000000000000000000000000000000000000000000000000000000000148061044857507f01ffc9a7000000000000000000000000000000000000000000000000000000007fffffffff000000000000000000000000000000000000000000000000000000008316145b92915050565b6104566116da565b61045e61175b565b565b6000600161ffff831663ffff0000601086901b166104c3602088901b7effffffffffffffffffffffffffffffffffffffffffffffffffffffffffffff167f010000000000000000000000000000000000000000000000000000000000000061256f565b6104cd919061256f565b6104d7919061256f565b95945050505050565b6104e86116da565b61045e60006117e0565b6040517efdd58e0000000000000000000000000000000000000000000000000000000081523060048201526024810182905260009073ffffffffffffffffffffffffffffffffffffffff84169062fdd58e90604401602060405180830381865afa158015610564573d6000803e3d6000fd5b505050506040513d601f19601f820116820180604052508101906105889190612587565b600114610596576000610599565b60015b9392505050565b606060008267ffffffffffffffff8111156105bd576105bd612233565b6040519080825280602002602001820160405280156105e6578160200160208202803683370190505b50905060005b83811015610648576106168686868481811061060a5761060a6125a0565b905060200201356104f2565b828281518110610628576106286125a0565b91151560209283029190910190910152610641816125cf565b90506105ec565b50949350505050565b6106596116da565b61045e611857565b600054610100900460ff16158080156106815750600054600160ff909116105b8061069b5750303b15801561069b575060005460ff166001145b61072c576040517f08c379a000000000000000000000000000000000000000000000000000000000815260206004820152602e60248201527f496e697469616c697a61626c653a20636f6e747261637420697320616c72656160448201527f647920696e697469616c697a656400000000000000000000000000000000000060648201526084015b60405180910390fd5b600080547fffffffffffffffffffffffffffffffffffffffffffffffffffffffffffffff00166001179055801561078a57600080547fffffffffffffffffffffffffffffffffffffffffffffffffffffffffffff00ff166101001790555b61012d80547fffffffffffffffffffffffff00000000000000000000000000000000000000001673ffffffffffffffffffffffffffffffffffffffff84161790556107d36118ae565b6107db61194d565b6107e36119ec565b801561084657600080547fffffffffffffffffffffffffffffffffffffffffffffffffffffffffffff00ff169055604051600181527f7f26b83ff96e1f2b6a682f133852f6798a09c465da95921460cefb38474024989060200160405180910390a15b5050565b6108526116da565b61085a611a83565b8273ffffffffffffffffffffffffffffffffffffffff166305eed1a16040518163ffffffff1660e01b8152600401602060405180830381865afa1580156108a5573d6000803e3d6000fd5b505050506040513d601f19601f820116820180604052508101906108c99190612607565b61092f576040517f08c379a000000000000000000000000000000000000000000000000000000000815260206004820152601560248201527f5f746f6b656e4164647265737320696e76616c696400000000000000000000006044820152606401610723565b8273ffffffffffffffffffffffffffffffffffffffff166392c36ba06040518163ffffffff1660e01b8152600401600060405180830381865afa15801561097a573d6000803e3d6000fd5b505050506040513d6000823e601f3d9081017fffffffffffffffffffffffffffffffffffffffffffffffffffffffffffffffe01682016040526109c09190810190612684565b8261ffff16815181106109d5576109d56125a0565b6020026020010151811115610a46576040517f08c379a000000000000000000000000000000000000000000000000000000000815260206004820152601860248201527f546f6f206d756368206e756d62657250757273686173656400000000000000006044820152606401610723565b61012d546040517f0d863d3d00000000000000000000000000000000000000000000000000000000815273ffffffffffffffffffffffffffffffffffffffff85811660048301526000928392911690630d863d3d90602401600060405180830381865afa158015610abb573d6000803e3d6000fd5b505050506040513d6000823e601f3d9081017fffffffffffffffffffffffffffffffffffffffffffffffffffffffffffffffe0168201604052610b0191908101906126b9565b5050915091506000828561ffff1681518110610b1f57610b1f6125a0565b60200260200101519050610be182868873ffffffffffffffffffffffffffffffffffffffff166392c36ba06040518163ffffffff1660e01b8152600401600060405180830381865afa158015610b79573d6000803e3d6000fd5b505050506040513d6000823e601f3d9081017fffffffffffffffffffffffffffffffffffffffffffffffffffffffffffffffe0168201604052610bbf9190810190612684565b8861ffff1681518110610bd457610bd46125a0565b6020026020010151610460565b610beb858361256f565b10610c52576040517f08c379a000000000000000000000000000000000000000000000000000000000815260206004820152601860248201527f496e73756666696369656e7420746f6b656e206c6566742e00000000000000006044820152606401610723565b73ffffffffffffffffffffffffffffffffffffffff861662fdd58e30610c78878561256f565b6040517fffffffff0000000000000000000000000000000000000000000000000000000060e085901b16815273ffffffffffffffffffffffffffffffffffffffff90921660048301526024820152604401602060405180830381865afa158015610ce6573d6000803e3d6000fd5b505050506040513d601f19601f82011682018060405250810190610d0a9190612587565b600114610d73576040517f08c379a000000000000000000000000000000000000000000000000000000000815260206004820152601860248201527f496e73756666696369656e7420746f6b656e206c6566742e00000000000000006044820152606401610723565b60005b84811015610e585773ffffffffffffffffffffffffffffffffffffffff871663f242432a3033610da6858761256f565b6040517fffffffff0000000000000000000000000000000000000000000000000000000060e086901b16815273ffffffffffffffffffffffffffffffffffffffff938416600482015292909116602483015260448201526001606482015260a06084820152600060a482015260c401600060405180830381600087803b158015610e2f57600080fd5b505af1158015610e43573d6000803e3d6000fd5b5050505080610e51906125cf565b9050610d76565b50604051848152819033907fe962ab8975e3ded86d3bdae68691ba3ed22e3bf13fe9116bf2928f77e17e1a199060200160405180910390a3505050505050565b610ea0611a83565b8273ffffffffffffffffffffffffffffffffffffffff166305eed1a16040518163ffffffff1660e01b8152600401602060405180830381865afa158015610eeb573d6000803e3d6000fd5b505050506040513d601f19601f82011682018060405250810190610f0f9190612607565b610f75576040517f08c379a000000000000000000000000000000000000000000000000000000000815260206004820152601560248201527f5f746f6b656e4164647265737320696e76616c696400000000000000000000006044820152606401610723565b8273ffffffffffffffffffffffffffffffffffffffff166392c36ba06040518163ffffffff1660e01b8152600401600060405180830381865afa158015610fc0573d6000803e3d6000fd5b505050506040513d6000823e601f3d9081017fffffffffffffffffffffffffffffffffffffffffffffffffffffffffffffffe01682016040526110069190810190612684565b8261ffff168151811061101b5761101b6125a0565b602002602001015181111561108c576040517f08c379a000000000000000000000000000000000000000000000000000000000815260206004820152601860248201527f546f6f206d756368206e756d62657250757273686173656400000000000000006044820152606401610723565b61012d546040517f0d863d3d00000000000000000000000000000000000000000000000000000000815273ffffffffffffffffffffffffffffffffffffffff85811660048301526000928392839283921690630d863d3d90602401600060405180830381865afa158015611104573d6000803e3d6000fd5b505050506040513d6000823e601f3d9081017fffffffffffffffffffffffffffffffffffffffffffffffffffffffffffffffe016820160405261114a91908101906126b9565b93509350935093506000848761ffff168151811061116a5761116a6125a0565b6020026020010151905061121f84888a73ffffffffffffffffffffffffffffffffffffffff166392c36ba06040518163ffffffff1660e01b8152600401600060405180830381865afa1580156111c4573d6000803e3d6000fd5b505050506040513d6000823e601f3d9081017fffffffffffffffffffffffffffffffffffffffffffffffffffffffffffffffe016820160405261120a9190810190612684565b8a61ffff1681518110610bd457610bd46125a0565b611229878361256f565b10611290576040517f08c379a000000000000000000000000000000000000000000000000000000000815260206004820152601860248201527f496e73756666696369656e7420746f6b656e206c6566742e00000000000000006044820152606401610723565b73ffffffffffffffffffffffffffffffffffffffff881662fdd58e306112b6898561256f565b6040517fffffffff0000000000000000000000000000000000000000000000000000000060e085901b16815273ffffffffffffffffffffffffffffffffffffffff90921660048301526024820152604401602060405180830381865afa158015611324573d6000803e3d6000fd5b505050506040513d601f19601f820116820180604052508101906113489190612587565b6001146113b1576040517f08c379a000000000000000000000000000000000000000000000000000000000815260206004820152601860248201527f496e73756666696369656e7420746f6b656e206c6566742e00000000000000006044820152606401610723565b600086848961ffff16815181106113ca576113ca6125a0565b60200260200101516113dc9190612739565b6040517fdd62ed3e000000000000000000000000000000000000000000000000000000008152336004820152306024820152909150819073a0b86991c6218b36c1d19d4a2e9eb0ce3606eb489063dd62ed3e90604401602060405180830381865afa15801561144f573d6000803e3d6000fd5b505050506040513d601f19601f820116820180604052508101906114739190612587565b10156114db576040517f08c379a000000000000000000000000000000000000000000000000000000000815260206004820152601660248201527f496e73756666696369656e7420616c6c6f77616e6365000000000000000000006044820152606401610723565b6114fb73a0b86991c6218b36c1d19d4a2e9eb0ce3606eb48338584611af0565b60005b878110156115e05773ffffffffffffffffffffffffffffffffffffffff8a1663f242432a303361152e858861256f565b6040517fffffffff0000000000000000000000000000000000000000000000000000000060e086901b16815273ffffffffffffffffffffffffffffffffffffffff938416600482015292909116602483015260448201526001606482015260a06084820152600060a482015260c401600060405180830381600087803b1580156115b757600080fd5b505af11580156115cb573d6000803e3d6000fd5b50505050806115d9906125cf565b90506114fe565b50604051878152829033907fe962ab8975e3ded86d3bdae68691ba3ed22e3bf13fe9116bf2928f77e17e1a199060200160405180910390a3505050505050505050565b61162b6116da565b73ffffffffffffffffffffffffffffffffffffffff81166116ce576040517f08c379a000000000000000000000000000000000000000000000000000000000815260206004820152602660248201527f4f776e61626c653a206e6577206f776e657220697320746865207a65726f206160448201527f64647265737300000000000000000000000000000000000000000000000000006064820152608401610723565b6116d7816117e0565b50565b60655473ffffffffffffffffffffffffffffffffffffffff16331461045e576040517f08c379a000000000000000000000000000000000000000000000000000000000815260206004820181905260248201527f4f776e61626c653a2063616c6c6572206973206e6f7420746865206f776e65726044820152606401610723565b611763611a83565b603380547fffffffffffffffffffffffffffffffffffffffffffffffffffffffffffffff001660011790557f62e78cea01bee320cd4e420270b5ea74000d11b0c9f74754ebdbfc544b05a2586117b63390565b60405173ffffffffffffffffffffffffffffffffffffffff909116815260200160405180910390a1565b6065805473ffffffffffffffffffffffffffffffffffffffff8381167fffffffffffffffffffffffff0000000000000000000000000000000000000000831681179093556040519116919082907f8be0079c531659141344cd1fd0a4f28419497f9722a3daafe3b4186f6b6457e090600090a35050565b61185f611b8b565b603380547fffffffffffffffffffffffffffffffffffffffffffffffffffffffffffffff001690557f5db9ee0a495bf2e6ff9c91a7834c1ba4fdd244a5e8aa4e537bd38aeae4b073aa336117b6565b600054610100900460ff16611945576040517f08c379a000000000000000000000000000000000000000000000000000000000815260206004820152602b60248201527f496e697469616c697a61626c653a20636f6e7472616374206973206e6f74206960448201527f6e697469616c697a696e670000000000000000000000000000000000000000006064820152608401610723565b61045e611bf7565b600054610100900460ff166119e4576040517f08c379a000000000000000000000000000000000000000000000000000000000815260206004820152602b60248201527f496e697469616c697a61626c653a20636f6e7472616374206973206e6f74206960448201527f6e697469616c697a696e670000000000000000000000000000000000000000006064820152608401610723565b61045e611cb8565b600054610100900460ff1661045e576040517f08c379a000000000000000000000000000000000000000000000000000000000815260206004820152602b60248201527f496e697469616c697a61626c653a20636f6e7472616374206973206e6f74206960448201527f6e697469616c697a696e670000000000000000000000000000000000000000006064820152608401610723565b60335460ff161561045e576040517f08c379a000000000000000000000000000000000000000000000000000000000815260206004820152601060248201527f5061757361626c653a20706175736564000000000000000000000000000000006044820152606401610723565b6040805173ffffffffffffffffffffffffffffffffffffffff85811660248301528416604482015260648082018490528251808303909101815260849091019091526020810180517bffffffffffffffffffffffffffffffffffffffffffffffffffffffff167f23b872dd00000000000000000000000000000000000000000000000000000000179052611b85908590611d58565b50505050565b60335460ff1661045e576040517f08c379a000000000000000000000000000000000000000000000000000000000815260206004820152601460248201527f5061757361626c653a206e6f74207061757365640000000000000000000000006044820152606401610723565b600054610100900460ff16611c8e576040517f08c379a000000000000000000000000000000000000000000000000000000000815260206004820152602b60248201527f496e697469616c697a61626c653a20636f6e7472616374206973206e6f74206960448201527f6e697469616c697a696e670000000000000000000000000000000000000000006064820152608401610723565b603380547fffffffffffffffffffffffffffffffffffffffffffffffffffffffffffffff00169055565b600054610100900460ff16611d4f576040517f08c379a000000000000000000000000000000000000000000000000000000000815260206004820152602b60248201527f496e697469616c697a61626c653a20636f6e7472616374206973206e6f74206960448201527f6e697469616c697a696e670000000000000000000000000000000000000000006064820152608401610723565b61045e336117e0565b6000611dba826040518060400160405280602081526020017f5361666545524332303a206c6f772d6c6576656c2063616c6c206661696c65648152508573ffffffffffffffffffffffffffffffffffffffff16611e699092919063ffffffff16565b805190915015611e645780806020019051810190611dd89190612607565b611e64576040517f08c379a000000000000000000000000000000000000000000000000000000000815260206004820152602a60248201527f5361666545524332303a204552433230206f7065726174696f6e20646964206e60448201527f6f742073756363656564000000000000000000000000000000000000000000006064820152608401610723565b505050565b6060611e788484600085611e80565b949350505050565b606082471015611f12576040517f08c379a000000000000000000000000000000000000000000000000000000000815260206004820152602660248201527f416464726573733a20696e73756666696369656e742062616c616e636520666f60448201527f722063616c6c00000000000000000000000000000000000000000000000000006064820152608401610723565b73ffffffffffffffffffffffffffffffffffffffff85163b611f90576040517f08c379a000000000000000000000000000000000000000000000000000000000815260206004820152601d60248201527f416464726573733a2063616c6c20746f206e6f6e2d636f6e74726163740000006044820152606401610723565b6000808673ffffffffffffffffffffffffffffffffffffffff168587604051611fb991906127a2565b60006040518083038185875af1925050503d8060008114611ff6576040519150601f19603f3d011682016040523d82523d6000602084013e611ffb565b606091505b509150915061200b828286612016565b979650505050505050565b60608315612025575081610599565b8251156120355782518084602001fd5b816040517f08c379a000000000000000000000000000000000000000000000000000000000815260040161072391906127be565b60006020828403121561207b57600080fd5b81357fffffffff000000000000000000000000000000000000000000000000000000008116811461059957600080fd5b6000602082840312156120bd57600080fd5b5035919050565b803561ffff811681146120d657600080fd5b919050565b6000806000606084860312156120f057600080fd5b83359250612100602085016120c4565b915061210e604085016120c4565b90509250925092565b73ffffffffffffffffffffffffffffffffffffffff811681146116d757600080fd5b6000806040838503121561214c57600080fd5b823561215781612117565b946020939093013593505050565b60008060006040848603121561217a57600080fd5b833561218581612117565b9250602084013567ffffffffffffffff808211156121a257600080fd5b818601915086601f8301126121b657600080fd5b8135818111156121c557600080fd5b8760208260051b85010111156121da57600080fd5b6020830194508093505050509250925092565b6020808252825182820181905260009190848201906040850190845b81811015612227578351151583529284019291840191600101612209565b50909695505050505050565b7f4e487b7100000000000000000000000000000000000000000000000000000000600052604160045260246000fd5b604051601f82017fffffffffffffffffffffffffffffffffffffffffffffffffffffffffffffffe016810167ffffffffffffffff811182821017156122a9576122a9612233565b604052919050565b600067ffffffffffffffff8211156122cb576122cb612233565b5060051b60200190565b600082601f8301126122e657600080fd5b813560206122fb6122f6836122b1565b612262565b82815260059290921b8401810191818101908684111561231a57600080fd5b8286015b84811015612335578035835291830191830161231e565b509695505050505050565b600082601f83011261235157600080fd5b813567ffffffffffffffff81111561236b5761236b612233565b61239c60207fffffffffffffffffffffffffffffffffffffffffffffffffffffffffffffffe0601f84011601612262565b8181528460208386010111156123b157600080fd5b816020850160208301376000918101602001919091529392505050565b600080600080600060a086880312156123e657600080fd5b85356123f181612117565b9450602086013561240181612117565b9350604086013567ffffffffffffffff8082111561241e57600080fd5b61242a89838a016122d5565b9450606088013591508082111561244057600080fd5b61244c89838a016122d5565b9350608088013591508082111561246257600080fd5b5061246f88828901612340565b9150509295509295909350565b60006020828403121561248e57600080fd5b813561059981612117565b6000806000606084860312156124ae57600080fd5b83356124b981612117565b92506124c7602085016120c4565b9150604084013590509250925092565b600080600080600060a086880312156124ef57600080fd5b85356124fa81612117565b9450602086013561250a81612117565b93506040860135925060608601359150608086013567ffffffffffffffff81111561253457600080fd5b61246f88828901612340565b7f4e487b7100000000000000000000000000000000000000000000000000000000600052601160045260246000fd5b6000821982111561258257612582612540565b500190565b60006020828403121561259957600080fd5b5051919050565b7f4e487b7100000000000000000000000000000000000000000000000000000000600052603260045260246000fd5b60007fffffffffffffffffffffffffffffffffffffffffffffffffffffffffffffffff820361260057612600612540565b5060010190565b60006020828403121561261957600080fd5b8151801515811461059957600080fd5b600082601f83011261263a57600080fd5b8151602061264a6122f6836122b1565b82815260059290921b8401810191818101908684111561266957600080fd5b8286015b84811015612335578051835291830191830161266d565b60006020828403121561269657600080fd5b815167ffffffffffffffff8111156126ad57600080fd5b611e7884828501612629565b600080600080608085870312156126cf57600080fd5b845167ffffffffffffffff808211156126e757600080fd5b6126f388838901612629565b955060208701519450604087015191508082111561271057600080fd5b5061271d87828801612629565b925050606085015161272e81612117565b939692955090935050565b6000817fffffffffffffffffffffffffffffffffffffffffffffffffffffffffffffffff048311821515161561277157612771612540565b500290565b60005b83811015612791578181015183820152602001612779565b83811115611b855750506000910152565b600082516127b4818460208701612776565b9190910192915050565b60208152600082518060208401526127dd816040850160208701612776565b601f017fffffffffffffffffffffffffffffffffffffffffffffffffffffffffffffffe016919091016040019291505056fea264697066735822122032d43c9f7bb6ca09e0ee56bbab903bae5b57e640de933967b54752b75cc9de4d64736f6c634300080d0033",
  "linkReferences": {},
  "deployedLinkReferences": {}
}